:020000040800F2
:1000000060040020450100086B0F0008BD0E0008C9
:10001000690F0008B1010008B511000800000000D8
:100020000000000000000000000000006F0F00084A
:10003000B3010008000000006D0F0008710F0008F8
:100040005F0100085F0100085F0100085F01000810
:100050005F0100085F0100085F0100085F01000800
:100060005F0100085F0100085F0100085F010008F0
:100070005F0100085F0100085F0100085F010008E0
:100080005F0100085F0100085F0100085F010008D0
:100090005F0100085F0100085F0100085F010008C0
:1000A0005F0100085F0100085F0100085F010008B0
:1000B0005F0100085F0100085F0100085F010008A0
:1000C0005F0100085F0100085F0100085F01000890
:1000D0005F0100085F010008A91100085F01000826
:1000E0005F0100085F0100085F0100085F01000870
:1000F0005F0100085F0100085F0100085F01000860
:100100005F0100085F0100085F0100085F0100084F
:100110005F0100085F0100085F0100085F0100083F
:100120005F0100085F0100085F0100085F0100082F
:10013000DFF80CD000F02AF8004800474112000810
:10014000600400200648804706480047FEE7FEE7B7
:10015000FEE7FEE7FEE7FEE7FEE7FEE7FEE7FEE777
:10016000D30F000831010008D2B201E000F8012BE2
:10017000491EFBD270470022F6E710B513460A4627
:1001800004461946FFF7F0FF204610BD064C074D08
:1001900006E0E06840F0010394E807009847103457
:1001A000AC42F6D3FFF7C8FFC0130008E013000805
:1001B000FEE7704772B6FEE72DE9F05F90F8211078
:1001C0000024022903D004218163012485E0016811
:1001D0000A6822F00E020A6001680A6822F0010231
:1001E0000A603F4E3E4FB215DFF8F4C0DFF8F090E2
:1001F000DFF8ECA0DFF8E8B0DFF8E4E00168783F72
:1002000013011502ACF1640CA9F15009AAF13C0AE2
:10021000ABF1280BAEF1140E4FF48018B14227D980
:10022000B9420ED0614512D049451DD0514518D074
:10023000594518D0714501D1424615E0294EB142C9
:1002400001D1012210E0274E1436B14201D1102213
:100250000AE0244E2836B14206D0224A3C3291426E
:1002600001D11A4600E02A461E49091F0A602BE008
:10027000B94213D0614517D0494522D051451DD010
:1002800059451DD0714501D142461AE0B14202D113
:100290004FF0807215E0134EB14201D1012210E0FF
:1002A000104E1436B14201D110220AE00D4E28360C
:1002B000B14206D00B4A3C32914201D11A4600E0CD
:1002C0002A46074980394A60012180F8211000211F
:1002D00080F82010416B01B188472046BDE8F09FAF
:1002E00080000240080402402DE9F84FDFF8C89171
:1002F000002409F1040A0AF1040B23460F270BF12D
:10030000040ED1E00125A54006EA0502AA4276D1F5
:10031000DFF8A8C14E68A6EB0C0866452BD00DDCB3
:10032000032E34D005DC36B3012E19D0022E2FD186
:100330001BE0112E16D0122E2AD119E0B8F5881F15
:1003400019D006DCB8F5803F15D0B8F5801F1FD155
:1003500011E0B8F5001F0ED0B8F5041F18D10AE05F
:10036000CB6815E0CB681B1D12E0CB6808330FE0AB
:10037000CB680C330CE08B682BB1012B4FF00803DA
:1003800003D0456104E0042302E0056100E000239E
:10039000FF2A01D8064601E000F104064FEA840571
:1003A00001D9A5F12005D6F8008007FA05FC28EA56
:1003B0000C0803FA05F548EA0508C6F800804D6800
:1003C000ED0070D53E4DAE6946F00106AE61AD69F7
:1003D00024F0030605F0010500953A4D06EB050CE7
:1003E000DCF80850A607360F07FA06F825EA0805D4
:1003F000DFF8D480404503D14FF0000825E052E0FB
:10040000DFF8C880404502D14FF001081DE0DFF859
:10041000C080404502D14FF0020816E0DFF8B480FA
:10042000404502D14FF003080FE0DFF8AC804045B3
:1004300002D14FF0040808E0DFF8A080404502D167
:100440004FF0050801E04FF0060808FA06F848EA00
:100450000508CCF808804D68D9F80060ED034D46DA
:1004600001D5164300E096432E604D68DAF800602F
:10047000AD03554601D5164300E096432E604D6806
:10048000DBF80060ED025D4601D5164300E09643BF
:100490002E604D68DEF80060AD02754601D516434A
:1004A00000E096432E60641C0A681646E2407FF422
:1004B00029AFBDE8F88F00000004014000001110D2
:1004C000001002400000014000080140000C014003
:1004D000001001400014014000180140001C0140C0
:1004E0000AB1016170470904FBE700000148806818
:1004F000704700000800002002488168027811441B
:100500008160704708000020074810B5016841F07D
:1005100010010160032000F075F8002000F006F8DB
:1005200000F024F8002010BD0020024070B50D4DF1
:1005300004464FF47A712878B1FBF0F00A49096853
:10054000B1FBF0F000F0ECFA48B9102C07D2002211
:100550002146501E00F036F800206C6070BD01206E
:1005600070BD000008000020140000200C4808B5F1
:10057000816941F001018161816901F0010100910E
:10058000C16941F08051C161C06900F080500090A4
:100590000448416821F0E06141F00071416008BD0C
:1005A0000010024000000140002809DB00F01F029B
:1005B000012191404009800000F1E020C0F80011C5
:1005C00070470000F0B40E4B1B680C46C3F30223C7
:1005D000C3F10705042D00D90425191D072901D2EF
:1005E000002300E0DB1E012606FA05F1491E21402A
:1005F00099409E40761E16403143F0BC00F0E4BDA9
:100600000CED00E0064900F0070208684FF6FF0312
:10061000184040EA0220034A104308607047000077
:100620000CED00E00000FA052DE9F0470F4605004B
:1006300061D0434E306800F00700B84209D23068FC
:1006400020F0070038433060306800F00700B842FF
:1006500051D128683B4C810712D5400703D560680B
:1006600040F4E06060602878000703D5606840F4DB
:10067000605060606068A96820F0F0000843606026
:100680002878C00728D06868012810D0216802287F
:1006900010D0890700292EDA616821F00301014397
:1006A0006160FFF723FF804641F288390DE0216841
:1006B0008903EFE78901EDE7FFF718FFA0EB0801D9
:1006C000494502D90320BDE8F0876068696800F0F9
:1006D0000C00B0EB810FEFD1306800F00700B8429A
:1006E0000BD9306820F0070038433060306800F0E4
:1006F0000700B84201D00120E5E72878400705D57A
:100700006068E96820F4E0600843606028780007CA
:1007100006D56068296920F4605040EAC100606035
:1007200000F038F86168084AC1F30311515CC84011
:100730000649086006480068FFF7F8FE0020C2E797
:100740000020024000100240A813000814000020FE
:100750000C0000200448054900684968044AC1F3B8
:100760000221515CC8407047140000200010024074
:10077000B81300080448054900684968044AC1F3F1
:10078000C221515CC8407047140000200010024094
:10079000B813000812A185B00FC98DE80F0014A08E
:1007A000144A006804905168134801F00C03042BAC
:1007B00010D0082B0ED1C1F38343C9031DF80300E9
:1007C0000AD5516804AAC1F34041515C0A4A50431A
:1007D000B0FBF1F005B0704708494843FAE7000064
:1007E00002030405060708090A0B0C0D0E0F101072
:1007F000010200000010024000127A0000093D00D2
:100800002DE9F84F040070D02078C04DC00749D0C2
:100810006868C0F38100012807D06868C0F38100D0
:10082000022809D16868C00306D52868800339D535
:1008300060680028E7D035E06068B0F5803F0BD0F5
:1008400010B1B0F5A02F11D0286820F480302860B6
:10085000286820F4802002E0286840F48030286076
:10086000606890B1FFF742FE06460AE0286840F44F
:1008700080202860F0E700BFFFF738FE801B642867
:1008800073D828688003F7D50CE0FFF72FFE0646E3
:1008900005E000BFFFF72AFE801B6428F0D8286817
:1008A0008003F7D420789A4E80074FF001094FF06B
:1008B000000839D5686810F00C0F07D06868C0F3DD
:1008C0008100022809D16868C00306D4286880071F
:1008D00014D52069012808D110E02069B0B1C6F80C
:1008E0000090FFF703FE074605E00AE1FFF7FEFD73
:1008F000C01B0228C4D828688007F7D5286861691A
:1009000020F0F80040EAC10028600DE0C6F8008041
:10091000FFF7ECFD074604E0FFF7E8FDC01B0228E7
:1009200023D828688007F7D4207800072CD5794889
:10093000A169D9B1C0F80090FFF7D8FD074604E0DF
:10094000FFF7D4FDC01B02280FD8686A8007F7D5CF
:1009500071484FF4FA510068B0FBF1F0009000BF0D
:100960000098411E0091FAD20EE080E0C0F80080AD
:10097000FFF7BCFD074604E0FFF7B8FDC01B0228E7
:1009800075D8686A8007F7D42078400760D5E86991
:100990000027C00008D4E86940F08050E861E869A9
:1009A000012700F0805000905C480168C90513D40D
:1009B0000168834641F480710160FFF797FD82462C
:1009C00006E000BFFFF792FDA0EB0A0064284ED8B6
:1009D000DBF80000C005F5D5E06801280AD008B1B1
:1009E000052813D0286A20F001002862286A20F028
:1009F000040002E0286A40F001002862E06841F249
:100A0000883B98B1FFF772FD82460BE0286A40F000
:100A100004002862EEE700BFFFF768FDA0EB0A01C3
:100A200059455AD8286A8007F6D50CE0FFF75EFDD5
:100A3000824605E0FFF75AFDA0EB0A0159454CD864
:100A4000286A8007F6D41FB1E86920F08050E86179
:100A5000E06988B36968C1F38101022944D00228A2
:100A6000C6F8608004D0FFF741FD044638E034E06A
:100A7000FFF73CFD074604E0FFF738FDC01B0228E6
:100A80002BD828688001F7D4206AB0F5803F05D1C3
:100A90006868A16820F4003008436860D4E9080160
:100AA0000843696821F4741108436860C6F86090CF
:100AB000FFF71CFD044606E025E000BFFFF716FD2A
:100AC000001B022809D828688001F7D51BE000BF69
:100AD000FFF70CFD001B022802D90320BDE8F88FA8
:100AE00028688001F4D40EE00128F7D06868226AF3
:100AF00000F48031914204D1616A00F470108842A0
:100B000001D00120EAE70020E8E7000000100240E1
:100B10000000424280044242140000200070004065
:100B200010B5401EB0F1807F01D3012010BD4FF001
:100B3000E02460610F21601700F046FB0020A061F7
:100B400007202061002010BD7047000070B50268CA
:100B500004461068D168536910F00F0F53D003F0AA
:100B6000010501F490762E435FD0C20705D0CA0577
:100B700003D5E26B42F00102E263420705D5DA07D2
:100B800003D0E26B42F00202E263820705D5DA0786
:100B900003D0E26B42F00402E263020707D501F0E2
:100BA00020022A4303D0E26B42F00802E263E26BC8
:100BB000002A34D0800604D5880602D5204600F0ED
:100BC0001FFA20684069E16BC0F3801001F0080152
:100BD0000143204624D000F005FA20684169490607
:100BE0001AD5416921F040014161606BA0B12D49E6
:100BF0004163606BFFF7E0FA002810D0606B416B37
:100C0000BDE87040084783060FD58B060DD52046FA
:100C1000BDE8704000F0F4B92046FFF795FF70BDC5
:100C2000FFF792FF0020E06370BD03062BD50B0693
:100C300029D594F839002128F6D1A068B0F5805F55
:100C400001D12069B0B1206A411C2162216800787D
:100C50004860E08C401E0004000CE084E4D1206871
:100C6000C16821F08001C1602068C16841F0400185
:100C7000C16070BD206A0088C0F308005060206A1F
:100C8000801C2062E5E74006F3D54806F1D5D1681F
:100C9000204621F04001D160202184F8391000F075
:100CA0000CF970BDD50F000870B5040004D094F89D
:100CB0003900002510B106E0012070BD84F83850DD
:100CC000204600F023F8242084F839002068C16809
:100CD00021F40051C160204600F0D8F92068016974
:100CE00021F4904101612068416921F02A014161AC
:100CF0002068C16841F40051C160E563202084F898
:100D0000390084F83A00002070BD000030B585B08D
:100D100000240094019402940394006818498842C6
:100D20002BD11848C16941F40031C161C16901F496
:100D300000310491816941F0040181618069124DA3
:100D400000F0040004900420009002200190032091
:100D5000039069462846FFF7C7FA0820CDE900044A
:100D6000694628460294FFF7BFFA00221146262062
:100D7000FFF728FC2620FFF717FC05B030BD000068
:100D800000440040001002400008014090F83A3052
:100D9000202B22D1F9B1F2B190F83830012B1CD0C0
:100DA00081628285C2850021C163222280F83A20B7
:100DB00080F838100168CA6842F48072CA6001681D
:100DC0004A6942F001024A610068C16841F02001AD
:100DD000C16000207047012070470220704700006A
:100DE00000680649884207D105490120042208709D
:100DF000891C0448FFF7CABF704700000044004048
:100E0000000000201C0000202DE9F843044690F863
:100E100039001F4616460D4620284CD1C5B1BEB13B
:100E200094F83800012846D0012084F838004FF0AB
:100E30000008C4F83C80212084F83900FFF756FBF5
:100E4000A6848146E684A068B0F5805F03D004E004
:100E50000120BDE8F883206928B12E465FF0000527
:100E600084F838800EE00026FAE78021204600F062
:100E700069F9A0B9AEB116F8010B21684860E08CA1
:100E8000401EE084E08C4B464FF0000200970028A3
:100E9000EBD14FF04001204600F054F930B103206F
:100EA000D7E735F8020BC0F30800E6E7202084F806
:100EB00039000020CDE70220CBE77047FEE70000B5
:100EC00030B585B00024184800940194029403942E
:100ED000816941F010018161816901F01001049183
:100EE000816941F020018161816901F02001049153
:100EF000816941F00401816180690C4D00F00400BA
:100F00000490002204212846FFF7EAFA042000900A
:100F10000120CDE901040220039069462846FFF72D
:100F2000E3F905B030BD000000100240001401409C
:100F30000C4810B50A4901604FF4E13141600021CD
:100F400081600C22C160C0E904128161C161FFF7B8
:100F5000ABFE002803D0BDE81040FFF72BB910BD51
:100F6000004400401C000020FEE7FEE77047704789
:100F7000FFF7C2BA30B58FB028216846FFF7FBF8FB
:100F800014210AA8FFF7F7F801210804CDE90010A1
:100F90000024029402250491CDE907504FF4E0109B
:100FA00009906846FFF72CFC08B172B6FEE70F20E7
:100FB000CDE90A054FF48060CDE90C4002210AA872
:100FC0000E94FFF731FB002801D072B6FEE70FB098
:100FD00030BD704710B5406A0021C185C184FFF75C
:100FE000B3FD10BD0168CA6822F49072CA6001683E
:100FF0004A6922F001024A61202180F83A107047C4
:1010000010B590F83A10222901D0022010BD826854
:101010004FF480539A4201D1016921B1816A9A4209
:101020001BD04AB10AE00268816A5268C2F3080222
:101030000A80816A891C08E0026972B102685268FC
:1010400002F07F020A70816A491C8162C18D491ECB
:101050000904090CC18503D016E002685268F1E763
:101060000168CA6822F02002CA600168CA6822F4D6
:101070008072CA6001684A6922F001024A61202137
:1010800080F83A10FFF7ACFE002010BD70B50446A2
:1010900000680169E26821F440511143016121694E
:1010A000A0680843616908432168CA6841F20C637B
:1010B0009A430243CA6020684169A26921F44071E1
:1010C000114341611E492068884202D1FFF752FB5B
:1010D00001E0FFF73FFB00EBC00101EB001260688D
:1010E00064218000B2FBF0F3B3FBF1F36FF018065C
:1010F0007343B2FBF0F5B2FBF0F605EB8305322348
:1011000003EB0515B5FBF1F5B6FBF1F605F0F005BF
:1011100005EB0615B2FBF0F6B2FBF0F0B0FBF1F018
:101120006FF01802504306EB800003EB0010B0FB99
:10113000F1F0216800F00F002844886070BD0000C5
:10114000003801402DE9F041984617460E46044606
:10115000069D1DE0681C1BD02DB1FFF7C7F9A0EB61
:101160000800A84214D92068C16821F4D071C16078
:101170002068416921F001014161202084F8390093
:1011800084F83A00002084F838000320BDE8F0819C
:101190002068006836EA000004D00020B842D9D0A8
:1011A0000020F3E70120F9E70148FFF7CFBC00007A
:1011B0001C000020FEE70000014A024900F023B8AD
:1011C00029120008180000200907090E002804DB76
:1011D00000F1E02080F80014704700F00F0000F1EB
:1011E000E02080F8141D704702E008C8121F08C1F3
:1011F000002AFAD170477047002001E001C1121F98
:10120000002AFBD170472DE9F04116460F460446EF
:10121000002503E03946B047641C6D1C2078002887
:10122000F8D12846BDE8F08113B54FF0FF33012215
:1012300069460248FFF7E8FD00981CBD1C0000202D
:10124000FFF762F9FFF796FEFFF73AFEFFF770FE31
:1012500020A0FFF7B1FF28A0FFF7AEFF2DA0FFF7FA
:10126000ABFF04223A493B48FFF790FD384CDFF8CA
:10127000E88001270026A51E287801281ED12E709F
:101280002078AA2809D1E078552806D1607801286D
:1012900003D1A07818B1012808D06F7011E00022A6
:1012A00004214046FFF71CF92CA005E0012204218F
:1012B0004046FFF715F92DA0FFF77EFF687801285B
:1012C00002D12EA0FFF778FF6E7026706670A670B0
:1012D000E670D1E72A2A2A2A2A20436F6D6D756E9F
:1012E00069636174696F6E204672616D65202A2A98
:1012F0002A2A2A2A0D0A0000506C65617365206550
:101300006E74657220696E737472756374696F6E42
:101310003A0D0A00486561642D3E307861612044D1
:1013200065766963652D3E30783031204F70657287
:101330006174696F6E2D3E307830302F30783031E7
:10134000205461696C2D3E307835352E0D0A000031
:10135000020000201C000020001401404C443220F8
:10136000697320636C6F7365210D0A004C44322051
:101370006973206F70656E210D0A0000436F6D6DFB
:10138000756E69636174696F6E204572726F722148
:1013900020506C656173652073656E6420616761C0
:1013A000696E210D0A00000000000000000000002E
:1013B00001020304060708090000000001020304FB
:1013C000E0130008000000201C000000E8110008E5
:1013D000FC1300081C00002044040000F811000861
:1013E00000000000000000000100000010000000EC
:0C13F000000000000024F40000000000D9
:0400000508000131BD
:00000001FF
