:020000040800F2
:10000000E8040020450100089711000809100008C5
:1000100095110008DD010008BD1300080000000074
:100020000000000000000000000000009B1100081C
:10003000DF01000800000000991100089D11000870
:100040005F0100085F0100085F0100085F01000810
:100050005F0100085F0100085F0100085F01000800
:100060005F0100085F0100085F0100085F010008F0
:100070005F0100085F0100085F0100085F010008E0
:100080005F0100085F0100085F0100085F010008D0
:100090005F0100085F0100085F0100085F010008C0
:1000A0005F0100085F0100085F0100085F010008B0
:1000B0005F010008011200085F0100085F010008ED
:1000C0005F0100085F0100085F0100085F01000890
:1000D0005F0100085F0100085F0100085F01000880
:1000E0005F0100085F0100085F0100085F01000870
:1000F0005F0100085F0100085F0100085F01000860
:100100005F0100085F0100085F0100085F0100084F
:100110005F0100085F0100085F0100085F0100083F
:100120005F0100085F0100085F0100085F0100082F
:10013000DFF80CD000F040F80048004789150008AF
:10014000E80400200648804706480047FEE7FEE72F
:10015000FEE7FEE7FEE7FEE7FEE7FEE7FEE7FEE777
:10016000FF11000831010008D2B201E000F8012BB4
:10017000491EFBD270470022F6E710B513460A4627
:1001800004461946FFF7F0FF204610BD30B50B4678
:10019000014600202022012409E021FA02F59D42B7
:1001A00005D303FA02F5491B04FA02F52844151E8B
:1001B000A2F10102F1DC30BD064C074D06E0E0681B
:1001C00040F0010394E8070098471034AC42F6D39E
:1001D000FFF7B2FF4C1600086C160008FEE77047E8
:1001E00072B6FEE770B5044600F014F90546601CCF
:1001F00002D004480078044400F00CF9401BA042EF
:10020000FAD370BD040000202DE9F84FDFF8C89143
:10021000002409F1040A0AF1040B23460F270BF10D
:10022000040ED1E00125A54006EA0502AA4276D1D6
:10023000DFF8A8C14E68A6EB0C0866452BD00DDC94
:10024000032E34D005DC36B3012E19D0022E2FD167
:100250001BE0112E16D0122E2AD119E0B8F5881FF6
:1002600019D006DCB8F5803F15D0B8F5801F1FD136
:1002700011E0B8F5001F0ED0B8F5041F18D10AE040
:10028000CB6815E0CB681B1D12E0CB6808330FE08C
:10029000CB680C330CE08B682BB1012B4FF00803BB
:1002A00003D0456104E0042302E0056100E000237F
:1002B000FF2A01D8064601E000F104064FEA840552
:1002C00001D9A5F12005D6F8008007FA05FC28EA37
:1002D0000C0803FA05F548EA0508C6F800804D68E1
:1002E000ED0070D53E4DAE6946F00106AE61AD69D8
:1002F00024F0030605F0010500953A4D06EB050CC8
:10030000DCF80850A607360F07FA06F825EA0805B4
:10031000DFF8D480404503D14FF0000825E052E0DB
:10032000DFF8C880404502D14FF001081DE0DFF83A
:10033000C080404502D14FF0020816E0DFF8B480DB
:10034000404502D14FF003080FE0DFF8AC80404594
:1003500002D14FF0040808E0DFF8A080404502D148
:100360004FF0050801E04FF0060808FA06F848EAE1
:100370000508CCF808804D68D9F80060ED034D46BB
:1003800001D5164300E096432E604D68DAF8006010
:10039000AD03554601D5164300E096432E604D68E7
:1003A000DBF80060ED025D4601D5164300E09643A0
:1003B0002E604D68DEF80060AD02754601D516432B
:1003C00000E096432E60641C0A681646E2407FF403
:1003D00029AFBDE8F88F00000004014000001110B3
:1003E000001002400000014000080140000C0140E4
:1003F000001001400014014000180140001C0140A1
:100400008068084000D0012070470AB10161704740
:100410000904FBE7014880687047000004000020E1
:10042000024881680278114481607047040000200E
:10043000074810B5016841F010010160032000F089
:1004400075F8002000F006F800F024F8002010BD38
:100450000020024070B50D4D04464FF47A712878A3
:10046000B1FBF0F00A490968B1FBF0F000F0ECFADA
:1004700048B9102C07D200222146501E00F036F851
:1004800000206C6070BD012070BD000004000020E1
:10049000100000200C4808B5816941F0010181611C
:1004A000816901F001010091C16941F08051C16190
:1004B000C06900F0805000900448416821F0E0617C
:1004C00041F00071416008BD001002400000014091
:1004D000002809DB00F01F02012191404009800043
:1004E00000F1E020C0F8001170470000F0B40E4B9E
:1004F0001B680C46C3F30223C3F10705042D00D982
:100500000425191D072901D2002300E0DB1E012666
:1005100006FA05F1491E214099409E40761E16407C
:100520003143F0BC00F05CBF0CED00E0064900F088
:10053000070208684FF6FF03184040EA0220034A0A
:1005400010430860704700000CED00E00000FA0561
:100550002DE9F0470F46050061D0434E306800F0AA
:100560000700B84209D2306820F0070038433060F5
:10057000306800F00700B84251D128683B4C810731
:1005800012D5400703D5606840F4E06060602878C9
:10059000000703D5606840F4605060606068A96837
:1005A00020F0F000084360602878C00728D0686811
:1005B000012810D02168022810D0890700292EDADE
:1005C000616821F0030101436160FFF723FF80466A
:1005D00041F288390DE021688903EFE78901EDE7F1
:1005E000FFF718FFA0EB0801494502D90320BDE839
:1005F000F0876068696800F00C00B0EB810FEFD104
:10060000306800F00700B8420BD9306820F00700CE
:1006100038433060306800F00700B84201D0012054
:10062000E5E72878400705D56068E96820F4E060D0
:10063000084360602878000706D56068296920F4BF
:10064000605040EAC100606000F038F86168084A14
:10065000C1F30311515CC8400649086006480068B0
:10066000FFF7F8FE0020C2E7002002400010024021
:100670003416000810000020080000200448054936
:1006800000684968044AC1F30221515CC8407047C0
:1006900010000020001002404416000804480549DC
:1006A00000684968044AC1F3C221515CC8407047E0
:1006B00010000020001002404416000812A185B06E
:1006C0000FC98DE80F0014A0144A00680490516807
:1006D000134801F00C03042B10D0082B0ED1C1F3EA
:1006E0008343C9031DF803000AD5516804AAC1F366
:1006F0004041515C0A4A5043B0FBF1F005B07047ED
:1007000008494843FAE70000020304050607080900
:100710000A0B0C0D0E0F1010010200000010024019
:1007200000127A0000093D002DE9F84F040070D056
:100730002078C04DC00749D06868C0F38100012807
:1007400007D06868C0F38100022809D16868C00337
:1007500006D52868800339D560680028E7D035E0E1
:100760006068B0F5803F0BD010B1B0F5A02F11D06C
:10077000286820F480302860286820F4802002E077
:10078000286840F480302860606890B1FFF742FE2E
:1007900006460AE0286840F480202860F0E700BFA1
:1007A000FFF738FE801B642873D828688003F7D5CC
:1007B0000CE0FFF72FFE064605E000BFFFF72AFE1C
:1007C000801B6428F0D828688003F7D420789A4EDC
:1007D00080074FF001094FF0000839D5686810F024
:1007E0000C0F07D06868C0F38100022809D168683F
:1007F000C00306D42868800714D52069012808D1D1
:1008000010E02069B0B1C6F80090FFF703FE07467C
:1008100005E00AE1FFF7FEFDC01B0228C4D82868E6
:100820008007F7D52868616920F0F80040EAC10028
:1008300028600DE0C6F80080FFF7ECFD074604E0F5
:10084000FFF7E8FDC01B022823D828688007F7D4EB
:10085000207800072CD57948A169D9B1C0F800905B
:10086000FFF7D8FD074604E0FFF7D4FDC01B0228C0
:100870000FD8686A8007F7D571484FF4FA510068BD
:10088000B0FBF1F0009000BF0098411E0091FAD239
:100890000EE080E0C0F80080FFF7BCFD074604E0F2
:1008A000FFF7B8FDC01B022875D8686A8007F7D427
:1008B0002078400760D5E8690027C00008D4E869BF
:1008C00040F08050E861E869012700F08050009016
:1008D0005C480168C90513D40168834641F48071FE
:1008E0000160FFF797FD824606E000BFFFF792FD2B
:1008F000A0EB0A0064284ED8DBF80000C005F5D54F
:10090000E06801280AD008B1052813D0286A20F031
:1009100001002862286A20F0040002E0286A40F002
:1009200001002862E06841F2883B98B1FFF772FD50
:1009300082460BE0286A40F004002862EEE700BF20
:10094000FFF768FDA0EB0A0159455AD8286A8007CD
:10095000F6D50CE0FFF75EFD824605E0FFF75AFD95
:10096000A0EB0A0159454CD8286A8007F6D41FB17C
:10097000E86920F08050E861E06988B36968C1F3F4
:100980008101022944D00228C6F8608004D0FFF714
:1009900041FD044638E034E0FFF73CFD074604E043
:1009A000FFF738FDC01B02282BD828688001F7D438
:1009B000206AB0F5803F05D16868A16820F4003056
:1009C00008436860D4E908010843696821F4741198
:1009D00008436860C6F86090FFF71CFD044606E017
:1009E00025E000BFFFF716FD001B022809D8286884
:1009F0008001F7D51BE000BFFFF70CFD001B0228AC
:100A000002D90320BDE8F88F28688001F4D40EE0F5
:100A10000128F7D06868226A00F48031914204D13D
:100A2000616A00F47010884201D00120EAE70020DA
:100A3000E8E7000000100240000042428004424209
:100A4000100000200070004010B5401EB0F1807F03
:100A500001D3012010BD4FF0E02460610F21601729
:100A600000F0BEFC0020A06107202061002010BD26
:100A70007047704770B590F83C20012A2CD00124B3
:100A800080F83C40022280F83D2003685A689D6847
:100A900022F070060A6832435A60104B02689A428C
:100AA0000ED00F4B9A420BD0B2F1804F08D00D4BB5
:100AB0009A4205D00C4B9A4202D00C4B9A4204D178
:100AC000496825F080031943916080F83D4000217A
:100AD00080F83C10084670BD022070BD002C01401B
:100AE000003401400004004000080040000C0040B9
:100AF00010B5040003D094F83D0010B107E00120C8
:100B000010BD002084F83C00204600F01FF80220B1
:100B100084F83D00211D206800F078FB012084F856
:100B2000460084F83E0084F83F0084F8400084F8D2
:100B3000410084F8420084F8430084F8440084F8BB
:100B4000450084F83D00002010BD000000B585B0D0
:100B50000021009101910291039101681748B1F1C0
:100B6000804F14D0164A91420FD1C16941F0020161
:100B7000C161C069002200F00200049011461D20EE
:100B8000FFF7B4FC1D20FFF7A3FC05B000BDC16951
:100B900041F00101C161C16901F001010491816964
:100BA00041F0040181618069694600F0040004900D
:100BB000012000900348FFF727FBE6E70010024002
:100BC000000400400008014090F83D10012901D0C8
:100BD00001207047022180F83D1000680E498842CC
:100BE0000ED00E4988420BD0B0F1804F08D00C498E
:100BF000884205D00B49884202D00B49884204D173
:100C0000816801F00701062903D0016841F0010164
:100C10000160002070470000002C014000340140BA
:100C20000004004000080040000C004090F83D1017
:100C3000012901D001207047022180F83D10016890
:100C4000CA6842F00102CA6000680E4988420ED0AC
:100C50000D4988420BD0B0F1804F08D00B49884233
:100C600005D00B49884202D00A49884204D18168E4
:100C700001F00701062903D0016841F0010101607C
:100C800000207047002C0140003401400004004067
:100C900000080040000C004070B5044690F83C008D
:100CA000012817D0012584F83C50022084F83D002B
:100CB0002068826822F0770222F47F42826008680E
:100CC000502830D00DDC20284DD005DC98B31028FA
:100CD0003BD148E0022070BD302844D0402834D1B8
:100CE00039E0602828D0702806D0B0F5805F2CD07D
:100CF000B0F5005F29D10AE0CB68D1E90121206875
:100D000000F0CAFA2068816841F0770109E0CB68F9
:100D1000D1E90121206800F0BFFA2068816841F420
:100D20008041816011E0CA684968206800F0C6FA15
:100D30005021206807E016E0CA684968206800F082
:100D4000CEFA6021206800F0B1FA84F83D5000200E
:100D500084F83C0070BDCA684968206800F0AEFAAB
:100D600040212068EFE7226801461046EBE7704714
:100D700070B50446006801694FF00005C943890752
:100D800015D4C168C943890711D4E91E0161012046
:100D90002077206880698007204602D0FFF7E7FFB0
:100DA00004E000F098F8204600F096F825772068D7
:100DB0000169C943490717D4C168C943490713D416
:100DC0006FF004010161022020772068806910F42F
:100DD000407F204602D0FFF7CAFF04E000F07BF816
:100DE000204600F079F8257720680169C943090792
:100DF00016D4C168C943090712D46FF00801016114
:100E0000042020772068C0698007204602D0FFF7C1
:100E1000AEFF04E000F05FF8204600F05DF82577B3
:100E200020680169C943C90617D4C168C943C90606
:100E300013D46FF010010161082020772068C06989
:100E400010F4407F204602D0FFF791FF04E000F04D
:100E500042F8204600F040F8257720680169C94330
:100E6000C90708D1C168C943C90704D1891E0161F6
:100E7000204600F033F820680169C943090609D407
:100E8000C168C943090605D46FF08001016120469D
:100E9000FFF7EEFD20680169C943490609D4C1681E
:100EA000C943490605D46FF040010161204600F0B6
:100EB00041F820680169C94389060BD4C168C94358
:100EC000890607D46FF0200101612046BDE870401B
:100ED000FFF7CFBD70BD70477047000070B5006868
:100EE000114988420FD1114C11480125217859B17F
:100EF000002601290FD0022905D12021FFF780FA11
:100F0000012800D1267070BD2021FFF779FA002852
:100F1000F9D1257070BD2021FFF772FA0028F1D1B8
:100F200002202070657070BD0004004000000020A9
:100F300000100140704770B5040004D094F83900E7
:100F4000002510B106E0012070BD84F8385020461D
:100F500000F022F8242084F839002068C16821F4C8
:100F60000051C160204600F0CDF92068016921F4EC
:100F7000904101612068416921F02A0141612068A6
:100F8000C16841F40051C160E563202084F8390054
:100F900084F83A00002070BD30B585B0002400947C
:100FA00001940294039400681449884223D11448A0
:100FB000C16941F40031C161C16901F4003104919A
:100FC000816941F00401816180690E4D00F00400E7
:100FD00004900420009002200190032003906946B1
:100FE0002846FFF711F90820CDE900046946284694
:100FF0000294FFF709F905B030BD0000004400403D
:101000000010024000080140FEE7000070B586B005
:1010100000241B480094019402940394816941F0D8
:1010200010018161816901F010010491816941F031
:1010300020018161816901F020010491816941F001
:101040000401816180690F4E00F0040004900022C9
:1010500002213046FFF7D9F902210125CDE900151B
:10106000CDE9024169463046FFF7CEF820208DE8F1
:10107000310069460448FFF7C7F806B070BD0000AC
:1010800000100240000801400010014010B586B079
:1010900000241748009401940294039404944FF0A0
:1010A00080410594C0E900144FF6FF71C0E9024188
:1010B00004618461FFF71CFD08B1FFF791F84FF45C
:1010C0000050CDE900040294694609480394FFF7F3
:1010D000E3FD08B1FFF784F8049404A904480594DB
:1010E000FFF7C8FC002801D0FFF77AF806B010BD62
:1010F0001800002010B586B0002417480094019411
:1011000002940394049413490594016041F61F412D
:10111000C0E901146321C0E903148461FFF7E8FC0E
:1011200008B1FFF75DF84FF48050009069460A4817
:10113000FFF7B2FD08B1FFF753F8049404A906487D
:101140000594FFF797FC002801D0FFF749F806B097
:1011500010BD000000040040600000200C4810B5E5
:101160000A4901604FF4E1314160002181600C22A5
:10117000C160C0E904128161C161FFF7DCFE002893
:1011800003D0BDE81040FFF72BB810BD004400406D
:10119000A8000020FEE7FEE770477047FFF740B960
:1011A00030B58FB028216846FEF7E5FF14210AA864
:1011B000FEF7E1FF01210804CDE9001000240294AC
:1011C00002250491CDE907504FF4E01009906846DC
:1011D000FFF7AAFA08B172B6FEE70F20CDE90A05BB
:1011E0004FF48060CDE90C4002210AA80E94FFF76D
:1011F000AFF9002801D072B6FEE70FB030BD7047DE
:101200000148FFF7B5BD000060000020F0B502689E
:101210001C4B1D4D1D4E1E4F1E4C4FF0804C9842D6
:1012200009D0A04207D0604505D0A84203D0B04203
:1012300001D0B84204D122F0700E4A6842EA0E0290
:10124000984209D0A04207D0604505D0A84203D0FB
:10125000B04201D0B84203D122F44075CA682A4393
:101260004D6922F080022A4302608A68C2620A68DD
:101270008262984201D0A04201D109690163012133
:101280004161F0BD002C0140000400400008004016
:10129000000C00400034014010B5846842EA03228B
:1012A00024F47F440A432243826010BD826822F006
:1012B00070020A4342F007018160704710B5036A6B
:1012C000046A24F001040462846924F0F00444EA0E
:1012D000021423F00A020A438461026210BD10B5B1
:1012E000036A23F0100303628369046A23F47043E2
:1012F00043EA023224F0A00343EA01118261016251
:1013000010BD000070B5044600680169E26821F470
:101310004051114301612169A06808436169084394
:101320002168CA6841F20C639A430243CA6020688C
:101330004169A26921F44071114341611E4920684D
:10134000884202D1FFF7AAF901E0FFF797F900EB15
:10135000C00101EB0012606864218000B2FBF0F371
:10136000B3FBF1F36FF018067343B2FBF0F5B2FB79
:10137000F0F605EB8305322303EB0515B5FBF1F51C
:10138000B6FBF1F605F0F00505EB0615B2FBF0F63D
:10139000B2FBF0F0B0FBF1F06FF01802504306EB37
:1013A000800003EB0010B0FBF1F0216800F00F00AB
:1013B0002844886070BD000000380140FEE700004E
:1013C0000FB4054B10B503A9044A029800F028F8A1
:1013D00010BC5DF814FB0000751500081400002017
:1013E0000907090E002804DB00F1E02080F8001452
:1013F000704700F00F0000F1E02080F8141D7047E6
:1014000002E008C8121F08C1002AFAD170477047CD
:10141000002001E001C1121F002AFBD1704700002B
:101420002DE9FF4F89B09B460446002506E025289C
:101430000BD05A460B999047641C6D1C20780028ED
:10144000F5D10DB02846BDE8F08F0027B84601223F
:10145000474900E0074314F8013F203B02FA03F03C
:101460000842F7D120782E2819D114F8010F47F03F
:1014700004072A280ED06FF02F022078A0F1300147
:1014800009290CD808EB880102EB410100EB0108A7
:10149000641CF2E70A98641C50F8048B0A902078C8
:1014A0000028CED0642808D0692806D075281ED020
:1014B0005A460B9990476D1C58E00A994FF00A095B
:1014C00001C90A91002802DA40422D2102E03905C3
:1014D00004D52B218DF82010012103E0F90704D059
:1014E0002021F7E78A4608AE0DE00021FAE70A99C5
:1014F0004FF00A0901C90A91F7E74946FEF746FE8F
:10150000303106F8011D0028F7D1ADEB060000F1DF
:101510002009780701D44FF00108C84502DDA8EB87
:10152000090000E000208046002706E008A85A468F
:10153000C05D0B9990476D1C7F1C5745F6DB04E09E
:1015400030205A460B9990476D1CB8F10001A8F164
:101550000108F5DC05E016F8010B5A460B99904797
:101560006D1CB9F10001A9F10109F4DC641C65E707
:101570000928010038B504468DF8000069460320AB
:10158000ABBE204638BD0000FEF752FFFFF708FE55
:10159000FFF73CFDFFF77AFDFFF7E0FDFFF7AAFD3F
:1015A0001448FFF743FB1448FFF70EFB13A0FFF7A7
:1015B00007FF114F194C1A4D002660780128FCD105
:1015C0006670012202212846FEF71FFF0120FEF768
:1015D00009FE002202212846FEF717FF0120FEF730
:1015E00001FE3868406AC1B2A1700EA0FFF7E8FEA4
:1015F000E3E7000060000020180000202054696D1F
:10160000657220636F756E742066756E6374696FA2
:101610006E20746573743A200A00000000000020F8
:1016200000080140436F756E74203D2025642E0A2A
:1016300000000000000000000000000001020304A0
:101640000607080900000000010203046C160008E8
:101650000000002018000000001400088416000894
:1016600018000020D0040000101400080000000042
:101670000100000010000000000000000024F40041
:041680000000000066
:0400000508000131BD
:00000001FF
