:020000040800F2
:10000000B80400209D010008DF1300082713000832
:10001000DD1300084B07000825160008000000004B
:10002000000000000000000000000000E3130008D2
:100030004D07000800000000E1130008E513000868
:10004000B7010008B7010008B7010008B7010008B0
:10005000B7010008B7010008B7010008B7010008A0
:10006000B7010008B7010008B7010008B701000890
:10007000B7010008B7010008B7010008B701000880
:10008000B7010008B7010008B7010008B701000870
:10009000B7010008B7010008B7010008B701000860
:1000A000B7010008B7010008B7010008B701000850
:1000B000B7010008B7010008B7010008B701000840
:1000C000B7010008B7010008B7010008B701000830
:1000D000B7010008B7010008B7010008B701000820
:1000E000B7010008B7010008B7010008B701000810
:1000F000B7010008B7010008B7010008B701000800
:10010000B7010008B7010008B7010008B7010008EF
:10011000B7010008B7010008B7010008B7010008DF
:10012000B7010008B7010008B7010008B7010008CF
:10013000B7010008B7010008B7010008B7010008BF
:10014000B7010008B7010008B7010008B7010008AF
:10015000B7010008B7010008B7010008B70100089F
:10016000B7010008B7010008B7010008B70100088F
:10017000B7010008B7010008B7010008000000003F
:10018000B7010008B7010008DFF80CD000F05CFAF6
:1001900000480047351F0008B80400200648804783
:1001A00006480047FEE7FEE7FEE7FEE7FEE7FEE75C
:1001B000FEE7FEE7FEE7FEE77D1400088901000880
:1001C0002DE9F05F0546002092469B46884606468C
:1001D000814640241BE0284641464746224600F01F
:1001E0006AF853465A46C01A914110D31146184630
:1001F000224600F051F82D1A67EB01084F462246BF
:100200000120002100F048F817EB00094E41201EA4
:10021000A4F10104DFDC484631462A464346BDE8E6
:10022000F09FD2B201E000F8012B491EFBD27047CB
:100230000022F6E710B513460A4604461946FFF7B2
:10024000F0FF204610BD00F0004230F000400AD020
:10025000C10D01F56071C0F3160042EA0151C208F8
:1002600040071143704700200146704730B50B46E8
:10027000014600202022012409E021FA02F59D42D6
:1002800005D303FA02F5491B04FA02F52844151EAA
:10029000A2F10102F1DC30BD202A04DB203A00FA91
:1002A00002F1002070479140C2F1200320FA03F3CD
:1002B000194390407047202A04DB203A21FA02F0CB
:1002C0000021704721FA02F3D040C2F12002914090
:1002D0000843194670472DE9FE4F804681EA030026
:1002E000C00F0C46009021F0004123F00045B8EB10
:1002F0000200A94105D24046214690461C460B46C5
:10030000024623F00040104347D0270DC7F30A00F0
:10031000C3F30A510290401A019040286BDAC3F3EC
:10032000130040F4801B0098924620B10023D2EBCA
:10033000030A63EB0B0B01985946C0F1400250468B
:10034000FFF7AAFF06460D4650465946019A00F0AF
:100350008DF910EB08006141002487EA115284EA0C
:10036000E7731A4340D0009A62B3019A012A4FEA18
:10037000075215DC001B61EB02014FF0004202EA5C
:100380000752CDE90042001C41F5801132462B4650
:1003900000F08DF903B0BDE8F08F40462146F9E743
:1003A000001B61EB0201001C41F5801300185B414A
:1003B0002018A2F5001747EB030140EAD570B619E3
:1003C0006D4111E06D084FEA360645EAC0754FEA07
:1003D0000752001B61EB0201001C41F58011490826
:1003E0004FEA30000019514132462B4603B0BDE8B8
:1003F000F04F00F04DB90098012240000023D0EBEF
:10040000020263EBE073009821464FEAE074B8EB18
:10041000000061EB0401E9E783F000435BE781F052
:10042000004158E72DE9FE4F81EA030404F000443F
:1004300021F0004100944FF0000B23F0004350EAFC
:1004400001045ED052EA03045BD0C3F30A54C1F343
:100450000A552C44A4F2F3340194A0FB0254C1F3D6
:10046000130141F48011C3F3130343F4801301FB20
:10047000024400FB034E840A970A44EA815447EA87
:100480008357A4FB076802958D0A05FB07854FEA91
:10049000932C04FB0C542705029D4FEA065847EAAB
:1004A0001637B5EB08056EEB070C870E920E47EA80
:1004B000811742EA8312A7FB0201B6EB0B0164EB42
:1004C00000042B0D43EA0C335E1844EB1C50DA4653
:1004D0005146E7FB0201C5F313044FEA0B3343EA2D
:1004E00014534FEA0432019C43EA0603A4F10C04BE
:1004F0000294009CCDE900B400F0D9F803B0BDE847
:10050000F08F00200146F9E72DE9F04D81EA030460
:1005100004F0004B21F0004514464FF0000A23F090
:10052000004150EA050220D054EA01021DD0C5F373
:100530000A570246C5F31303C1F31300C1F30A5669
:1005400040F4801543F48013A7EB0608101BD64631
:1005500008F2FD3873EB050002D308F1010801E051
:1005600092185B41B8F1000F03DA00200146BDE8A4
:10057000F08D00204FF48011064684460EE0171BD4
:1005800073EB050705D3121B63EB050306434CEA27
:10059000010C49084FEA300092185B4150EA01070C
:1005A000EDD152EA030012D082EA040083EA050189
:1005B000084305D0101BAB4106D20122002306E000
:1005C00000224FF0004302E06FF0010253101AEBDB
:1005D00006004CEB085110EB0A0041EB0B01BDE8A3
:1005E000F04D00F055B8C1F30A52C1F3130140F2C7
:1005F000FF3341F480119A4202DA0020014670472D
:1006000040F233439A42A2F2334202DC5242FFF7F5
:1006100052BEFFF741BE000030B5041E71F1000468
:1006200004DB4FF00044404264EB0101141E73F1FF
:10063000000405DB1C464FF00043524263EB040309
:10064000994208BF904230BD064C074D06E0E06875
:1006500040F0010394E8070098471034AC42F6D309
:10066000FFF796FDD41F0008F41F0008202A06DBC0
:10067000CB17203A41FA02F043EAE07306E041FA70
:1006800002F3D040C2F1200291400843194670475E
:1006900010B5141E73F1000408DA401C41F100018A
:1006A00092185B411A4301D120F0010010BD2DE9E1
:1006B000F04D92469B4611B1B1FA81F202E0B0FAD8
:1006C00080F220329046FFF7E7FD04460F4640EAED
:1006D0000A0041EA0B0153465A46084313D011461B
:1006E00053EA010019D0C8F140025046FFF7E3FD7C
:1006F00005460E46504659464246FFF7CDFD084393
:1007000005D0012004E020463946BDE8F08D0020E8
:10071000054346EAE0762C4337430A986305E40A2A
:10072000A0EB08000022FD0A44EA47540A3002D533
:1007300000200146E9E7010510196941DDE9084596
:1007400000196941BDE8F04DA2E7FEE7704772B6B7
:10075000FEE7000070B5044600F0EAF80546601CAC
:1007600002D004480078044400F0E2F8401BA042A4
:10077000FAD370BD000000202DE9F84F00224FF0A1
:10078000010803254FF00F0E0B6808FA02F423400E
:10079000A3426ED14E68012E05D0022E03D0112E39
:1007A00001D0122E12D186684FEA420C05FA0CF7DE
:1007B000BE43CF6807FA0CF7374387604668A64305
:1007C0000C79C4F30014944034434460C668570065
:1007D00005FA07FC8C6826EA0C06BC403443C4606A
:1007E0004C68022C01D0122C13D1D40800EB8404E5
:1007F000A346D4F8209054074FEAD46A0EFA0AF6BA
:1008000029EA06090E6906FA0AF646EA0906CBF84D
:10081000206006680C7926EA0C0604F00304BC404C
:10082000344304604C68E40065D5364C266846F4D1
:1008300080462660246822F0030604F48044009475
:10084000314C3444A446D4F808489607370F0EFAC2
:1008500007F6B4432D4EB04201D1002624E02C4EC1
:10086000B04201D101261FE02A4EB04202D1022639
:100870001AE040E0284EB04201D1032614E0274E92
:10088000B04201D104260FE0254EB04201D1052629
:100890000AE0244EB04201D1062605E0224EB042C5
:1008A00001D1072600E00826BE402643CCF80868A0
:1008B0001E4E34684F689C43FF0300D51C433460D0
:1008C0001A4C241D26684F689E43BF0300D51E4363
:1008D0002660164E083634684F689C43FF0200D5E8
:1008E0001C433460114E0C3634684F689C43BF0281
:1008F00000D51C433460521C102AFFF445AFBDE8FC
:10090000F88F0000443802400030014000000240EF
:100910000004024000080240000C024000100240A7
:100920000014024000180240001C0240003C01403C
:1009300001488068704700000000002070B5040086
:1009400025D094F83D00002520B984F83C5020467D
:1009500000F0B8F8242084F83D002068016821F0F8
:10096000010101602068016841F4004101602068D4
:10097000016821F40041016000F0FEF94D4A616810
:10098000914201D84C4900E04C49884201D20120F3
:1009900070BD4B492368B0FBF1F15E6826F03F065D
:1009A0000E435E606368934206D94FF496735943D1
:1009B0004FF47A73B1FBF3F12368491C1E6A26F0E9
:1009C0003F06314319626168914210D84900401EC8
:1009D000B0FBF1F2521CC2F30B02042A01D2042034
:1009E00022E0B0FBF1F0401CC0F30B001CE0A26859
:1009F000F2B301EBC10303EB0116431EB3FBF6F3A5
:100A00005B1C43F480431B0549D092B301EBC10248
:100A100002EB0111401EB0FBF1F0401CC0F30B00D3
:100A200040F4804040F400402168CA694CF6FF73EE
:100A30009A431043C861D4E9071001432068026853
:100A400022F0C00211430160D4E903010143206890
:100A5000826848F2FF339A4311438160D4E905016B
:100A600008432168CA6822F0FF021043C86001E011
:100A70000EE016E02068016841F001010160256484
:100A8000202084F83D00256384F83E50002070BD8E
:100A900001EB4106431EB3FBF6F35B1CB3E70120F9
:100AA000C2E701EB4101401EB0FBF1F0401CC0F376
:100AB0000B00B7E7A086010080841E0000093D00FE
:100AC00040420F0010B586B0044614216846FFF777
:100AD000AFFB13492068884220D11248016841F0D9
:100AE000020101600068694600F002000590C02024
:100AF0000090122001900120029003200390042016
:100B000004900948FFF738FE06481030016841F4A8
:100B100000110160006800F40010059006B010BDDF
:100B2000005400403038024000040240024881680E
:100B30000278114481607047000000200B4810B516
:100B4000016841F400710160016841F48061016055
:100B5000016841F480710160032000F061F8002019
:100B600000F006F800F024F8002010BD003C024020
:100B700070B50D4D04464FF47A712878B1FBF0F052
:100B80000A490968B1FBF0F000F0F4FA48B9102CFA
:100B900007D200222146501E00F022F800206C608F
:100BA00070BD012070BD0000000000200C0000207E
:100BB0000A4808B5016841F480410160006800F40A
:100BC000804000900548001F016841F0805101609D
:100BD000006800F08050009008BD000044380240DA
:100BE000F0B40E4B1B680C46C3F30223C3F1070598
:100BF000042D00D90425191D072901D2002300E086
:100C0000DB1E012606FA05F1491E214099409E404F
:100C1000761E16403143F0BC00F016BD0CED00E02E
:100C2000064900F0070208684FF6FF03184040EA43
:100C30000220034A10430860704700000CED00E0FA
:100C40000000FA052DE9F0470E46050065D0DFF8F3
:100C50001481D8F80000F7B200F00F00B04207D2BC
:100C600088F80070D8F8000000F00F00B04254D1AE
:100C700028683D4C810712D5400703D5206840F411
:100C8000E05020602878000703D5206840F46040D9
:100C900020602068A96820F0F000084320602878D0
:100CA000C0072DD0304968680839012812D00228C1
:100CB00013D0032811D00968890700292DDA21688B
:100CC00021F0030101432160FFF732FE814641F22A
:100CD000883A0EE009688903EFE709688901ECE7C3
:100CE000FFF726FEA0EB0901514502D90320BDE81C
:100CF000F0872068696800F00C00B0EB810FEFD13D
:100D0000D8F80010404601F00F01B14207D9077032
:100D1000006800F00F00B04201D00120E7E728781A
:100D2000400705D52068E96820F4E05008432060BA
:100D30002878000706D52068296920F4604040EA39
:100D4000C100206000F038F82168084AC1F303119F
:100D5000515CC8400649086006480068FFF708FF74
:100D60000020C4E7003C024008380240BC1F0008D5
:100D70000C000020040000200448054900680968B0
:100D8000044AC1F38221515CC84070470C00002026
:100D900008380240CC1F000804480549006809686B
:100DA000044AC1F34231515CC84070470C00002036
:100DB00008380240CC1F0008154810B5006810F034
:100DC0000C02144813D04110042A0FD0082A0ED167
:100DD0000F4C241F2268236802F03F025B0207D5F4
:100DE0002068C0F38810A0FB010106E0084610BD92
:100DF0002168C1F38811A1FB00010023FFF7E0F98E
:100E00002168C1F30141491C4900B0FBF1F010BD5C
:100E1000083802400024F4002DE9F84F04006ED099
:100E20002078DFF83C93C007A9F104054AD009F106
:100E300004000168C1F38101012908D00068C0F3F2
:100E4000810002280AD1D9F80000400206D528689E
:100E5000800337D560680028E1D033E06068B0F5E2
:100E6000803F10D0B0F5A02F286810D020F480303B
:100E70002860286820F4802028606068A8B1FFF707
:100E800057FD06460DE0286840F48030F4E740F452
:100E900080202860F7E700BFFFF74AFD801B642829
:100EA00073D828688003F7D50CE0FFF741FD0646AC
:100EB00005E000BFFFF73CFD801B6428F0D82868E0
:100EC0008003F7D42078DFF89C8280074FF0000A77
:100ED0003ED5A348001D016811F00C0F08D0006832
:100EE000C0F3810002280BD1D9F80000400207D4DA
:100EF0002868800716D5E068012800D112E02BE1B0
:100F0000E068B8B10120C8F80000FFF711FD0646FF
:100F100005E000BFFFF70CFD801B0228C0D8286841
:100F20008007F7D52868216920F0F80040EAC10061
:100F300028600DE0C8F800A0FFF7FAFC064604E0C0
:100F4000FFF7F6FC801B02281FD828688007F7D41B
:100F50002078000722D5824E83486169703671B1CE
:100F600001210160FFF7E4FC074604E0FFF7E0FC25
:100F7000C01B022809D830688007F7D50EE0C0F8FA
:100F800000A0FFF7D5FC074605E082E0FFF7D0FCA4
:100F9000C01B02287DD830688007F7D4207840072E
:100FA00068D5DFF8BCB100270BF13C0BDBF8000083
:100FB000C0000BD4DBF8001041F08051CBF80010DA
:100FC000DBF80000012700F080500090674E306889
:100FD000C00510D4306840F480703060FFF7A8FC82
:100FE000009005E0FFF7A4FC0099401A022850D8B1
:100FF0003068C005F6D55A4EA0686C3601280FD06F
:101000000528306810D020F001003060306820F0F2
:1010100004003060A068B8B1FFF78AFC00900FE0D0
:10102000306840F00100F4E740F004003060F7E77A
:10103000FFF77EFC0099411A41F28830814266D860
:1010400030688007F4D50EE0FFF772FC009007E0EF
:10105000FFF76EFC0099411A41F28830814256D860
:1010600030688007F4D42FB1DBF8001021F08051F4
:10107000CBF80010A069C8B33949091D0968C1F34C
:10108000810102294AD00228504607D0C8F86000E2
:1010900000E03CE0FFF74CFC04463BE04746C8F864
:1010A0006000FFF745FC064605E000BFFFF740FC87
:1010B000801B02282BD828688001F7D4D4E90701C7
:1010C0000843A16A2A4A490802EB0141626A41EADF
:1010D0008211084394F82C1040EA0161C9F800100D
:1010E00001203866FFF724FC044606E036E000BF26
:1010F000FFF71EFC001B022809D828688001F7D5DD
:101100002CE000BFFFF714FC001B022802D90320CB
:10111000BDE8F88F28688001F4D41FE00128F7D0DB
:10112000D9F80000E26900F48001914214D1226AEA
:1011300000F03F0191420FD147F6C071626A014051
:10114000914209D1A26A00F44031914204D1E16A8E
:1011500000F07060884201D00120D9E70020D7E775
:101160000438024000004742800E474200700040B1
:101170000000FFFF10B5401EB0F1807F01D30120B9
:1011800010BD4FF0E02460610F21601700F05CFAA1
:101190000020A06107202061002010BD70B5040070
:1011A00004D094F83900002510B106E0012070BD8C
:1011B00084F83850204600F023F8242084F83900C1
:1011C0002068C16821F40051C160204600F064F934
:1011D0002068016921F4904101612068416921F092
:1011E0002A0141612068C16841F40051C160E56392
:1011F000202084F8390084F83A00002070BD0000F7
:1012000010B586B0044614216846FFF711F814495A
:101210002068884221D113480021026842F0100260
:101220000260006800F0100005900E481438026853
:1012300042F001020260006800F0010005904FF4E6
:10124000C06000900220CDE9010103200390072037
:10125000049069460448FFF78FFA06B010BD0000FD
:101260000010014044380240000002402DE9F843DC
:10127000044690F839001F4616460D46202850D1E6
:10128000B5B1AEB194F8380001284AD0012084F8F5
:1012900038004FF00008C4F83C80212084F8390061
:1012A000FFF746FBA6848146E68484F8388026E072
:1012B0000120BDE8F883E08C401EE084A0684B4626
:1012C000B0F5805F4FF000024FF08001204600979C
:1012D00003D000F075F9E8B90DE000F071F9C8B974
:1012E00028882168C0F308004860206908B16D1C97
:1012F00005E0AD1C03E0216815F8010B4860E08CA7
:101300000028D8D14B46002240212046009700F00B
:1013100057F908B10320CCE7202084F839000020D9
:10132000C7E70220C5E7FEE70D4808B5016841F0B0
:1013300080010160016801F080010091016841F0C5
:1013400001010160016801F001010091016841F0B3
:1013500002010160006800F00200009008BD00007A
:10136000303802400D4810B50B4901600C4941600E
:1013700000214FF480428160C0E903124161816124
:10138000C1610162FFF7DAFA002803D0BDE810401E
:10139000FFF7DDB910BD0000005400402000002020
:1013A000A08601000C4810B50A4901604FF4E131F4
:1013B0004160002181600C22C160C0E9041281619A
:1013C000C161FFF7EBFE002803D0BDE81040FFF736
:1013D000BEB910BD0010014074000020FEE7FEE71A
:1013E00070477047FFF7A2BB30B593B03021684615
:1013F000FEF71EFF14210CA8FEF71AFF1D4800255A
:10140000016841F080510160006800F08050119047
:101410001948016841F4804101600068022400F429
:101420008040119001200090000401908001CDE9DE
:10143000064008AA0420A82182E813000B90684601
:10144000FFF7EAFC08B172B6FEE70CA90F2081E8AD
:1014500031004FF4A0500F904FF4805010900521B0
:101460000CA8FFF7EFFB002801D072B6FEE713B01F
:1014700030BD00004038024000700040054801685F
:1014800041F47001016003494FF000608039086049
:101490007047000088ED00E02DE9F0410446006847
:1014A0000169E26821F44051114301612169A0689A
:1014B000E26908436169114308432168CA6849F237
:1014C0000C639A430243CA6020684169A26921F40F
:1014D000407111434161E069192764253226B0F556
:1014E000004F354A354920684FF0000806D0884241
:1014F00001D0904236D1FFF74FFC35E0884201D051
:10150000904202D1FFF748FC01E0FFF735FC61682B
:101510004A18A0FB070148EB0803FEF751FE0146FD
:10152000B0FBF5F00201B1FBF5F06FF01803584382
:1015300001EB800006EBC000B0FBF5F000F0F80016
:1015400002EB4002B1FBF5F0584301EB800006EBE3
:10155000C000B0FBF5F000F007002168104488607F
:10156000BDE8F081FFF708FC61688B0F8A00A0FBE3
:101570000701FEF725FE0146B0FBF5F06FF01802FB
:10158000504301EB800006EB0010B0FBF5F000F0DB
:10159000F002B1FBF5F002EB0012B1FBF5F06FF0D9
:1015A0001803584301EB800006EB0010B0FBF5F088
:1015B00000F00F00D1E700000014014000100140CE
:1015C0002DE9F041984617460E460446069D1DE05B
:1015D000681C1BD02DB1FFF7ABF9A0EB0800A842A7
:1015E00014D92068C16821F4D071C16020684169B4
:1015F00021F001014161202084F8390084F83A008B
:10160000002084F838000320BDE8F08120680068DD
:1016100036EA000004D00020B842D9D00020F3E719
:101620000120F9E7FEE700000FB4054B10B503A950
:10163000044A029800F0DAF810BC5DF814FB0000D0
:101640001D1F0008100000200907090E002804DBF8
:1016500000F1E02080F80014704700F00F0000F166
:10166000E02080F8141D704702E008C8121F08C16E
:10167000002AFAD170477047002001E001C1121F13
:10168000002AFBD1704700002DE9FF5FDDE9022051
:10169000010DDDF838B0024318D044F61050A1F225
:1016A000FF3141430D140F98012820D0A5EB0B000A
:1016B000401C5FEA000A4FF00004474EDFF81C911F
:1016C000A046504616D5CAF1000728E00F9801241D
:1016D00043A2012808D0002100980F9BC0E90021F7
:1016E000C0E90243BDE8FF9F6FEA0B01F4E7CBF1CD
:1016F0000000DEE7074612E0F80707D0224633462F
:1017000040464946FEF78EFE8046894622463346CD
:1017100010461946FEF786FE04460E467F10002F3F
:10172000EAD1DDE90201BAF1000F42464B4602DA86
:10173000FEF778FE01E0FEF7E7FE04460E460022C3
:10174000284BFEF769FF03D84FF0FF30014607E052
:101750000022254B20463146FEF7BDFDFEF743FF34
:10176000102409E0002C0ADB0A220023FEF728FDE2
:10177000019B30321A55641E50EA0102F2D1641CFA
:10178000019AC4F1110314440F9A012A03D00122D3
:1017900008430DD10AE0084304D000204FF0110B9C
:1017A0000F9080E7A3EB0B056D1E0DE05B4504DD9C
:1017B0004FF0000205F1010504E003DA4FF00002EA
:1017C000A5F10105002AECD000980F99C0E902317B
:1017D000C0E9004586E70000000024400000F03F1B
:1017E000300000000000F0430000E03F2DE9FF4F13
:1017F00095B09B468946064600250FE2252877D1FD
:1018000000242746F84A0121059400E0044316F815
:10181000013F203B01FA03F01042F7D130782A282B
:1018200011D06FF02F033078A0F13002092A16D8BA
:10183000059A44F0020402EB820203EB42021044D8
:10184000761C0590EFE759F8042B0592002A03DA7D
:10185000504244F40054059044F00204761C307861
:101860002E2816D116F8010F44F004042A280DD0B2
:101870006FF02F023078A0F13003092B09D807EB65
:10188000870302EB4303C718761CF3E759F8047B80
:10189000761C30786C280FD006DC4C2817D06828CE
:1018A0000DD06A2814D104E0742810D07A280FD102
:1018B0000DE044F400140AE044F4801401E044F420
:1018C00040147278824202D104F58014761C761C92
:1018D000307866280BD013DC582877D009DC002834
:1018E00075D04528F6D04628F4D047281AD19DE176
:1018F00018E0632835D0642879D0652812D195E1A5
:10190000702873D008DC6728F1D069286FD06E2862
:101910000DD06F2806D1B5E073282CD0752875D06E
:10192000782874D05A46179990476D1C75E1C4F316
:101930000250022809D003280DD0D9F8001004283D
:101940000DD00D6009F1040967E1D9F80010EA171C
:10195000C1E90052F6E7D9F800100D80F2E70D70EA
:10196000F0E719F8041B8DF8001000208DF8010035
:10197000EA46012003E059F804AB4FF0FF3061075D
:101980004FF0000102D40DE008F101018846B94290
:101990000FDA8045F8DB1AF808100029F4D108E0C6
:1019A00008F1010188468142FADB1AF80810002983
:1019B000F6D105985B46A0EB080721463846179AF2
:1019C00000F094FA284400EB080507E04DE029E117
:1019D0000DE01AF8010B5A4617999047B8F1010823
:1019E000F7D25B4621463846179A13E142E00A22B5
:1019F0000092C4F302524FF0000A022A08D059F8AC
:101A000004CB032A4FEAEC710AD00DE029E02AE06A
:101A100009F1070121F00702F2E802C1914609E04D
:101A20000FFA8CFC4FEAEC71042A03D14FFA8CFCBC
:101A30004FEAEC71002907DA0A460021DCF1000CBC
:101A400061EB02012D2202E0220504D52B228DF844
:101A50000420012203E0E20701D02022F7E79046AC
:101A600059E00A2102E010220DE010214FF0000A97
:101A700000910BE010224FF0000A44F00404082704
:101A8000009203E008224FF0000A0092C4F30252D1
:101A9000022A05D059F804CB0021032A08D009E016
:101AA00009F1070121F00702F2E802C1914605E0C1
:101AB0001FFA8CFC042A01D10CF0FF0C4FF0000837
:101AC000220728D5702806D0009B83F0100353EA24
:101AD0000A0305D00EE040228DF80420012208E020
:101AE0005CEA010206D030228DF804208DF8050052
:101AF00002229046009B83F0080353EA0A030AD1AE
:101B00005CEA010201D1620705D530228DF804207C
:101B10004FF001087F1E582804D034A003900EA86F
:101B200002900DE036A0F9E753466046009AFEF7B2
:101B300047FB84460398825C0298401E0290027024
:101B40005CEA0100F0D1029806A9081A00F1200A07
:101B5000600702D524F4803400E00127574502DDF8
:101B6000A7EB0A0000E0002000EB0A0100900598B6
:101B70004144401A0590E00306D45B462146179A7B
:101B8000059800F0B3F90544002706E001A85A467D
:101B9000C05D179990476D1C7F1C4745F6DBE0033D
:101BA0000CD55B462146179A059800F09FF905442D
:101BB00004E030205A46179990476D1C0099481E42
:101BC00000900029F5DC08E0029802995A46007856
:101BD000491C0291179990476D1CBAF10001AAF1B6
:101BE000010AF1DC65E100000928010030313233DF
:101BF0003435363738396162636465660000000049
:101C00003031323334353637383941424344454632
:101C10000000000000F058F90544761C30780028D8
:101C20007FF4ECAD19B02846BDE8F08F620700D410
:101C3000062709F1070222F0070CFCE80223E1461F
:101C400003F000485FEA080C02D00FF2702C0DE0A0
:101C50005FEA045C02D50FF2682C07E05FEAC47CFF
:101C600002D00FF2602C01E0AFF2700C4FF0FF38A1
:101C700023F00043CDF850C065280CD006DC452881
:101C800009D046281DD047283DD13DE0662818D010
:101C900067287ED138E00021112F01DB112000E000
:101CA000781CCDE9000106A90EA8FFF7EDFCDDE9DF
:101CB0000F010E9A03910021009207F1010A04918D
:101CC0004DE04FF000400097CDE9011006A90EA8A5
:101CD000FFF7DAFCDDE90F0203920E9B1199002257
:101CE000DDF80CA00093049211B9791C00EB010AF5
:101CF000B7EB0A0004D4C0F1FF3007F1010A0490E9
:101D0000AAEB0700019044E0012F00DA012700212F
:101D1000112F01DD112000E03846CDE9000106A9B0
:101D20000EA8FFF7B1FCDDE90F010E9A0391002127
:101D300004910092BA4621070CD40399514500DA68
:101D40008A46BAF1010F05DD009AAAF10101515C42
:101D5000302908D0B84202DA10F1040F06DA012166
:101D6000CDE9011015E0AAF10101E9E7002805DC41
:101D7000049901440491AAEB000102E0411C514581
:101D800000DD8A460499401A401C01904FF0004043
:101D90000290200704D40198504501DBCDF804805F
:101DA00000208DF84F0002980DF14F07B0F1004F61
:101DB00025D02B200E9002984FF0020800280CDA54
:101DC000404202902D200E9007E00A210298FEF773
:101DD0004DFA3031029007F8011DB8F10001A8F169
:101DE0000108F2DC02980028EFD1791E0E980870E5
:101DF000307800F0200040F0450007F8020D12A8EE
:101E0000C01B00F107081498007800B1012000EB16
:101E10000A01019801EBE07105984144401A401E07
:101E20000590E00306D45B462146179A059800F01A
:101E30005DF805441498007818B15A4617999047F0
:101E40006D1CE00324D55B462146179A059800F0E7
:101E50004DF805441CE00498002807DBDDE9030188
:101E6000884203DD0098405C179901E01799302003
:101E70005A469047049805F10105401C04900198CA
:101E8000401E019004D12E205A46179990476D1C90
:101E9000BAF10001AAF1010ADDDC05E017F8010B37
:101EA0005A46179990476D1CB8F10001A8F1010836
:101EB000F4DC5B462146179A0598ABE62D0000003E
:101EC0002B000000200000002DE9F0410446002511
:101ED0001E461746880404D405E039462020B04742
:101EE0006D1C641EF9D52846BDE8F0812DE9F0414E
:101EF000044600251E469046C80301D5302700E061
:101F00002027880404D505E041463846B0476D1CBB
:101F1000641EF9D52846BDE8F081000013B54FF0E6
:101F2000FF33012269460248FFF7A0F900981CBD63
:101F300074000020FEF702FEFFF756FAFFF7F4F9EF
:101F4000FFF710FAFFF72EFA124C4FF4FA752068DB
:101F5000FEF779F941EC100B0FA053EC102BFFF7B3
:101F600063FB6068FEF76FF941EC100B0DA053ECBA
:101F7000102BFFF759FBA068FEF765F941EC100B39
:101F80000BA053EC102BFFF74FFB2846FEF7E2FBAC
:101F9000DDE700001400002078203D20252E30666B
:101FA0000A00000079203D20252E30660A0000003E
:101FB0007A203D20252E30660A0000000000000037
:101FC00000000000010203040607080900000000E9
:101FD00001020304F41F00080000002014000000A8
:101FE000681600080820000814000020A40400005F
:101FF000781600080100000010000000000000003A
:082000000024F40000000000C0
:040000050800018965
:00000001FF
