:020000040800F2
:10000000C80400209D01000867160008FB110008C5
:1000100065160008D5020008A118000800000000BD
:100020000000000000000000000000006B16000847
:10003000D702000800000000691600086D160008CD
:10004000B7010008B7010008B7010008B7010008B0
:10005000B7010008B7010008B7010008B7010008A0
:10006000B7010008B7010008B7010008B701000890
:10007000B7010008B7010008B7010008B701000880
:10008000B7010008B7010008B7010008B701000870
:10009000B7010008B7010008B7010008B701000860
:1000A000B7010008B7010008B7010008B701000850
:1000B000B7010008B7010008B7010008B701000840
:1000C000B7010008B7010008B7010008B701000830
:1000D000B7010008B7010008B7010008B701000820
:1000E000B7010008B7010008B7010008B701000810
:1000F000B7010008B7010008B7010008B701000800
:10010000B7010008B7010008B7010008B7010008EF
:10011000B7010008B7010008B7010008B7010008DF
:10012000B7010008B7010008B7010008B7010008CF
:10013000B7010008B7010008B7010008B7010008BF
:10014000B7010008B7010008B7010008B7010008AF
:10015000B7010008B7010008B7010008B70100089F
:10016000B7010008B7010008B7010008B70100088F
:10017000B7010008B7010008B7010008000000003F
:10018000B7010008B7010008DFF80CD000F090F8C4
:1001900000480047F51A0008C804002006488047B8
:1001A00006480047FEE7FEE7FEE7FEE7FEE7FEE75C
:1001B000FEE7FEE7FEE7FEE70517000889010008F5
:1001C0002DE9F05F0546002092469B46884606468C
:1001D000814640241BE0284641464746224600F01F
:1001E00057F853465A46C01A914110D31146184643
:1001F000224600F03EF82D1A67EB01084F462246D2
:100200000120002100F035F817EB00094E41201EB7
:10021000A4F10104DFDC484631462A464346BDE8E6
:10022000F09FD2B201E000F8012B491EFBD27047CB
:100230000022F6E710B513460A4604461946FFF7B2
:10024000F0FF204610BD30B50B46014600202022AD
:10025000012409E021FA02F59D4205D303FA02F5D3
:10026000491B04FA02F52844151EA2F10102F1DC33
:1002700030BD202A04DB203A00FA02F1002070474A
:100280009140C2F1200320FA03F3194390407047D4
:10029000202A04DB203A21FA02F00021704721FADB
:1002A00002F3D040C2F12002914008431946704742
:1002B000064C074D06E0E06840F0010394E80700B3
:1002C00098471034AC42F6D3FFF762FFA41B000836
:1002D000C41B0008FEE7704772B6FEE770B504461F
:1002E00000F006F90546601C02D00448007804447A
:1002F00000F0FEF8401BA042FAD370BD18000020A9
:100300002DE9F84FDFF8BCA1002201250AF1040B0A
:1003100003264FF00F090BF1040E00BF0B6805FA1E
:1003200002F42340A34270D10F7907F00307012F95
:1003300001D0022F16D187684FEA420806FA08FC5E
:1003400027EA0C07D1F80CC00CFA08FC4CEA070CA1
:10035000C0F808C04768A7430C79C4F30014944060
:100360003C4344600C79E443A4070AD0C4684FEAD4
:10037000420C06FA0CF7BC438F6807FA0CF72743C8
:10038000C7600C7904F00304022C12D1D40800EBEE
:10039000840CDCF820405707FF0E09FA07F824EA1E
:1003A0000804D1F8108008FA07F848EA0408CCF8E5
:1003B000208004684FEA420C06FA0CF7BC430F7920
:1003C00007F0030707FA0CF7274307604C6814F49B
:1003D000403F70D03C4C276847F480472760246832
:1003E00022F0030704F480440094384C07EB040C1B
:1003F000DCF8084897074FEA177809FA08F7BC4372
:10040000334FB84202D1002724E054E0314FB842C4
:1004100001D101271EE0304FB84201D1022719E077
:100420002E4FB84201D1032714E02D4FB84201D11D
:1004300004270FE02B4FB84201D105270AE02A4FCD
:10044000B84201D1062705E0284FB84201D107275D
:1004500000E0082707FA08F72743CCF80878DAF80D
:1004600000405746D1F804C09C435FEACC3C00D51D
:100470001C433C60DBF800405F46D1F804C09C435D
:100480005FEA8C3C00D51C433C60DEF800407746B8
:10049000D1F804C09C435FEACC2C00D51C433C60DF
:1004A000084F0C373C68D1F804C09C435FEA8C2CA1
:1004B00000D51C433C60521C102AFFF42FAFBDE84E
:1004C000F88F0000003C01404438024000300140F9
:1004D000000002400004024000080240000C0240FC
:1004E000001002400014024000180240001C0240AC
:1004F00001488068704700001800002070B50400B3
:1005000025D094F83D00002520B984F83C502046C1
:1005100000F03EFA242084F83D002068016821F0B4
:10052000010101602068016841F400410160206818
:10053000016821F40041016000F084FB4D4A6168CC
:10054000914201D84C4900E04C49884201D2012037
:1005500070BD4B492368B0FBF1F15E6826F03F06A1
:100560000E435E606368934206D94FF49673594315
:100570004FF47A73B1FBF3F12368491C1E6A26F02D
:100580003F06314319626168914210D84900401E0C
:10059000B0FBF1F2521CC2F30B02042A01D2042078
:1005A00022E0B0FBF1F0401CC0F30B001CE0A2689D
:1005B000F2B301EBC10303EB0116431EB3FBF6F3E9
:1005C0005B1C43F480431B0549D092B301EBC1028D
:1005D00002EB0111401EB0FBF1F0401CC0F30B0018
:1005E00040F4804040F400402168CA694CF6FF7333
:1005F0009A431043C861D4E9071001432068026898
:1006000022F0C00211430160D4E9030101432068D4
:10061000826848F2FF339A4311438160D4E90501AF
:1006200008432168CA6822F0FF021043C86001E055
:100630000EE016E02068016841F0010101602564C8
:10064000202084F83D00256384F83E50002070BDD2
:1006500001EB4106431EB3FBF6F35B1CB3E701203D
:10066000C2E701EB4101401EB0FBF1F0401CC0F3BA
:100670000B00B7E7A086010080841E0000093D0042
:1006800040420F002DE9F84F1F4690468A46044627
:10069000DDF82890FFF72CFF054694F83D00202850
:1006A00075D1192301226C492046009500F0A8FE5F
:1006B0000028F5D194F83C00012868D0012084F886
:1006C0003C0020680168C90703D1016841F00101BD
:1006D00001602068016821F400610160222084F833
:1006E0003D00102084F83E0000262664C4F82480D3
:1006F0006785608D20855948E0622B464A46514601
:10070000204600F093FD002878D1208D544F68B129
:10071000012814D002282068016816D041F48061B5
:100720000160206841698069009087E02068416924
:1007300081690091016841F4007101607EE02068E8
:10074000016821F480610160F0E721F480610160BB
:100750002068016841F40061E2E7032848D80128D5
:100760000AD0022814D04B46002239462046009574
:1007700000F046FED8BB27E02A464946204600F056
:10078000BEFEA0BB20680069616A08704DE061E0B0
:100790004B46002239462046009500F031FE30BB22
:1007A0002068016841F40071016020680069616A95
:1007B0000870606A401C6062218D491E2185618D30
:1007C000491E618521682EE02068016821F480615E
:1007D000016020680069616A0870606A401C60629C
:1007E000208D401E2085608D401E6085D0E705E08D
:1007F0002A464946204600F082FE10B10120BDE89D
:10080000F88F20680069616A0870606A401C606245
:10081000218D491E2185618D491E618521684A69A6
:10082000D24352070AD409690170606A401C6062B1
:10083000208D401E2085608D401E6085208D002803
:100840008BD1202084F83D0084F83E6084F83C6021
:100850000020D4E70220D2E7020010000000FFFFD2
:10086000040001002DE9F84F1F4690468A460446D1
:10087000DDF82890FFF73CFE054694F83D0020285F
:100880007FD11923012240492046009500F0B8FD90
:10089000002876D194F83C00012872D0012084F819
:1008A0003C0020680168C90703D1016841F00101DB
:1008B00001602068016821F400610160212084F852
:1008C0003D00102084F83E0000262664C4F82480F1
:1008D0006785608D20852D48E0622B464A4651464B
:1008E000204600F019FD90B92068416980690090A8
:1008F00036E02A464946204600F034FE50B1206CCE
:10090000042804D12068016841F4007101600120CD
:10091000BDE8F88F606A216800780861606A401C51
:100920006062618D491E6185218D491E89B22185D4
:1009300022685369DB435B070BD451B10078106127
:10094000606A401C6062608D401E6085208D401E84
:1009500020852A464946204600F02CFD0028CED1AD
:10096000208D0028C5D154F83D0B016841F4007179
:100970000160202004F81E09E67766770020C7E7AB
:10098000FFE70220C4E70000020010000000FFFFA4
:1009900010B586B0044614216846FFF749FC134998
:1009A0002068884220D112480021026842F00202E9
:1009B0000260006800F002000590C0200090122044
:1009C000CDE9010103200390042004906946094801
:1009D000FFF796FC06481030016841F400110160F1
:1009E000006800F40010059006B010BD00540040EF
:1009F0003038024000040240024881680278114405
:100A000081607047180000200B4810B5016841F460
:100A100000710160016841F480610160016841F486
:100A200080710160032000F061F80F2000F006F8EB
:100A300000F024F8002010BD003C024070B50D4DC0
:100A400004464FF47A712878B1FBF0F00A4909683E
:100A5000B1FBF0F000F0FCFA48B9102C07D20022EC
:100A60002146501E00F022F800206C6070BD01206D
:100A700070BD000018000020240000200A4808B5BE
:100A8000016841F480410160006800F480400090FA
:100A90000548001F016841F080510160006800F0C6
:100AA0008050009008BD000044380240F0B40E4B66
:100AB0001B680C46C3F30223C3F10705042D00D9BC
:100AC0000425191D072901D2002300E0DB1E0126A1
:100AD00006FA05F1491E214099409E40761E1640B7
:100AE0003143F0BC00F0EEBE0CED00E0064900F032
:100AF000070208684FF6FF03184040EA0220034A45
:100B000010430860704700000CED00E00000FA059B
:100B10002DE9F0470E46050065D0DFF81481D8F8BE
:100B20000000F7B200F00700B04207D288F800706A
:100B3000D8F8000000F00700B04254D128683D4CBE
:100B4000810712D5400703D5206840F4E0502060AB
:100B50002878000703D5206840F4604020602068B2
:100B6000A96820F0F000084320602878C0072DD045
:100B7000304968680839012812D0022813D00328A8
:100B800011D00968890700292DDA216821F00301B5
:100B900001432160FFF7ACFC814641F2883A0EE048
:100BA00009688903EFE709688901ECE7FFF7A0FC12
:100BB000A0EB0901514502D90320BDE8F087206868
:100BC000696800F00C00B0EB810FEFD1D8F800108D
:100BD000404601F00701B14207D90770006800F0F4
:100BE0000700B04201D00120E7E72878400705D58B
:100BF0002068E96820F4E050084320602878000766
:100C000006D52068296920F4604040EAC1002060D0
:100C100000F038F82168084AC1F30311515CC8405C
:100C20000649086006480068FFF708FF0020C4E78F
:100C3000003C0240083802408C1B000824000020C1
:100C40001C0000200448054900680968044AC1F3F3
:100C50008221515CC84070472400002008380240BF
:100C60009C1B00080448054900680968044AC1F350
:100C70004231515CC84070472400002008380240CF
:100C80009C1B0008154810B5006810F00C021448B1
:100C900013D04110042A0FD0082A0ED10F4C241F64
:100CA0002268236802F03F025B0207D52068C0F388
:100CB0008810A0FB010106E0084610BD2168C1F3C1
:100CC0008811A1FB00010023FFF77AFA2168C1F324
:100CD0000141491C4900B0FBF1F010BD0838024049
:100CE0000024F4002DE9F84F04006ED02078DFF8DE
:100CF0004C93C007A9F104054AD009F1040001682A
:100D0000C1F38101012908D00068C0F381000228E5
:100D10000AD1D9F80000400206D52868800337D5EB
:100D200060680028E1D033E06068B0F5803F10D003
:100D3000B0F5A02F286810D020F4803028602868F3
:100D400020F4802028606068A8B1FFF7D1FB064638
:100D50000DE0286840F48030F4E740F480202860FB
:100D6000F7E700BFFFF7C4FB801B642873D828682F
:100D70008003F7D50CE0FFF7BBFB064605E000BF9C
:100D8000FFF7B6FB801B6428F0D828688003F7D4EF
:100D90002078DFF8AC8280074FF0000A3ED5A748E4
:100DA000001D016811F00C0F08D00068C0F381002D
:100DB00002280BD1D9F80000400207D42868800728
:100DC00016D5E068012800D112E033E1E068B8B13F
:100DD0000120C8F80000FFF78BFB064605E000BFC6
:100DE000FFF786FB801B0228C0D828688007F7D54C
:100DF0002868216920F0F80040EAC10028600DE071
:100E0000C8F800A0FFF774FB064604E0FFF770FB8C
:100E1000801B02281FD828688007F7D42078000795
:100E200022D5864F87486169703771B10121016011
:100E3000FFF75EFB064604E0FFF75AFB801B022823
:100E400009D838688007F7D50EE0C0F800A0FFF792
:100E50004FFB064605E082E0FFF74AFB801B0228B5
:100E60007DD838688007F7D42078400768D5DFF848
:100E7000CCB100270BF13C0BDBF80000C0000BD419
:100E8000DBF8001041F08051CBF80010DBF80000D7
:100E9000012700F0805000906B4E3068C00510D4E0
:100EA000306840F480703060FFF722FB009005E06E
:100EB000FFF71EFB0099401A022850D83068C00581
:100EC000F6D55E4EA0686C3601280FD00528306834
:100ED00010D020F001003060306820F00400306055
:100EE000A068B8B1FFF704FB00900FE0306840F055
:100EF0000100F4E740F004003060F7E7FFF7F8FA8C
:100F00000099411A41F28830814266D830688007E2
:100F1000F4D50EE0FFF7ECFA009007E0FFF7E8FAEF
:100F20000099411A41F28830814256D830688007D2
:100F3000F4D42FB1DBF8001021F08051CBF8001071
:100F4000A069C8B33D49091D0968C1F3810102299F
:100F50004AD00228504607D0C8F8600000E03CE0C4
:100F6000FFF7C6FA04463BE04746C8F86000FFF7C3
:100F7000BFFA064605E000BFFFF7BAFA801B022859
:100F80002BD828688001F7D4D4E907010843A16A67
:100F90002E4A490802EB0141626A41EA8211084384
:100FA00094F82C1040EA0161C9F80010012038665D
:100FB000FFF79EFA044606E03EE000BFFFF798FA0E
:100FC000001B022809D828688001F7D534E000BF4B
:100FD000FFF78EFA001B022802D90320BDE8F88F24
:100FE00028688001F4D427E00128F7D0D9F8000060
:100FF000E26900F4800191421CD1226A00F03F01B5
:10100000914217D147F6C071626A0140B1EB821F6D
:1010100010D1A26A4FF0FF3300F4403103EB5202CB
:10102000B1EB024F06D194F82C1000F07060B0EBD9
:10103000016F01D00120D1E70020CFE70438024042
:1010400000004742800E4742007000400000FFFF52
:1010500010B5401EB0F1807F01D3012010BD4FF0CC
:10106000E02460610F21601700F02CFC0020A061DB
:1010700007202061002010BD70B5040004D094F852
:101080003D00002510B106E0012070BD84F83C5001
:10109000204600F023F8242084F83D002068C16831
:1010A00021F40051C160204600F038FB206801693E
:1010B00021F4904101612068416921F02A014161D8
:1010C0002068C16841F40051C1602564202084F883
:1010D0003D0084F83E00002070BD000010B586B0D1
:1010E000044614216846FFF7A3F814492068884293
:1010F00021D113480021026842F01002026000680A
:1011000000F0100005900E481438026842F0010209
:101110000260006800F0010005904FF4C06000908C
:101120000220CDE9010103200390072004906946C5
:101130000448FFF7E5F806B010BD000000100140BC
:1011400044380240000002402DE9F843044690F87C
:101150003D001F4616460D4620284CD1C5B1BEB1F4
:1011600094F83C00012846D0012084F83C004FF060
:101170000008C4F84080212084F83D00FFF7B8F94A
:10118000A6848146E684A068B0F5805F03D004E0C1
:101190000120BDE8F883206928B12E465FF00005E4
:1011A00084F83C800EE00026FAE78021204600F01B
:1011B0003BFBA0B9AEB116F8010B21684860E08C8A
:1011C000401EE084E08C4B464FF000020097002860
:1011D000EBD14FF04001204600F026FB30B1032058
:1011E000D7E735F8020BC0F30800E6E7202084F8C3
:1011F0003D000020CDE70220CBE7FEE701684A6909
:10120000D24352050FD46FF480624A61002140F846
:10121000301F202242738173026942F0040202618E
:101220000173012070470020704700002DE9F84F3E
:101230000446C06A1E4693460D4621680A6842F479
:1012400080620A60082807D0012805D010F5803F89
:1012500002D0206B112804D12068016841F480710C
:1012600001604FF001195B46002249462046009676
:1012700000F0C6F84FF4007840B120680068C0055F
:1012800001D5C4F840800320BDE8F88F2069DFF85D
:1012900084A0B0F5804F0FD00620216800EAD51752
:1012A00047F0F000086133465A460AF1060120462D
:1012B00000F0DAF858BB03E0E8B240F001001CE0AF
:1012C0002168E8B2086133465A465146204600F08C
:1012D000CBF8E0B92068416981690091016841F467
:1012E000807101605B46002249462046009600F06E
:1012F00087F80028C1D147F0F10021680861334622
:101300005A465146204600F0AFF80028BCD00120D4
:10131000BAE7000002000100F8B50446C06A1E46A4
:101320000D461746082807D0012805D010F5803F44
:1013300002D0206B122804D12068016841F480712A
:101340000160134600224FF001112046009600F084
:1013500057F840B120680068C00502D54FF400700E
:1013600020640320F8BD2069B0F5804F0ED0062020
:10137000216800EAD51040F0F000086133463A4693
:101380000B49204600F070F878B902E005F0FE0045
:1013900000E0E8B221680861054933463A46891FF2
:1013A000204600F061F80028DCD00120F8BD0000E4
:1013B0000800010070B516460D4604460DE02046B3
:1013C000FFF71CFF08B1012070BD681C05D0FFF7B6
:1013D0008FF8801BA84207D835B120684069C04308
:1013E0004007ECD4002070BD002044F8300F2021CD
:1013F0006173A073216941F0200121612073E2E74C
:101400002DE9F0471E4690460D460446C1F30747B6
:10141000DDF8209008E0701C06D0FFF769F8A0EB1B
:101420000900B0420FD876B12068012F18D080692A
:1014300025EA00000004000C14D000214145EAD048
:101440000020BDE8F087002044F8300F20216173B0
:10145000A073216941F02001216120730120F0E790
:101460004069E5E70121E9E72DE9F0479A46914611
:101470000E46044600254FF02008C1F3074725E03B
:1014800020684069C043400514D42068016841F4D5
:101490000071016021686FF480604861256384F801
:1014A0003D8084F83E50206C40F00400206484F8B5
:1014B0003C501FE0B9F1FF3F08D0FFF719F8A0EB4F
:1014C0000A0149450CD8B9F1000F09D02068012F55
:1014D00013D0806926EA00000004000C0BD0CFE78F
:1014E00044F8305F84F80D80A573206940F0200037
:1014F000206125730120BDE8F0874069EAE72DE906
:10150000F041002590460E460446202717E040692A
:10151000C043C0060CD454F8301B6FF01000486173
:1015200044F810596777A577206A2062257717E07D
:10153000FEF7DEFFA0EB0800B04208D83EB12068FD
:101540004169C9434906E2D40020BDE8F08144F86E
:10155000305F6773A573206940F020002061257318
:101560000120F2E770B516460D4604460DE0204610
:10157000FFF744FE08B1012070BD681C05D0FEF7DE
:10158000B7FF801BA84207D835B120684069C04327
:101590000006ECD4002070BD002044F8300F20215C
:1015A0006173A073216941F0200121612073E2E79A
:1015B0000D4808B5016841F080010160016801F043
:1015C00080010091016841F001010160016801F0B2
:1015D00001010091016841F002010160006800F022
:1015E0000200009008BD0000303802400D4810B5E0
:1015F0000B4901600C49416000214FF48042816039
:10160000C0E9031241618161C1610162FEF776FFA9
:10161000002803D0BDE81040FEF75EBE10BD0000FC
:10162000005400402C000020801A06000C4810B521
:101630000A4901604FF4E1314160002181600C22D0
:10164000C160C0E904128161C161FFF715FD002886
:1016500003D0BDE81040FEF73FBE10BD00100140B2
:1016600080000020FEE7FEE770477047FFF7C4B92F
:1016700030B593B030216846FEF7DAFD14210CA88E
:10168000FEF7D6FD1D480025016841F0805101603C
:10169000006800F0805011901948016841F48041C1
:1016A00001600068022400F4804011900120009045
:1016B000000401908001CDE9064008AA0420A82179
:1016C00082E813000B906846FFF70CFB08B172B676
:1016D000FEE70CA90F2081E831004FF4A0500F90D5
:1016E0004FF48050109005210CA8FFF711FA002844
:1016F00001D072B6FEE713B030BD000040380240A2
:10170000007000400248016841F4700101607047B8
:1017100088ED00E0016002710120704770B5044659
:1017200000680169E26821F44051114301612169B7
:10173000A068E26908436169114308432168CA68E7
:1017400049F20C639A430243CA6020684169A26966
:1017500021F440711143416131492068884202D02F
:101760003049884202D1FFF77DFA01E0FFF76AFABB
:10177000E2690023192164253226B2F5004F626820
:1017800028D0A0FB0101930F9200FEF719FD01463E
:10179000B0FBF5F06FF01802504301EB800006EB50
:1017A0000010B0FBF5F000F0F002B1FBF5F002EB39
:1017B0000012B1FBF5F06FF01803584301EB800005
:1017C00006EB0010B0FBF5F000F00F0021681044AC
:1017D000886070BDA0FB010192185B41FEF7F0FC30
:1017E0000146B0FBF5F00201B1FBF5F06FF0180314
:1017F000584301EB800006EBC000B0FBF5F000F0B1
:10180000F80002EB4002B1FBF5F0584301EB800019
:1018100006EBC000B0FBF5F000F00700D6E70000D3
:1018200000100140001401402DE9F0419846174690
:101830000E460446069D27E0681C25D02DB1FEF714
:1018400057FEA0EB0800A8421ED920680C3050E8D3
:10185000001F21F4D07140E80012002AF5D1206861
:10186000143050E8001F21F0010140E80012002A66
:10187000F5D1202084F83D0084F83E00002084F853
:101880003C000320BDE8F0812068006836EA0000D3
:1018900004D00020B842CFD00020F3E70120F9E7C0
:1018A000FEE700000FB4054B10B503A9044A0298E7
:1018B00000F028F810BC5DF814FB0000591A00086D
:1018C000280000200907090E002804DB00F1E020B1
:1018D00080F80014704700F00F0000F1E02080F85D
:1018E000141D704702E008C8121F08C1002AFAD16F
:1018F00070477047002001E001C1121F002AFBD190
:10190000704700002DE9FF4F89B09B460446002533
:1019100006E025280BD05A460B999047641C6D1C95
:1019200020780028F5D10DB02846BDE8F08F0027BB
:10193000B8460122474900E0074314F8013F203B25
:1019400002FA03F00842F7D120782E2819D114F8B2
:10195000010F47F004072A280ED06FF02F022078DD
:10196000A0F1300109290CD808EB880102EB4101F4
:1019700000EB0108641CF2E70A98641C50F8048B21
:101980000A9020780028CED0642808D0692806D094
:1019900075281ED05A460B9990476D1C58E00A993D
:1019A0004FF00A0901C90A91002802DA40422D21AC
:1019B00002E0390504D52B218DF82010012103E028
:1019C000F90704D02021F7E78A4608AE0DE0002190
:1019D000FAE70A994FF00A0901C90A91F7E749465F
:1019E000FEF731FC303106F8011D0028F7D1ADEBD0
:1019F000060000F12009780701D44FF00108C8451E
:101A000002DDA8EB090000E000208046002706E088
:101A100008A85A46C05D0B9990476D1C7F1C57451E
:101A2000F6DB04E030205A460B9990476D1CB8F164
:101A30000001A8F10108F5DC05E016F8010B5A4693
:101A40000B9990476D1CB9F10001A9F10109F4DC73
:101A5000641C65E70928010013B54FF6FF730122E6
:101A600069460248FFF770FB00981CBD800000200B
:101A70002DE9F05F1E4E4FF000089A461746894642
:101A8000834686F800804546B41C2946584600F037
:101A900059F8002825D0707860556D1CEDB2052DE1
:101AA000F3D92078617800EB0120A9F80000A07834
:101AB000E17800EB012038802079617900EB01208A
:101AC00000B2642190FBF1F0AAF80000B7F9000021
:101AD000642801DA0A2007E0401C04D086F8008060
:101AE0000120BDE8F09F0B2030700020F9E70000D6
:101AF00010000020FEF788FFFFF7BAFDFFF758FD42
:101B0000FFF774FDFFF792FD20220B490B48FFF70A
:101B100001FE0A4C083C094B1B1F9A1E911E901D8A
:101B2000FFF7A6FFB4F9001005A0FFF7BBFE0420E5
:101B3000FEF7D4FBEFE700002C0000200800002097
:101B400025640A0073B582B04FF47A750446009597
:101B500000790123410003AA2068FEF783FE0A4EA4
:101B600008B108200AE000952079074A41000123C6
:101B7000521C2068FEF786FD20B10720307000203F
:101B800004B070BD0120FBE7100000200000000041
:101B9000000000000102030406070809000000001D
:101BA00001020304C41B0008000000202C000000F8
:101BB000E4180008F01B00082C0000209C04000022
:101BC000F418000800000000000000000000000001
:101BD0000000000000000000000000000100000004
:101BE00010000000000000000024F40000000000CD
:040000050800018965
:00000001FF
