:020000040800F2
:10000000D80400209D010008FB19000873150008A2
:10001000F919000871060008111D00080000000011
:10002000000000000000000000000000CD1A0008E1
:100030007306000800000000FD190008CF1A000830
:10004000B7010008B7010008B7010008B7010008B0
:10005000B7010008B7010008B7010008B7010008A0
:10006000B7010008B7010008B7010008B701000890
:10007000B7010008B7010008B7010008B701000880
:10008000B7010008B7010008B7010008B701000870
:10009000B7010008B7010008B7010008B701000860
:1000A000B7010008B7010008B7010008B701000850
:1000B000B7010008B7010008B7010008B701000840
:1000C000B7010008B7010008B7010008B701000830
:1000D000B7010008B7010008B7010008B701000820
:1000E000B7010008B7010008B7010008B701000810
:1000F000B7010008B7010008B7010008B701000800
:10010000B7010008B7010008B7010008B7010008EF
:10011000B7010008B7010008B7010008B7010008DF
:10012000B7010008B7010008B7010008B7010008CF
:10013000B7010008B7010008B7010008B7010008BF
:10014000B7010008B7010008B7010008B7010008AF
:10015000B7010008B7010008B7010008B70100089F
:10016000B7010008B7010008B7010008B70100088F
:10017000B7010008B7010008B7010008000000003F
:10018000B7010008B7010008DFF80CD000F0C4F98F
:1001900000480047A9250008D804002006488047E9
:1001A00006480047FEE7FEE7FEE7FEE7FEE7FEE75C
:1001B000FEE7FEE7FEE7FEE7691B0008890100088D
:1001C0002DE9F05F0546002092469B46884606468C
:1001D000814640241BE0284641464746224600F01F
:1001E000F6F853465A46C01A914110D311461846A4
:1001F000224600F0DDF82D1A67EB01084F46224633
:100200000120002100F0D4F817EB00094E41201E18
:10021000A4F10104DFDC484631462A464346BDE8E6
:10022000F09FD2B201E000F8012B491EFBD27047CB
:100230000022F6E710B513460A4604461946FFF7B2
:10024000F0FF204610BD2DE9FE4F81EA030404F0C3
:10025000004421F0004100944FF0000B23F00043D4
:1002600050EA01045ED052EA03045BD0C3F30A549F
:10027000C1F30A552C44A4F2F3340194A0FB0254B8
:10028000C1F3130141F48011C3F3130343F480134A
:1002900001FB024400FB034E840A970A44EA81549E
:1002A00047EA8357A4FB076802958D0A05FB07857B
:1002B0004FEA932C04FB0C542705029D4FEA065885
:1002C00047EA1637B5EB08056EEB070C870E920E62
:1002D00047EA811742EA8312A7FB0201B6EB0B0142
:1002E00064EB00042B0D43EA0C335E1844EB1C5006
:1002F000DA465146E7FB0201C5F313044FEA0B331C
:1003000043EA14534FEA0432019C43EA0603A4F182
:100310000C040294009CCDE900B400F0AEF803B0E8
:10032000BDE8F08F00200146F9E70EB5C10F80EA65
:10033000E0700844CA07002140F233438DE80E0004
:100340000A460B4600F099F803B000BD01F00043E7
:1003500030B421F0004150EA010206D00A0DA2F5A6
:100360006072C1F31301002A02DC30BC0020704728
:10037000440F44EAC104C100E01830BC00EBC25095
:1003800000F035B830B50B4601460020202201248C
:1003900009E021FA02F59D4205D303FA02F5491B53
:1003A00004FA02F52844151EA2F10102F1DC30BD69
:1003B000202A04DB203A00FA02F100207047914025
:1003C000C2F1200320FA03F3194390407047202A1A
:1003D00004DB203A21FA02F00021704721FA02F3EF
:1003E000D040C2F1200291400843194670470029CD
:1003F000A8BF7047401C490008BF20F001007047AB
:1004000010B4B0FA80FC00FA0CF050EA010404BF0A
:1004100010BC704749B1CCF1200421FA04F411FA60
:100420000CF118BF012121430843A3EB0C01CB1DA4
:100430004FEA00614FEA102042BF002010BC704715
:1004400000EBC35010440029A4BF10BC7047401CEF
:10045000490008BF20F0010010BC704710B5141E01
:1004600073F1000408DA401C41F1000192185B416D
:100470001A4301D120F0010010BD2DE9F04D924644
:100480009B4611B1B1FA81F202E0B0FA80F220325B
:100490009046FFF78DFF04460F4640EA0A0041EA06
:1004A0000B0153465A46084313D0114653EA010044
:1004B00019D0C8F140025046FFF789FF05460E46A5
:1004C000504659464246FFF773FF084305D00120C6
:1004D00004E020463946BDE8F08D0020054346EA99
:1004E000E0762C4337430A986305E40AA0EB080042
:1004F0000022FD0A44EA47540A3002D50020014692
:10050000E9E7010510196941DDE90845001969416C
:10051000BDE8F04DA2E70000064C074D06E0E0689C
:1005200040F0010394E8070098471034AC42F6D33A
:10053000FFF72EFEE4250008042600083EB5FF2440
:100540008DE81C0040000A4601460123034800F0E4
:100550004BFA002801D04FF0FF303EBD4000002094
:100560003EB5FF248DE81C0040000A4601460123E9
:10057000034800F035FB002801D04FF0FF303EBDAE
:100580004000002070B51D481B494FF42F74C16016
:100590001B4901611B49416129214172204600F03C
:1005A0006BF8164801F04CFE012001F07FFF204659
:1005B00000F062F8114801F043FE13A001F0AAFB1D
:1005C000082001F01BFF164C4FF47A75144801F017
:1005D000E7FD2078032806D012A001F09BFB2846F7
:1005E00000F04AF8F2E717A001F094FBBDE8704074
:1005F0001CA001F08FBB0000610500081C0000205A
:100600003D05000879060008424E4F303535206917
:100610006E697420737563636573732E0A0000003E
:1006200000000020424E4F303535207374696C6CE9
:100630002069732063616C6962726174696E672EF0
:100640002E2E0A00424E4F303535206973206675D4
:100650006C6C792063616C696272617465642E0AE6
:10066000000000004D43552073746172742E0A001F
:10067000FEE7704772B6FEE770B5044600F0EAF890
:100680000546601C02D004480078044400F0E2F8FB
:10069000401BA042FAD370BD080000202DE9F84F9E
:1006A00000224FF0010803254FF00F0E0B6808FAE7
:1006B00002F42340A3426ED14E68012E05D0022ED3
:1006C00003D0112E01D0122E12D186684FEA420CAF
:1006D00005FA0CF7BE43CF6807FA0CF7374387607B
:1006E0004668A6430C79C4F3001494403443446034
:1006F000C668570005FA07FC8C6826EA0C06BC4061
:100700003443C4604C68022C01D0122C13D1D4089D
:1007100000EB8404A346D4F8209054074FEAD46A2F
:100720000EFA0AF629EA06090E6906FA0AF646EAF8
:100730000906CBF8206006680C7926EA0C0604F05E
:100740000304BC40344304604C68E40065D5364C77
:10075000266846F480462660246822F0030604F4E6
:1007600080440094314C3444A446D4F80848960799
:10077000370F0EFA07F6B4432D4EB04201D10026D2
:1007800024E02C4EB04201D101261FE02A4EB04297
:1007900002D102261AE040E0284EB04201D10326E1
:1007A00014E0274EB04201D104260FE0254EB0429E
:1007B00001D105260AE0244EB04201D1062605E00B
:1007C000224EB04201D1072600E00826BE40264353
:1007D000CCF808681E4E34684F689C43FF0300D570
:1007E0001C4334601A4C241D26684F689E43BF0387
:1007F00000D51E432660164E083634684F689C4369
:10080000FF0200D51C433460114E0C3634684F682B
:100810009C43BF0200D51C433460521C102AFFF4D5
:1008200045AFBDE8F88F0000443802400030014079
:10083000000002400004024000080240000C024098
:10084000001002400014024000180240001C024048
:10085000003C01400148806870470000080000200B
:1008600070B5040025D094F83D00002520B984F827
:100870003C50204600F04CFA242084F83D002068CB
:10088000016821F0010101602068016841F4004124
:1008900001602068016821F40041016000F092FBD2
:1008A0004D4A6168914201D84C4900E04C49884268
:1008B00001D2012070BD4B492368B0FBF1F15E68A5
:1008C00026F03F060E435E606368934206D94FF4FC
:1008D000967359434FF47A73B1FBF3F12368491CC3
:1008E0001E6A26F03F06314319626168914210D8B2
:1008F0004900401EB0FBF1F2521CC2F30B02042A65
:1009000001D2042022E0B0FBF1F0401CC0F30B0048
:100910001CE0A268F2B301EBC10303EB0116431E16
:10092000B3FBF6F35B1C43F480431B0549D092B341
:1009300001EBC10202EB0111401EB0FBF1F0401CC3
:10094000C0F30B0040F4804040F400402168CA69C5
:100950004CF6FF739A431043C861D4E90710014372
:100960002068026822F0C00211430160D4E903014B
:1009700001432068826848F2FF339A431143816043
:10098000D4E9050108432168CA6822F0FF02104338
:10099000C86001E00EE016E02068016841F0010146
:1009A00001602564202084F83D00256384F83E50D2
:1009B000002070BD01EB4106431EB3FBF6F35B1C48
:1009C000B3E70120C2E701EB4101401EB0FBF1F0AB
:1009D000401CC0F30B00B7E7A086010080841E0016
:1009E00000093D0040420F002DE9FF4F83B09A46B9
:1009F000DDE9119793460446DDF84080FFF72AFFB2
:100A0000054694F83D00202870D119230122714930
:100A10002046009500F0BEFE0028F5D194F83C0079
:100A2000012863D0012084F83C0020680168C907D0
:100A300003D1016841F0010101602068016821F4DF
:100A400000610160222084F83D00402084F83E00CF
:100A500000262664C4F82480A4F82A90608D20859E
:100A60005D48E062CDE9007553465A462046049938
:100A700000F098FD00287CD1208DD0B1012821D034
:100A80000228206824D0416980690090208D0328C5
:100A900069D801282BD0514902283B464FF000026B
:100AA000009559D08846204600F074FE002860D199
:100AB0003CE02068416981690091016841F400715E
:100AC000016077E02068016821F480610160F0E74F
:100AD000016821F4806101602068016841F40061CF
:100AE0000160206841698069009063E06FE02A46F8
:100AF0003946204600F0CDFE98BB20680069616A47
:100B000008704EE02068016841F4007101602068BF
:100B10000069616A0870606A401C6062218D491E2C
:100B20002185618D491E6185216838E02068016852
:100B300021F48061016020680069616A0870606A60
:100B4000401C6062208D401E2085608D401E6085A7
:100B50003B46002241460095204600F01BFE00B9AE
:100B6000D0E706E0FFE72A463946204600F091FE2E
:100B700018B1012007B0BDE8F08F20680069616AF4
:100B80000870606A401C6062218D491E2185618D5C
:100B9000491E618521684A69D24352070AD409690E
:100BA0000170606A401C6062208D401E2085608D4F
:100BB000401E6085208D00287FF468AF202084F8D7
:100BC0003D0084F83E6084F83C600020D2E70220BB
:100BD000D0E70000020010000000FFFF0400010049
:100BE0002DE9FF4F83B09A46DDE9119793460446FD
:100BF000DDF84080FFF72EFE054694F83D002028E2
:100C00007FD11923012240492046009500F0C2FD02
:100C1000002876D194F83C00012872D0012084F895
:100C20003C0020680168C90703D1016841F0010157
:100C300001602068016821F400610160212084F8CE
:100C40003D00402084F83E0000262664C4F824803D
:100C5000A4F82A90608D20852C48E062CDE90075CB
:100C600053465A462046049900F01AFD70B930E008
:100C70002A463946204600F03FFE58B1206C042831
:100C800004D12068016841F400710160012007B0BF
:100C9000BDE8F08F606A216800780861606A401CD6
:100CA0006062218D491E89B22185628D521E628546
:100CB00022685369DB435B070BD469B1007810618C
:100CC000606A401C6062208D401E2085608D401E41
:100CD0006085208D0028CBD12A463946204600F079
:100CE00033FD0028CAD154F83D0B016841F400716E
:100CF0000160202004F81E09E67766770020C6E729
:100D0000FFE70220C3E70000020010000000FFFF21
:100D100010B586B0044614216846FFF789FA1349D6
:100D20002068884220D11248016841F00201016028
:100D30000068694600F002000590C0200090122073
:100D400001900120029003200390042004900948A0
:100D5000FFF7A4FC06481030016841F4001101605F
:100D6000006800F40010059006B010BD005400406B
:100D70003038024000040240024881680278114481
:100D800081607047080000200B4810B5016841F4ED
:100D900000710160016841F480610160016841F403
:100DA00080710160032000F061F8002000F006F877
:100DB00000F024F8002010BD003C024070B50D4D3D
:100DC00004464FF47A712878B1FBF0F00A490968BB
:100DD000B1FBF0F000F0F4FA48B9102C07D2002271
:100DE0002146501E00F022F800206C6070BD0120EA
:100DF00070BD000008000020140000200A4808B55B
:100E0000016841F480410160006800F48040009076
:100E10000548001F016841F080510160006800F042
:100E20008050009008BD000044380240F0B40E4BE2
:100E30001B680C46C3F30223C3F10705042D00D938
:100E40000425191D072901D2002300E0DB1E01261D
:100E500006FA05F1491E214099409E40761E164033
:100E60003143F0BC00F066BF0CED00E0064900F035
:100E7000070208684FF6FF03184040EA0220034AC1
:100E800010430860704700000CED00E00000FA0518
:100E90002DE9F0470E46050065D0DFF81481D8F83B
:100EA0000000F7B200F00F00B04207D288F80070DF
:100EB000D8F8000000F00F00B04254D128683D4C33
:100EC000810712D5400703D5206840F4E050206028
:100ED0002878000703D5206840F46040206020682F
:100EE000A96820F0F000084320602878C0072DD0C2
:100EF000304968680839012812D0022813D0032825
:100F000011D00968890700292DDA216821F0030131
:100F100001432160FFF79EFC814641F2883A0EE0D2
:100F200009688903EFE709688901ECE7FFF792FC9C
:100F3000A0EB0901514502D90320BDE8F0872068E4
:100F4000696800F00C00B0EB810FEFD1D8F8001009
:100F5000404601F00F01B14207D90770006800F068
:100F60000F00B04201D00120E7E72878400705D5FF
:100F70002068E96820F4E0500843206028780007E2
:100F800006D52068296920F4604040EAC10020604D
:100F900000F038F82168084AC1F30311515CC840D9
:100FA0000649086006480068FFF708FF0020C4E70C
:100FB000003C024008380240CC2500081400002004
:100FC0000C0000200448054900680968044AC1F380
:100FD0008221515CC840704714000020083802404C
:100FE000DC2500080448054900680968044AC1F383
:100FF0004231515CC840704714000020083802405C
:10100000DC250008154810B5006810F00C021448E3
:1010100013D04110042A0FD0082A0ED10F4C241FE0
:101020002268236802F03F025B0207D52068C0F304
:101030008810A0FB010106E0084610BD2168C1F33D
:101040008811A1FB00010023FFF7BAF82168C1F362
:101050000141491C4900B0FBF1F010BD08380240C5
:101060000024F4002DE9F84F04006ED02078DFF85A
:101070003C93C007A9F104054AD009F104000168B6
:10108000C1F38101012908D00068C0F38100022862
:101090000AD1D9F80000400206D52868800337D568
:1010A00060680028E1D033E06068B0F5803F10D080
:1010B000B0F5A02F286810D020F480302860286870
:1010C00020F4802028606068A8B1FFF7C3FB0646C3
:1010D0000DE0286840F48030F4E740F48020286078
:1010E000F7E700BFFFF7B6FB801B642873D82868BA
:1010F0008003F7D50CE0FFF7ADFB064605E000BF27
:10110000FFF7A8FB801B6428F0D828688003F7D479
:101110002078DFF89C8280074FF0000A3ED5A34874
:10112000001D016811F00C0F08D00068C0F38100A9
:1011300002280BD1D9F80000400207D428688007A4
:1011400016D5E068012800D112E02BE1E068B8B1C3
:101150000120C8F80000FFF77DFB064605E000BF50
:10116000FFF778FB801B0228C0D828688007F7D5D6
:101170002868216920F0F80040EAC10028600DE0ED
:10118000C8F800A0FFF766FB064604E0FFF762FB25
:10119000801B02281FD828688007F7D42078000712
:1011A00022D5824E83486169703671B10121016098
:1011B000FFF750FB074604E0FFF74CFBC01B02287B
:1011C00009D830688007F7D50EE0C0F800A0FFF717
:1011D00041FB074605E082E0FFF73CFBC01B02280D
:1011E0007DD830688007F7D42078400768D5DFF8CD
:1011F000BCB100270BF13C0BDBF80000C0000BD4A6
:10120000DBF8001041F08051CBF80010DBF8000053
:10121000012700F080500090674E3068C00510D460
:10122000306840F480703060FFF714FB009005E0F8
:10123000FFF710FB0099401A022850D83068C0050B
:10124000F6D55A4EA0686C3601280FD005283068B4
:1012500010D020F001003060306820F004003060D1
:10126000A068B8B1FFF7F6FA00900FE0306840F0E0
:101270000100F4E740F004003060F7E7FFF7EAFA16
:101280000099411A41F28830814266D8306880075F
:10129000F4D50EE0FFF7DEFA009007E0FFF7DAFA88
:1012A0000099411A41F28830814256D8306880074F
:1012B000F4D42FB1DBF8001021F08051CBF80010EE
:1012C000A069C8B33949091D0968C1F38101022920
:1012D0004AD00228504607D0C8F8600000E03CE041
:1012E000FFF7B8FA04463BE04746C8F86000FFF74E
:1012F000B1FA064605E000BFFFF7ACFA801B0228F2
:101300002BD828688001F7D4D4E907010843A16AE3
:101310002A4A490802EB0141626A41EA8211084304
:1013200094F82C1040EA0161C9F8001001203866D9
:10133000FFF790FA044606E036E000BFFFF78AFAAE
:10134000001B022809D828688001F7D52CE000BFCF
:10135000FFF780FA001B022802D90320BDE8F88FAE
:1013600028688001F4D41FE00128F7D0D9F80000E4
:10137000E26900F48001914214D1226A00F03F0139
:1013800091420FD147F6C071626A0140914209D182
:10139000A26A00F44031914204D1E16A00F0706029
:1013A000884201D00120D9E70020D7E70438024065
:1013B00000004742800E4742007000400000FFFFDF
:1013C00010B5401EB0F1807F01D3012010BD4FF059
:1013D000E02460610F21601700F0ACFC0020A061E8
:1013E00007202061002010BD70B5040004D094F8DF
:1013F0003900002510B106E0012070BD84F8385096
:10140000204600F023F8242084F839002068C168C1
:1014100021F40051C160204600F0B4FB206801694E
:1014200021F4904101612068416921F02A01416164
:101430002068C16841F40051C160E563202084F850
:10144000390084F83A00002070BD000010B586B065
:10145000044614216846FEF7EBFE144920688842D2
:1014600021D113480021026842F010020260006896
:1014700000F0100005900E481438026842F0010296
:101480000260006800F0010005904FF4C060009019
:101490000220CDE901010320039007200490694652
:1014A0000448FFF7FBF806B010BD00000010014033
:1014B00044380240000002402DE9F843044690F809
:1014C00039001F4616460D46202850D1B5B1AEB1A1
:1014D00094F8380001284AD0012084F838004FF0F1
:1014E0000008C4F83C80212084F83900FFF7B2F9E5
:1014F000A6848146E68484F8388026E00120BDE891
:10150000F883E08C401EE084A0684B46B0F5805F15
:101510004FF000024FF080012046009703D000F00A
:10152000C5FBE8B90DE000F0C1FBC8B92888216807
:10153000C0F308004860206908B16D1C05E0AD1CCF
:1015400003E0216815F8010B4860E08C0028D8D131
:101550004B46002240212046009700F0A7FB08B12F
:101560000320CCE7202084F839000020C7E70220C0
:10157000C5E7FEE701684A69D24352050FD46FF40C
:1015800080624A61002140F8301F2022427381733B
:10159000026942F0040202610173012070470020D9
:1015A000704700002DE9F84F0446006889460B9DFE
:1015B00001689846174641F480610160206801681F
:1015C00041F48071016000954FF0011B00225946E3
:1015D00020460A9B00F0DEF84FF4007A40B1206804
:1015E0000068C00501D5C4F840A00320BDE8F88F0D
:1015F000216809F0FE0008612B46284920460A9A16
:1016000000F0FCF8F0BB20684169806900902A4630
:1016100020460A9900F070F940B1206C04283AD1B4
:101620002068016841F40071016034E0FEB2B8F155
:10163000010F09D02168380A08612A4620460A9914
:1016400000F05AF90028E8D1206806612A462046B1
:101650000A9900F051F90028DFD12068016841F4AF
:101660008071016000950022594620460A9B00F0D7
:1016700091F80028B3D1216809F0FF0040F0010083
:10168000086100E007E02B46044920460A9A00F072
:10169000B5F80028AAD00120A8E700000200010048
:1016A0002DE9F843044600680D46DDE90897016816
:1016B0009846164641F4807101604B4600224FF077
:1016C00001112046009700F065F848B120680068D5
:1016D000C00502D54FF4007020640320BDE8F883F4
:1016E000216805F0FE0008613B464A461549204640
:1016F00000F084F888B920684169806900903A4612
:101700004946204600F0F8F848B1206C042804D17E
:101710002068016841F4007101600120DEE7F5B244
:10172000B8F1010F09D02168300A08613A464946EC
:10173000204600F0E1F80028E7D12068056100208C
:10174000CCE700000200010070B516460D460446C5
:101750000DE02046FFF70EFF08B1012070BD681CA8
:1017600005D0FFF777F8801BA84207D835B120686D
:101770004069C0434007ECD4002070BD002044F80D
:10178000300F20216173A073216941F02001216194
:101790002073E2E72DE9F0471E4690460D460446C9
:1017A000C1F30747DDF8209008E0701C06D0FFF772
:1017B00051F8A0EB0900B0420FD876B12068012F94
:1017C00018D0806925EA00000004000C14D0002124
:1017D0004145EAD00020BDE8F087002044F8300FF2
:1017E00020216173A073216941F0200121612073E0
:1017F0000120F0E74069E5E70121E9E72DE9F0473D
:101800009A4691460E46044600254FF02008C1F343
:10181000074725E020684069C043400514D420688C
:10182000016841F40071016021686FF480604861D3
:10183000256384F83D8084F83E50206C40F004001D
:10184000206484F83C501FE0B9F1FF3F08D0FFF757
:1018500001F8A0EB0A0149450CD8B9F1000F09D0F5
:101860002068012F13D0806926EA00000004000CD4
:101870000BD0CFE744F8305F84F80D80A573206962
:1018800040F02000206125730120BDE8F087406909
:10189000EAE72DE9F041002590460E460446202750
:1018A00017E04069C043C0060CD454F8301B6FF0F9
:1018B0001000486144F810596777A577206A2062C4
:1018C000257717E0FEF7C6FFA0EB0800B04208D866
:1018D0003EB120684169C9434906E2D40020BDE811
:1018E000F08144F8305F6773A573206940F02000F1
:1018F000206125730120F2E770B516460D460446B7
:101900000DE02046FFF736FE08B1012070BD681CCF
:1019100005D0FEF79FFF801BA84207D835B120688D
:101920004069C0430006ECD4002070BD002044F89C
:10193000300F20216173A073216941F020012161E2
:101940002073E2E70D4808B5016841F080010160AD
:10195000016801F080010091016841F0010101601E
:10196000016801F001010091016841F0020101608C
:10197000006800F00200009008BD0000303802400E
:101980000D4810B50B4901600C49416000214FF42E
:1019900080428160C0E9031241618161C1610162DD
:1019A000FEF75EFF002803D0BDE81040FEF762BEE0
:1019B00010BD00000054004040000020A08601003F
:1019C0000C4810B50A4901604FF4E1314160002133
:1019D00081600C22C160C0E904128161C161FFF71E
:1019E00003FD002803D0BDE81040FEF743BE10BD44
:1019F0000010014094000020FEE7FEE77047000061
:101A00003EB5234800F058FB214A9FED220A64238B
:101A1000D2ED011A61EE800AFDEEE00A10EE900AA6
:101A2000D2ED020A90FBF3F120EE801A03FB1101C4
:101A30000029BDEEC11A11EE100A92ED001A90FBBA
:101A4000F3F421EE000A03FB1400BDEEC00A10EE11
:101A5000102A92FBF3F403FB142200DA4942BDEE94
:101A6000E10A002800DA404200908DED010ABDEE47
:101A7000E00A0291002A10EE103A00DA5242BDEE5E
:101A8000C10A05A010EE101A00F044F93EBD000096
:101A9000340000200000C8427961773A2025336481
:101AA0002E252D32642020202070697463683A202E
:101AB0002533642E252D326420202020726F6C6C1B
:101AC0003A202533642E252D32640A007047FFF733
:101AD00053B9000030B593B030216846FEF7A8FB3B
:101AE00014210CA8FEF7A4FB1D480025016841F055
:101AF00080510160006800F0805011901948016821
:101B000041F4804101600068022400F4804011909B
:101B100001200090000401908001CDE9064008AA50
:101B20000420A82182E813000B906846FFF79AFA78
:101B300008B172B6FEE70CA90F2081E831004FF41E
:101B4000A0500F904FF48050109005210CA8FFF783
:101B50009FF9002801D072B6FEE713B030BD000037
:101B600040380240007000400548016841F47001AF
:101B7000016003494FF00060803908607047000041
:101B800088ED00E02DE9F041044600680169E26853
:101B900021F44051114301612169A068E2690843C1
:101BA0006169114308432168CA6849F20C639A438A
:101BB0000243CA6020684169A26921F4407111435F
:101BC0004161E069192764253226B0F5004F354A96
:101BD000354920684FF0000806D0884201D0904275
:101BE00036D1FFF7FFF935E0884201D0904202D1AB
:101BF000FFF7F8F901E0FFF7E5F961684A18A0FB83
:101C0000070148EB0803FEF7DBFA0146B0FBF5F0ED
:101C10000201B1FBF5F06FF01803584301EB8000AF
:101C200006EBC000B0FBF5F000F0F80002EB40025C
:101C3000B1FBF5F0584301EB800006EBC000B0FBB0
:101C4000F5F000F00700216810448860BDE8F081DD
:101C5000FFF7B8F961688B0F8A00A0FB0701FEF758
:101C6000AFFA0146B0FBF5F06FF01802504301EBFC
:101C7000800006EB0010B0FBF5F000F0F002B1FBC5
:101C8000F5F002EB0012B1FBF5F06FF018035843CA
:101C900001EB800006EB0010B0FBF5F000F00F0048
:101CA000D1E7000000140140001001402DE9F0418F
:101CB000984617460E460446069D1DE0681C1BD03C
:101CC0002DB1FEF7C7FDA0EB0800A84214D920688B
:101CD000C16821F4D071C1602068416921F001011F
:101CE0004161202084F8390084F83A00002084F80B
:101CF00038000320BDE8F0812068006836EA000063
:101D000004D00020B842D9D00020F3E70120F9E741
:101D1000FEE700000FB4054B10B503A9044A029872
:101D200000F028F810BC5DF814FB000091250008B5
:101D3000180000200907090E002804DB00F1E0204C
:101D400080F80014704700F00F0000F1E02080F8E8
:101D5000141D704702E008C8121F08C1002AFAD1FA
:101D600070477047002001E001C1121F002AFBD11B
:101D7000704700002DE9FF4F8BB0884605460026CE
:101D800006E025280BD0DDE90D1290476D1C761C6E
:101D900028780028F5D10FB03046BDE8F08F002438
:101DA000A146A2460122AE4900E0044315F8013FD6
:101DB000203B02FA03F00842F7D128782A2810D0F5
:101DC0006FF02F022878A0F13001092915D809EB0E
:101DD000890102EB410144F0020400EB01096D1C92
:101DE000F0E758F8041B5FEA010903D544F40054F6
:101DF000C9F1000944F002046D1C28782E2817D17F
:101E000015F8010F44F004042A280ED06FF02F02B9
:101E10002878A0F1300109290AD80AEB8A0102EBDF
:101E2000410100EB010A6D1CF2E758F804AB6D1C90
:101E300028786C280FD006DC4C2817D068280DD0E5
:101E40006A2814D104E0742810D07A280FD10DE04C
:101E500044F400140AE044F4801401E044F4401413
:101E60006978814202D104F580146D1C6D1C2878BC
:101E7000692865D006DC00288DD0632827D0642827
:101E800006D15DE06E2808D073282AD0752877D057
:101E9000DDE90D129047761CE0E0C4F30250022801
:101EA00009D003280DD0D8F8001004280DD00E60FA
:101EB00008F10408D2E0D8F80010F217C1E9006276
:101EC000F6E7D8F800100E80F2E70E70F0E718F889
:101ED000041B8DF8001000208DF80100EB46012056
:101EE00003E058F804BB4FF0FF3061074FF00007E4
:101EF00001D40AE07F1C57450DDA8742FADB1BF854
:101F000007100029F6D106E07F1C8742FCDB1BF896
:101F100007100029F8D1DDE90D23A9EB0700814660
:101F2000214600F0B1F83044C61904E0DDE90D1295
:101F30001BF8010B90477F1EF8D22146484688E0E7
:101F400058F8040BC4F302514FF00A0B032900D1D7
:101F500000B2042900D140B2002802DA40422D210B
:101F600002E0210505D52B218DF82410012104E084
:101F700006E0E10710D02021F6E708AF089113E052
:101F800058F8040BC4F302514FF00A0B032900D197
:101F900080B2042900D1C0B20021EEE75946FEF715
:101FA000F1F9303107F8011D0028F7D1ADEB07003A
:101FB00000F1200B600702D524F4803401E04FF0DB
:101FC000010ADA4502DDAAEB0B0000E000208246A0
:101FD00000EB0B0108980144A9EB01000A90E00313
:101FE00006D4DDE90D2321460A9800F04DF8064499
:101FF0004FF0000908E009A911F80900DDE90D1208
:10200000904709F10109761C08998945F3DBE00343
:102010000CD5DDE90D2321460A9800F035F8064479
:1020200004E0DDE90D1230209047761CBAF1000182
:10203000AAF1010AF5DC05E0DDE90D1217F8010B44
:102040009047761CBBF10001ABF1010BF4DC0A9860
:102050002146DDE90D2300F005F806446D1C97E6E6
:10206000092801002DE9F041044600251E461746C7
:10207000880404D405E039462020B0476D1C641E56
:10208000F9D52846BDE8F0812DE9F0410446002548
:102090001E469046C80301D5302700E0202788045B
:1020A00004D505E041463846B0476D1C641EF9D59D
:1020B0002846BDE8F081000070B505462DED028B85
:1020C00084B00020019002908DF800004FF0FF36A0
:1020D000684600F03DF804469DF8000020B100205D
:1020E00000F04CF9204444B224B901A800F00CF9E6
:1020F000040005D0344604B02046BDEC028B70BD10
:10210000BDF90400FEF711F99FED0F8B53EC182B6E
:10211000FEF799F8FEF71AF92860BDF90800FEF7F6
:1021200004F953EC182BFEF78EF8FEF70FF9A860B0
:10213000BDF90600FEF7F9F853EC182BFEF783F80B
:10214000FEF704F96860D6E7000000000000B03F29
:10215000F8B50646114C00208DF8000060684FF07D
:10216000FF3548B1007950B1002000F0D3F930B10B
:102170006068007918B10FE06FF07E00F8BD61680B
:1021800001236A46487A0C693B21A04705469DF821
:102190000000C0F3800030702846F8BD0000002029
:1021A000F8B50646114C00208DF8000060684FF02D
:1021B000FF3548B1007950B1002000F0ABF930B1E3
:1021C0006068007918B10FE06FF07E00F8BD6168BB
:1021D00001236A46487A0C693521A04705469DF8D7
:1021E0000000C0F3011030702846F8BD0000002048
:1021F000F8B50646114C00208DF8000060684FF0DD
:10220000FF3548B1007950B1002000F083F930B1BA
:102210006068007918B10FE06FF07E00F8BD61686A
:1022200001236A46487A0C693D21A04705469DF87E
:10223000000000F00F0030702846F8BD00000020BC
:10224000FEB500212F4C8DF800108DF8041002917E
:10225000014660600123CD68407A01AA0721A847A2
:10226000616805460123487A0E696A460021B04735
:10227000616805449DF800000870487A01230E69E2
:102280006A461946B047616805449DF800004871E8
:10229000487A01230E696A460221B0476168054405
:1022A0009DF800008871487A01230E696A4603216F
:1022B000B047616805449DF80000C871487A012361
:1022C0000E696A460621B047616805449DF8000022
:1022D0000872487A02230E6902AA0421B047616895
:1022E0000544BDF808004880487A01230E696A4613
:1022F0000721B047626828449DF8001040B2117170
:10230000FEBD0000000000207CB5064600201A4CEF
:102310000090019060684FF0FF3548B1007950B1EE
:10232000002000F0F7F830B16068007918B120E0C3
:102330006FF07E007CBD606806236A46457A0469BA
:102340001A212846A04705469DF800009DF8011077
:1023500040EA012030809DF802009DF8031040EA19
:10236000012070809DF804009DF8051040EA0120CE
:10237000B08028467CBD0000000000202DE9FC4113
:10238000064600201C4D8DF800008DF8040068689A
:102390004FF0FF3420B101A8FFF72AFF20B122E05F
:1023A0006FF07E00BDE8FC819DF8040018B10020AC
:1023B00000F024F8B8B9686801236A46477A0469CE
:1023C0003B213846A04704000DD19DF800000123B1
:1023D00066F382008DF8000069686A46487ACC6826
:1023E0003B21A04744B29DF8040018B100F006F864
:1023F000204444B22046D5E7000000202DE9FC41EE
:1024000006460020284C8DF800008DF80400606816
:102410004FF0FF3520B101A8FFF7EAFE20B140E000
:102420006FF07E00BDE8FC819DF804004FF4167744
:1024300048B1616801236A46487A0D693D21A84781
:1024400005001CD02BE0616801236A46487A0D69BB
:102450003D21A847050024D19DF80000012366F323
:1024600003008DF8000061686A46487ACD683D2116
:10247000A84745B2606841693846884711E09DF831
:102480000000012220F00F008DF8000069463D2079
:1024900000F06AF805466068416914208847002EFC
:1024A000D1D12846BEE7000000000020F8B506465E
:1024B000174D00208DF8000068684FF0FF3448B1D8
:1024C000007950B1002000F025F830B1686800793B
:1024D00018B11AE06FF07E00F8BD686801236A4603
:1024E000477A04693F213846A04704000DD19DF882
:1024F0000000012366F345108DF8000069686A4604
:10250000487ACC683F21A04704462046F8BD000029
:1025100000000020F8B50546124C00208DF80000A0
:1025200060684FF0FF3650B1477A0123D0F810C0F1
:102530006A4607213846E04720B13046F8BD6FF0C3
:102540007E00F8BD8DF80050616801236A46487A24
:10255000CE680721B04740B20028F2D161680D7102
:10256000F8BD000000000020F0B4064607484068AF
:1025700040B1457A1346C4680A4631462846A44607
:10258000F0BC6047F0BC6FF07E0070470000002098
:1025900013B54FF0FF33012269460248FEF78CFF66
:1025A00000981CBD94000020FEF7EEFBFFF792FAA6
:1025B000FFF7C8F9FFF7E4F9FFF702FAFDF7E2FFCA
:1025C000FFF71EFA0520FEF757F8F9E700000000B4
:1025D00000000000010203040607080900000000D3
:1025E0000102030404260008000000201C00000073
:1025F000541D0008202600081C000020BC04000018
:10260000641D000800000000000000000100000040
:1026100010000000000000000024F4000000000092
:040000050800018965
:00000001FF
