:020000040800F2
:10000000680B00209D0100083B0C0008A3020008BB
:10001000390C0008E7030008790D00080000000013
:10002000000000000000000000000000AF01000818
:10003000E903000800000000EF0100083D0C000883
:10004000B7010008B7010008B7010008B7010008B0
:10005000B7010008B7010008B7010008B7010008A0
:10006000B7010008B7010008B7010008B701000890
:10007000B7010008B7010008B7010008B701000880
:10008000B7010008B7010008B7010008B701000870
:10009000B7010008B7010008B7010008B701000860
:1000A000B7010008B7010008B7010008B701000850
:1000B000B7010008B7010008B7010008B701000840
:1000C000B7010008B7010008B7010008B701000830
:1000D000B7010008B7010008B7010008B701000820
:1000E000B7010008B7010008B7010008B701000810
:1000F000B7010008B7010008B7010008B701000800
:10010000B7010008B7010008B7010008B7010008EF
:10011000B7010008B7010008B7010008B7010008DF
:10012000B7010008B7010008B7010008B7010008CF
:10013000B7010008B7010008B7010008B7010008BF
:10014000B7010008B7010008B7010008B7010008AF
:10015000B7010008B7010008B7010008B70100089F
:10016000B7010008B7010008B7010008B70100088F
:10017000B7010008B7010008B7010008000000003F
:10018000B7010008B7010008DFF80CD000F014F93F
:1001900000480047DD030008680B00200648804740
:1001A00006480047FEE7FEE7FEE7FEE7FEE7FEE75C
:1001B000FEE7FEE7FEE7FEE75D0D000889010008A7
:1001C000EFF3108072B6704780F310887047434A8F
:1001D0001368012B04D04FF001031360404A1060F4
:1001E000404A116040484FF0805101607047EFF382
:1001F000108272B63948016851B34FF000010160B6
:100200003748016891B1EFF309811EF0100F08BF64
:1002100021ED108B21E9F00F4FF000041EF0100FBC
:1002200008BF012441F8044D006801602D490968A8
:10023000096808C9B1E8F00F002B18BFB1EC108BAA
:1002400081F309884EF0100E002B18BF2EF0100E0F
:1002500082F310884EF0040E704722490860EFF3D5
:10026000148222F0040282F314881D494FF000002A
:1002700008601A494FF0010008601C484FF47F01E4
:10028000D0F8002041EA0201016017484FF0805188
:10029000016017480068006880F3088861B662B69C
:1002A00070471EF0040F0CBFEFF30880EFF30980D6
:1002B00020E9F00F40F804ED40F804ED1EF0040FC3
:1002C0000CBF80F3088880F3098800B500F018FFA0
:1002D0005DF804EB4EF0040E70470000740000203F
:1002E0006C0000207000002004ED00E020ED00E034
:1002F00008ED00E02DE9F05F0546002092469B46A0
:1003000088460646814640241BE02846414647462B
:10031000224600F041F853465A46C01A914110D384
:1003200011461846224600F028F82D1A67EB0108FE
:100330004F4622460120002100F01FF817EB00096C
:100340004E41201EA4F10104DFDC484631462A4616
:100350004346BDE8F09FD2B201E000F8012B491EF0
:10036000FBD270470022F6E710B513460A46044652
:100370001946FFF7F0FF204610BD202A04DB203A83
:1003800000FA02F1002070479140C2F1200320FAE8
:1003900003F3194390407047202A04DB203A21FAE6
:1003A00002F00021704721FA02F3D040C2F120028E
:1003B0009140084319467047064C074D06E0E06837
:1003C00040F0010394E8070098471034AC42F6D39C
:1003D000FFF7DEFEFC1E00081C1F000810B501F030
:1003E000C3FC002010BDFEE7704700002DE9F84F68
:1003F00000224FF0010803254FF00F0E0B6808FA9A
:1004000002F42340A3426ED14E68012E05D0022E85
:1004100003D0112E01D0122E12D186684FEA420C61
:1004200005FA0CF7BE43CF6807FA0CF7374387602D
:100430004668A6430C79C4F30014944034434460E6
:10044000C668570005FA07FC8C6826EA0C06BC4013
:100450003443C4604C68022C01D0122C13D1D40850
:1004600000EB8404A346D4F8209054074FEAD46AE2
:100470000EFA0AF629EA06090E6906FA0AF646EAAB
:100480000906CBF8206006680C7926EA0C0604F011
:100490000304BC40344304604C68E40065D5364C2A
:1004A000266846F480462660246822F0030604F499
:1004B00080440094314C3444A446D4F8084896074C
:1004C000370F0EFA07F6B4432D4EB04201D1002685
:1004D00024E02C4EB04201D101261FE02A4EB0424A
:1004E00002D102261AE040E0284EB04201D1032694
:1004F00014E0274EB04201D104260FE0254EB04251
:1005000001D105260AE0244EB04201D1062605E0BD
:10051000224EB04201D1072600E00826BE40264305
:10052000CCF808681E4E34684F689C43FF0300D522
:100530001C4334601A4C241D26684F689E43BF0339
:1005400000D51E432660164E083634684F689C431B
:10055000FF0200D51C433460114E0C3634684F68DE
:100560009C43BF0200D51C433460521C102AFFF488
:1005700045AFBDE8F88F000044380240003001402C
:10058000000002400004024000080240000C02404B
:10059000001002400014024000180240001C0240FB
:1005A000003C01400AB1816170470904FBE700008B
:1005B0000148806870470000000000200B4810B51B
:1005C000016841F400710160016841F480610160DB
:1005D000016841F480710160032000F061F800209F
:1005E00000F006F800F024F8002010BD003C0240A6
:1005F00070B50D4D04464FF47A712878B1FBF0F0D8
:100600000A490968B1FBF0F000F0D4FA48B9102C9F
:1006100007D200222146501E00F022F800206C6014
:1006200070BD012070BD0000000000200C00002003
:100630000A4808B5016841F480410160006800F48F
:10064000804000900548001F016841F08051016022
:10065000006800F08050009008BD0000443802405F
:10066000F0B40E4B1B680C46C3F30223C3F107051D
:10067000042D00D90425191D072901D2002300E00B
:10068000DB1E012606FA05F1491E214099409E40D5
:10069000761E16403143F0BC00F06FBB0CED00E05D
:1006A000064900F0070208684FF6FF03184040EAC9
:1006B0000220034A10430860704700000CED00E080
:1006C0000000FA052DE9F0470E46050065D0DFF879
:1006D0001481D8F80000F7B200F00F00B04207D242
:1006E00088F80070D8F8000000F00F00B04254D134
:1006F00028683D4C810712D5400703D5206840F497
:10070000E05020602878000703D5206840F460405E
:1007100020602068A96820F0F00008432060287855
:10072000C0072DD0304968680839012812D0022846
:1007300013D0032811D00968890700292DDA216810
:1007400021F0030101432160FFF732FF814641F2AE
:10075000883A0EE009688903EFE709688901ECE748
:10076000FFF726FFA0EB0901514502D90320BDE8A0
:10077000F0872068696800F00C00B0EB810FEFD1C2
:10078000D8F80010404601F00F01B14207D90770B8
:10079000006800F00F00B04201D00120E7E72878A0
:1007A000400705D52068E96820F4E0500843206040
:1007B0002878000706D52068296920F4604040EABF
:1007C000C100206000F018F82168084AC1F3031145
:1007D000515CC8400649086006480068FFF708FFFA
:1007E0000020C4E7003C024008380240BA1D00085F
:1007F0000C00002004000020154810B5006810F01F
:100800000C02144813D04110042A0FD0082A0ED12C
:100810000F4C241F2268236802F03F025B0207D5B9
:100820002068C0F38810A0FB010106E0084610BD57
:100830002168C1F38811A1FB00010023FFF75AFDD5
:100840002168C1F30141491C4900B0FBF1F010BD22
:10085000083802400024F4002DE9F84F04006ED05F
:100860002078DFF83C93C007A9F104054AD009F1CC
:1008700004000168C1F38101012908D00068C0F3B8
:10088000810002280AD1D9F80000400206D5286864
:10089000800337D560680028E1D033E06068B0F5A8
:1008A000803F10D0B0F5A02F286810D020F4803001
:1008B0002860286820F4802028606068A8B1FFF7CD
:1008C00077FE06460DE0286840F48030F4E740F4F7
:1008D00080202860F7E700BFFFF76AFE801B6428CE
:1008E00073D828688003F7D50CE0FFF761FE064651
:1008F00005E000BFFFF75CFE801B6428F0D8286885
:100900008003F7D42078DFF89C8280074FF0000A3C
:100910003ED5A348001D016811F00C0F08D00068F7
:10092000C0F3810002280BD1D9F80000400207D49F
:100930002868800716D5E068012800D112E02BE175
:10094000E068B8B10120C8F80000FFF731FE0646A4
:1009500005E000BFFFF72CFE801B0228C0D82868E6
:100960008007F7D52868216920F0F80040EAC10027
:1009700028600DE0C8F800A0FFF71AFE064604E064
:10098000FFF716FE801B02281FD828688007F7D4BF
:100990002078000722D5824E83486169703671B194
:1009A00001210160FFF704FE074604E0FFF700FEA7
:1009B000C01B022809D830688007F7D50EE0C0F8C0
:1009C00000A0FFF7F5FD074605E082E0FFF7F0FD28
:1009D000C01B02287DD830688007F7D420784007F4
:1009E00068D5DFF8BCB100270BF13C0BDBF8000049
:1009F000C0000BD4DBF8001041F08051CBF80010A0
:100A0000DBF80000012700F080500090674E30684E
:100A1000C00510D4306840F480703060FFF7C8FD26
:100A2000009005E0FFF7C4FD0099401A022850D855
:100A30003068C005F6D55A4EA0686C3601280FD034
:100A40000528306810D020F001003060306820F0B8
:100A500004003060A068B8B1FFF7AAFD00900FE075
:100A6000306840F00100F4E740F004003060F7E740
:100A7000FFF79EFD0099411A41F28830814266D805
:100A800030688007F4D50EE0FFF792FD009007E094
:100A9000FFF78EFD0099411A41F28830814256D805
:100AA00030688007F4D42FB1DBF8001021F08051BA
:100AB000CBF80010A069C8B33949091D0968C1F312
:100AC000810102294AD00228504607D0C8F86000A8
:100AD00000E03CE0FFF76CFD04463BE04746C8F809
:100AE0006000FFF765FD064605E000BFFFF760FD0B
:100AF000801B02282BD828688001F7D4D4E907018D
:100B00000843A16A2A4A490802EB0141626A41EAA4
:100B10008211084394F82C1040EA0161C9F80010D2
:100B200001203866FFF744FD044606E036E000BFCA
:100B3000FFF73EFD001B022809D828688001F7D581
:100B40002CE000BFFFF734FD001B022802D9032070
:100B5000BDE8F88F28688001F4D41FE00128F7D0A1
:100B6000D9F80000E26900F48001914214D1226AB0
:100B700000F03F0191420FD147F6C071626A014017
:100B8000914209D1A26A00F44031914204D1E16A54
:100B900000F07060884201D00120D9E70020D7E73B
:100BA0000438024000004742800E47420070004077
:100BB0000000FFFF10B5401EB0F1807F01D301207F
:100BC00010BD4FF0E02460610F21601700F0D5F8F0
:100BD0000020A06107202061002010BD30B587B043
:100BE00014216846FFF7BEFB11480024016841F05C
:100BF00080010160016801F080010591016841F008
:100C00000101016000680B4D00F0010005902246D3
:100C100040212846FFF7C6FC01214020CDE90214FF
:100C2000CDE9000169462846FFF7E0FB07B030BD7B
:100C30003038024000000240FEE7FEE710B500F049
:100C400085FB00F07BFEBDE8104000F08DBB00008E
:100C500030B593B030216846FFF784FB14210CA80F
:100C6000FFF780FB1D480025016841F080510160BD
:100C7000006800F0805011901948016841F48041EB
:100C800001600068022400F480401190012000906F
:100C9000000401908001CDE9064008AA0420A821A3
:100CA00082E813000B906846FFF7D6FD08B172B6D4
:100CB000FEE70CA90F2081E831004FF4A0500F90FF
:100CC0004FF48050109005210CA8FFF7FBFC002882
:100CD00001D072B6FEE713B030BD000040380240CC
:100CE0000070004070B5194C2068194A10F00C01D2
:100CF000184804D05510042903D0082903D00260F5
:100D00001BE0056019E01149091F0B68C3F3805609
:100D10000B6803F03F0316B1B5FBF3F201E0B2FB41
:100D2000F3F20B680968C3F388135A43C1F3014116
:100D3000491C4900B2FBF1F101602168064AC1F388
:100D40000311515C0268CA40026070BD083802405D
:100D50000024F4000C000020BA1D000805480168BA
:100D600041F47001016003494FF000608039086070
:100D70007047000088ED00E0FEE70907090E002833
:100D800004DB00F1E02080F80014704700F00F0051
:100D900000F1E02080F8141D70470000002807D003
:100DA0000E4910F0FF0F04D051FA80F00078401C7B
:100DB000704710F47F4F04D0C0F30720085C09305F
:100DC000704710F47F0F04D0C0F30740085C113067
:100DD000704701EB1060007819307047CA1D000899
:100DE00002E008C8121F08C1002AFAD170477047F4
:100DF000002001E001C1121F002AFBD17047000052
:100E000003480168814201D00120704700207047EB
:100E1000540000202DE9FC411F460446DDE908315D
:100E2000DDE90A65143040600060C4E90827C4E9C0
:100E30000A310A46232118461C3400F0CBFAD4E9C3
:100E400003014218D4E90101104B121F00F060FAAF
:100E500044F81A0B002004F801690D4A04F8036BEA
:100E6000E4E8020544F8105901C404F83C0B01C43D
:100E700044F87409009023460190194604F1440097
:100E800000F0B6FD0020BDE8FC8100000917000855
:100E9000B1180008F0E905124A60D0E900121160AB
:100EA000406000607047FFF789FBFFF7D1FEFFF756
:100EB00095FEFEE710B500F0C9F8BDE81040FFF759
:100EC000F2BF00002DE9F04F85B09946DDE90EA58F
:100ED000109CAB46630602D5DFF814C103E0DFF8CF
:100EE00010C1ACF1110CE30601D524F00104E307B5
:100EF00001D0302300E0202300260493A3070BD564
:100F0000002A02DA2D26524206E0630701D52B267D
:100F100002E0230700D520260023EE4622B9302226
:100F20008DF8002001230CE0B9F10A0F14D002F073
:100F30000F0812091CF808800EF803805B1C002AB9
:100F4000F2D1AB4200DD1D46AAEB050214F0110FF1
:100F50004FF0200708D015E00A27B2FBF7F807FB8F
:100F60001828B2FBF7F2E5E73EB1002A05DD521E74
:100F700003E0884200D20770401CB2F1000CA2F1DD
:100F80000102F6DC26B1884200D20670401C521ED7
:100F9000E40605D508E0884201D2049C0470401C98
:100FA000141EA2F10102F6DC30242E466D1E9E4274
:100FB0000ADD884200D20470401CF6E7884201D264
:100FC000E55C0570401C00E074461D1EA3F10103A2
:100FD00007DDBBF1000FF1D103E0884200D20770BA
:100FE000401C131EA2F10102F7DC05B0BDE8F08F32
:100FF000DB1E00081FB50A4C14230A224FF480613F
:10100000A4F580608DE80F000023064A06A1204663
:1010100000F0FCFB04B02046BDE8104000F032BCFC
:1010200078040020B50E00086D61696E00000000B4
:1010300070B5044C044D02E020688047241DAC428A
:10104000FAD370BDF01E0008F41E000870B5044C01
:10105000044D02E020688047241DAC42FAD370BDE5
:10106000F41E0008F81E000810B5FFF7A9F8044A9E
:101070005188491C5180BDE81040FFF7A5B8000019
:101080004800002010B5FFF79BF80B4C6188491E03
:1010900009B2618000290ADC00216180FFF794F821
:1010A0006068002807D0BDE8104000F00BBABDE82A
:1010B0001040FFF789B810BD4800002010B5FFF7B9
:1010C00011FE0C484FF47A710068B0FBF1F0401E3D
:1010D000B0F1807F09D24FF0E021074A4861FF203C
:1010E00010700020886107200861BDE81040FFF7FC
:1010F0009FBF00000C00002023ED00E070470000BF
:1011000070B52F490546283009682C1D11B1884754
:10111000002853D02BA0216C00F034F92DA0616A77
:1011200000F030F92FA0A16A00F02CF931A0E16A9B
:1011300000F028F933A0216B00F024F935A0616894
:1011400000F020F937A0A16800F01CF939A0E1688F
:1011500000F018F93BA0216900F014F93DA0616985
:1011600000F010F93FA0A16900F00CF941A0E1697D
:1011700000F008F943A0216A00F004F945A0616B72
:1011800000F000F947A0A16B00F0FCF849A0E16B6A
:1011900000F0F8F82878400706D500F06DFB01460E
:1011A00048A000F0EFF802E04EA000F0EBF828783D
:1011B000C00602D452A000F0E5F8FEE770BD0000C2
:1011C000680000207073723A203078253038780A31
:1011D000000000007230303A203078253038780A2C
:1011E000000000007230313A203078253038780A1B
:1011F000000000007230323A203078253038780A0A
:10120000000000007230333A203078253038780AF8
:10121000000000007230343A203078253038780AE7
:10122000000000007230353A203078253038780AD6
:10123000000000007230363A203078253038780AC5
:10124000000000007230373A203078253038780AB4
:10125000000000007230383A203078253038780AA3
:10126000000000007230393A203078253038780A92
:10127000000000007231303A203078253038780A8A
:10128000000000007231313A203078253038780A79
:10129000000000007231323A203078253038780A68
:1012A00000000000206C723A203078253038780A2F
:1012B000000000002070633A203078253038780A2A
:1012C0000000000068617264206661756C74206FB4
:1012D0006E207468726561643A2025730D0A0D0AE8
:1012E0000000000068617264206661756C74206F94
:1012F0006E2068616E646C65720D0A0D0A00000054
:1013000046505520616374697665210D0A0000001E
:1013100070B50446121D22F0070000220A4D443821
:1013200040F82250521C112AFAD3416200218162F6
:10133000C16200F13402016382E81A004FF0807349
:101340000364016070BD0000EFBEADDE10B5FEF7B6
:1013500037FF044A1178491C1170BDE81040FEF7B0
:1013600033BF00001400002010B5FEF729FF044A27
:101370001178491E1170BDE81040FEF725BF00002E
:10138000140000200FB47F2110B503AB0448029A6B
:1013900000F0A4FB0248FFF7B1FE10BC5DF814FB9F
:1013A000E80500200268516002680A600160486038
:1013B00070470268516002680A60016048607047C7
:1013C000D0E900124A60D0E900121160406000606C
:1013D0007047000010B50346CCB2042A1AD3810727
:1013E00018D1194644EA042343EA034306E008C13E
:1013F000103A08C141F8083B41F8043C102AF6D2E3
:1014000001E008C1121F042AFBD20B4602E000BF14
:1014100003F8014B521EFBD210BD10B5044600204C
:101420002072FEF7CDFEF4E903124A60D4E90012FF
:10143000116064602460BDE81040FEF7C5BE000086
:10144000074A002102EB01131B78834202D102EB11
:1014500001107047491C0329F4DB0020704700008D
:10146000180000202DE9F041054617460E460846B3
:10147000FFF7E6FF0446FFF7F7FD211D606800E077
:1014800000688842FCD1FFF7FDFD46F0800028721D
:1014900008223946284600F0EDF8FEF791FE54F890
:1014A000041F0C354D602168296025606C60BDE823
:1014B000F041FEF789BE007A000601D50120704791
:1014C0000020704770B5FEF77BFE114C0546608822
:1014D000B0B9A068FFF762FC0E49401E626851F87F
:1014E0003010143991420BD020700B4861600078A5
:1014F00001F11C01002802F11C0006D0FEF767FE76
:101500002846BDE87040FEF75FBEFEF760FEF7E7D5
:1015100048000020680600201400002010B5044692
:10152000FEF74EFE024694F834000E4920F00F00FC
:10153000401C84F8340094F8350001EBC00104F13C
:1015400014004B6818604B68A361486006486161ED
:10155000A16B836819438160BDE810401046FEF717
:1015600033BE0000680600204800002010B5044685
:10157000FEF726FE04F11401D1E900235360D1E9FE
:1015800000231A60A161616194F83520074951F880
:10159000323001EBC2018B4204D10549A36B8A684A
:1015A0009A438A60BDE81040FEF70EBE6806002030
:1015B0004800002008B509A0FFF7E4FE0AA0FFF7E5
:1015C000E1FE12A0032300900122194612A0FFF7AA
:1015D000D9FEBDE8084018A0FFF7D4BE0A205C2061
:1015E0007C202F0A000000002D205254202D2020A6
:1015F000202020546872656164204F7065726174A8
:10160000696E672053797374656D0A004A756C20A2
:101610003231203230323100202F207C205C2020DB
:1016200020202025642E25642E2564206275696C97
:10163000642025730A0000002032303036202D202F
:101640003230313920436F70797269676874206273
:10165000792072742D746872656164207465616D9F
:101660000A000000014600E0491C0A78002AFBD16C
:10167000081A704710B5002A07D0034611F8014B2D
:1016800003F8014B2CB1521EF8D110BD03F8011B19
:1016900000E00021521EF9D110BD000010B50A492A
:1016A00000230A4C4B80184604EBC002401C5260D9
:1016B00012602028F8DB1F20087003484B600C30B4
:1016C0008B604060006010BD48000020680600206C
:1016D00010B5074CA068FFF761FB0649401E51F8A2
:1016E000300014386060BDE810401C30FEF7B5BD16
:1016F00048000020680600200148406000607047F4
:10170000600000207047000070B513480468FEF7C1
:1017100057FD05462046FFF729FF042084F83400D2
:1017200004F1440000F054F92046FFF7C4FE0128FC
:1017300001D1206F58B104F114010848FFF732FEBF
:101740002846FEF741FDBDE87040FFF7BBBE2046CE
:10175000FFF763FEF4E700004C0000205400002077
:1017600000F002F8FCE7000070B521E0FEF728FD6C
:101770000546FFF745FB28B315480168A1F114049D
:10178000D1E900024260D1E90002106049600960BD
:10179000FFF76AFC216F09B1204688472046FFF712
:1017A0008AFE012809D0FFF76DFC2846FEF70CFDE4
:1017B000FFF726FB0028D9D170BD2046FFF72DFE8C
:1017C000FFF760FC2846BDE87040FEF7FDBC000056
:1017D000540000201FB5094820231F2280218DE8D6
:1017E0000F000023064A07A1783800F00FF804B074
:1017F0000248BDE81040783800F044B86805002081
:10180000611700087469646C650000002DE9FF5FD2
:1018100092460EAA0C4692E8E0010A469946834693
:101820000121FFF71FFE8DE8E0014B46524621469D
:101830005846FFF7EFFA04B0BDE8F09F70B50446D4
:1018400090F8340000F00F00022802D04FF0FF3073
:1018500070BDFEF7B5FC054604F11400FFF7B0FDBE
:1018600004F1440000F022F92846FEF7ADFC2046C2
:10187000FFF754FE002070BD01480068704700006B
:101880004C00002010B590F83610012280F8351079
:101890008A400221826380F83410FFF7CFFF0348AB
:1018A000006808B1FFF70EFE002010BD4C000020BC
:1018B00010B504466FF00100206304F11400FFF737
:1018C0007FFD2046FFF72AFEBDE81040FFF7FABD76
:1018D00070B5FEF775FC06461348046894F83400AA
:1018E00000F00F00012819D1D4E90501884215D074
:1018F00004F114000546FFF763FD94F835000B4929
:1019000001EBC00041680D60416869604560286076
:101910003046FEF759FCFFF7D5FD02E03046FEF7F2
:1019200053FC002070BD00004C0000206806002021
:10193000014800687047000010000020094810B5F9
:101940000168491C0160FFF797FF016C491E0164A3
:1019500003D1C16B0164FFF7BBFFBDE8104000F08D
:1019600003B80000100000202DE9F041FFF7E0FF70
:101970000646FEF725FC0746144D1EE060696FF031
:101980000041301A143C88421AD22046FFF782FAEE
:10199000D4E907108847FFF7CBFF0646607A810736
:1019A00008D5C10706D020F001006072204600F083
:1019B00037F802E020F0010060722C68AC42DDD103
:1019C0003846BDE8F041FEF7FFBB00006000002094
:1019D00070B50546FEF7F4FB04462846FFF75AFAB1
:1019E0002046FEF7F1FB2846FFF717FD002070BDEB
:1019F0002DE9F0411746DDE906580A461E46044621
:101A00000A21FFF72FFD28F0010161720021C4E9CE
:101A10000951C4E90776143464602460BDE8F0819C
:101A2000F8B50446FEF7CCFB05462046FFF732FA30
:101A3000607A20F0010060722846FEF7C5FBFFF7D0
:101A400077FF616A0844A062FEF7BAFB0546164AB2
:101A50000020009202EBC002694653686FF0004C10
:101A60005DF820200BE01268A2EBC0067769A66A39
:101A7000B74202D0BE1B664503D341F820209A42EC
:101A8000F1D10948001F0168491C016004F11401EB
:101A90000098FFF78EFC607A40F0010060722846E3
:101AA000FEF792FB0020F8BD6000002070B50446F0
:101AB000407AC0070ED0FEF783FB05462046FFF7AD
:101AC000E9F92846FEF780FB607A20F00100607299
:101AD000002070BD4FF0FF3070BD00002DE9FF4FBA
:101AE0008946044600EB090783B080464FF0FF3A71
:101AF0004FF0200BA74202D25746C8F1FF3907E149
:101B0000252803D0BC4200D2207081E00026059930
:101B1000491C059108782D2811D02B2812D0202897
:101B200013D0232814D0302815D00A785546303ADF
:101B30000A2A13D205A800F02CF905461AE046F04F
:101B40001006E4E746F00406E1E746F00806DEE7A3
:101B500046F02006DBE746F00106D8E72A2809D13F
:101B60000698491C059120C80690002D02DA6D42A6
:101B700046F01006CDF800A0059801782E2918D15E
:101B8000401C05900178A1F130020A2A04D205A870
:101B900000F0FFF8009008E02A2908D1401C0590C9
:101BA000069802C8069000910846002801DA002035
:101BB0000090059800210278682A01D06C2A02D191
:101BC000401C1146059000780A236F287DD00CDC5C
:101BD00063281FD004DC25287BD058280DD17EE057
:101BE000642801D0692808D17DE070285ED0732870
:101BF0002CD0752879D0782873D0BC4201D225200A
:101C000020700598641C0178D1B3BC4200D22170C9
:101C1000641C7AE0F00608D458466D1E002D04DDE1
:101C2000BC4200D22070641CF7E70699BC4211F850
:101C3000040B069100D22070584602E0BC4200D24C
:101C40002070641C6D1E002DF8DC5EE0069808C84C
:101C5000069003B93EA31846FFF704FD009900293A
:101C600002DD884200DD0846F1060AD459462A46BC
:101C70006D1E824205DDBC4200D22170641CF6E775
:101C800052E0002106E0BC4201D21A782270491CC1
:101C90005B1C641C8142F6DB5A4629466D1E81425C
:101CA00033DDBC4200D22270641CF6E7681C02D10E
:101CB000082546F0010600980296CDE900500698E6
:101CC0001023394604C806901BE006E001E00CE052
:101CD00007E0BC429CD2252016E7082305E046F029
:101CE0004006102301E046F002066C2901D0682965
:101CF0001DD0069804C8069000983946CDE90050DA
:101D000002962046FFF7DEF804460598401C059031
:101D10000598007800287FF4F3AEB9F1000F11D0D8
:101D2000BC420DD220700DE0401E0590EDE70698F4
:101D300030F8041B06908AB2B007DDD512B2DBE79B
:101D400007F8010C07B0A4EB0800BDE8F08F000015
:101D5000284E554C4C290000002070470020704749
:101D6000002070470020704710B5FEF729FAFFF7F2
:101D7000A5F9FFF71FFCFFF7BFFCFFF78FFCFFF78C
:101D800039F9FFF7BFFCFFF725FDFFF7A1FC0020A5
:101D900010BD10B5014600206FF02F0307E0541C62
:101DA0000C60127800EB800003EB400010440A68DE
:101DB0001478303C0A2CF2D310BD00000000000063
:101DC00000000102030406070809000001000200E8
:101DD00001000300010002000100040001000200F4
:101DE00001000300010002000100050001000200E3
:101DF00001000300010002000100040001000200D4
:101E000001000300010002000100060001000200C1
:101E100001000300010002000100040001000200B3
:101E200001000300010002000100050001000200A2
:101E30000100030001000200010004000100020093
:101E40000100030001000200010007000100020080
:101E50000100030001000200010004000100020073
:101E60000100030001000200010005000100020062
:101E70000100030001000200010004000100020053
:101E80000100030001000200010006000100020041
:101E90000100030001000200010004000100020033
:101EA0000100030001000200010005000100020022
:101EB0000100030001000200010004000100020013
:101EC00001000300010002000100303132333435DB
:101ED00036373839616263646566003031323334D5
:101EE000353637383941424344454600651D0008C0
:101EF0005D1D0008591D0008611D00081C1F000819
:101F00000000002078000000E00D0008941F000889
:101F100078000020F00A0000F00D00080100000029
:101F200010000000000000000024F4000000000089
:101F300000000000010000001C0000201C00002028
:101F400078000000020000002C0000202C0000207F
:101F5000200000000A0000003C0000203C0000209F
:101F60002C00000000000000000000000000000045
:101F70000000000000000000000000000000000061
:101F80000000000000000000000000000000000051
:041F9000000000004D
:040000050800018965
:00000001FF
