:020000040800F2
:100000000805002045010008C31500080B12000870
:10001000C1150008B1010008F11900080000000036
:10002000000000000000000000000000971700081A
:10003000B301000800000000951700089917000898
:100040005F0100085F0100085F0100085F01000810
:100050005F0100085F0100085F0100085F01000800
:100060005F0100085F0100085F0100085F010008F0
:100070005F0100085F0100085F0100085F010008E0
:100080005F0100085F0100085F0100085F010008D0
:100090005F0100085F0100085F0100085F010008C0
:1000A0005F0100085F0100085F0100085F010008B0
:1000B0005F0100085F0100085F0100085F010008A0
:1000C0005F0100085F0100085F0100085F01000890
:1000D0005F010008E51900085F0100085F010008E2
:1000E0005F0100085F0100085F0100085F01000870
:1000F0005F0100085F0100085F0100085F01000860
:100100005F0100085F0100085F0100085F0100084F
:100110005F0100085F0100085F0100085F0100083F
:100120005F0100085F0100085F0100085F0100082F
:10013000DFF80CD000F02AF800480047B11B000897
:10014000080500200648804706480047FEE7FEE70E
:10015000FEE7FEE7FEE7FEE7FEE7FEE7FEE7FEE777
:10016000FB17000831010008D2B201E000F8012BB2
:10017000491EFBD270470022F6E710B513460A4627
:1001800004461946FFF7F0FF204610BD064C074D08
:1001900006E0E06840F0010394E807009847103457
:1001A000AC42F6D3FFF7C8FF70380008903800085B
:1001B000FEE7704772B6FEE710B590F821100022F6
:1001C000022905D00421816380F82020012010BD80
:1001D00001680B6823F00E030B6001680B6823F0C5
:1001E00001030B6090F84030C46B012101FA03F366
:1001F000636080F8211080F82020104610BD0000B8
:100200002DE9F05F90F821100024022903D0042189
:100210008163012485E001680A6822F00E020A6009
:1002200001680A6822F001020A603F4E3E4FB21593
:10023000DFF8F4C0DFF8F090DFF8ECA0DFF8E8B00A
:10024000DFF8E4E00168783F13011502ACF1640CBB
:10025000A9F15009AAF13C0AABF1280BAEF1140E3A
:100260004FF48018B14227D9B9420ED0614512D05F
:1002700049451DD0514518D0594518D0714501D177
:10028000424615E0294EB14201D1012210E0274E2D
:100290001436B14201D110220AE0244E2836B14270
:1002A00006D0224A3C32914201D11A4600E02A4649
:1002B0001E49091F0A602BE0B94213D0614517D0CF
:1002C000494522D051451DD059451DD0714501D118
:1002D00042461AE0B14202D14FF0807215E0134E4F
:1002E000B14201D1012210E0104E1436B14201D1C9
:1002F00010220AE00D4E2836B14206D00B4A3C329D
:10030000914201D11A4600E02A46074980394A60E5
:10031000012180F82110002180F82010416B01B1EB
:1003200088472046BDE8F09F800002400804024054
:1003300070B5044600F010F90546601C02D0044870
:100340000078044400F008F9401BA042FAD370BDC5
:100350005C0000202DE9F84FDFF8C891002409F176
:10036000040A0AF1040B23460F270BF1040ED1E017
:100370000125A54006EA0502AA4276D1DFF8A8C108
:100380004E68A6EB0C0866452BD00DDC032E34D04E
:1003900005DC36B3012E19D0022E2FD11BE0112E11
:1003A00016D0122E2AD119E0B8F5881F19D006DC14
:1003B000B8F5803F15D0B8F5801F1FD111E0B8F512
:1003C000001F0ED0B8F5041F18D10AE0CB6815E065
:1003D000CB681B1D12E0CB6808330FE0CB680C33F1
:1003E0000CE08B682BB1012B4FF0080303D0456163
:1003F00004E0042302E0056100E00023FF2A01D8A5
:10040000064601E000F104064FEA840501D9A5F192
:100410002005D6F8008007FA05FC28EA0C0803FA44
:1004200005F548EA0508C6F800804D68ED0070D56E
:100430003E4DAE6946F00106AE61AD6924F003069B
:1004400005F0010500953A4D06EB050CDCF8085067
:10045000A607360F07FA06F825EA0805DFF8D48064
:10046000404503D14FF0000825E052E0DFF8C88096
:10047000404502D14FF001081DE0DFF8C080404543
:1004800002D14FF0020816E0DFF8B480404502D1F7
:100490004FF003080FE0DFF8AC80404502D14FF089
:1004A000040808E0DFF8A080404502D14FF00508BD
:1004B00001E04FF0060808FA06F848EA0508CCF80B
:1004C00008804D68D9F80060ED034D4601D516430C
:1004D00000E096432E604D68DAF80060AD035546A3
:1004E00001D5164300E096432E604D68DBF80060AE
:1004F000ED025D4601D5164300E096432E604D683F
:10050000DEF80060AD02754601D5164300E0964363
:100510002E60641C0A681646E2407FF429AFBDE8ED
:10052000F88F00000004014000001110001002408C
:100530000000014000080140000C01400010014093
:100540000014014000180140001C01408068084070
:1005500000D001207047000001488068704700000B
:100560005C00002070B5040025D094F83D00002503
:1005700020B984F83C50204600F050F9242084F83B
:100580003D002068016821F00101016020680168D8
:1005900041F4004101602068016821F400410160DC
:1005A00000F098FA4D4A6168914201D84C4900E048
:1005B0004C49884201D2012070BD4B492368B0FBF1
:1005C000F1F15E6826F03F060E435E606368934279
:1005D00006D94FF4967359434FF47A73B1FBF3F194
:1005E0002368491C1E6A26F03F0631431962616880
:1005F000914210D84900401EB0FBF1F2521CC2F3E8
:100600000B02042A01D2042022E0B0FBF1F0401CCE
:10061000C0F30B001CE0A268F2B301EBC10303EBD3
:100620000116431EB3FBF6F35B1C43F480431B052A
:1006300049D092B301EBC10202EB0111401EB0FBA5
:10064000F1F0401CC0F30B0040F4804040F4004047
:100650002168CA694CF6FF739A431043C861D4E914
:10066000071001432068026822F0C00211430160B4
:10067000D4E9030101432068826848F2FF339A43BA
:1006800011438160D4E9050108432168CA6822F05A
:10069000FF021043C86001E00EE016E02068016828
:1006A00041F0010101602564202084F83D002563AC
:1006B00084F83E50002070BD01EB4106431EB3FBA1
:1006C000F6F35B1CB3E70120C2E701EB4101401EDA
:1006D000B0FBF1F0401CC0F30B00B7E7A0860100AF
:1006E00080841E0000093D0040420F002DE9FF4FAD
:1006F00083B09A46DDE9119793460446DDF84080C1
:10070000FFF72AFF054694F83D0020287FD11923E2
:10071000012240492046009500F00AFE002876D1CB
:1007200094F83C00012872D0012084F83C00206835
:100730000168C90703D1016841F001010160206827
:10074000016821F400610160212084F83D0040200F
:1007500084F83E0000262664C4F82480A4F82A9079
:10076000608D20852C48E062CDE9007553465A46DD
:100770002046049900F062FD70B930E02A463946FF
:10078000204600F054FE58B1206C042804D12068A3
:10079000016841F400710160012007B0BDE8F08FED
:1007A000606A216800780861606A401C6062218D7F
:1007B000491E89B22185628D521E62852268536965
:1007C000DB435B070BD469B100781061606A401CA1
:1007D0006062208D401E2085608D401E6085208DCA
:1007E0000028CBD12A463946204600F07BFD002860
:1007F000CAD154F83D0B016841F40071016020201A
:1008000004F81E09E67766770020C6E7FFE70220B6
:10081000C3E70000020010000000FFFF10B586B023
:100820000021009101910291039100680F498842D3
:100830001AD10F4CA06940F00800A061A069694678
:1008400000F008000490C0200090122001900320C6
:1008500003900848FFF77EFDE06940F40010E06176
:10086000E06900F40010049006B010BD0054004090
:1008700000100240000C01400248816802781144D7
:10088000816070475C000020074810B5016841F0A6
:1008900010010160032000F075F8002000F006F858
:1008A00000F024F8002010BD0020024070B50D4D6E
:1008B00004464FF47A712878B1FBF0F00A490968D0
:1008C000B1FBF0F000F0ECFA48B9102C07D200228E
:1008D0002146501E00F036F800206C6070BD0120EB
:1008E00070BD00005C000020680000200C4808B5C6
:1008F000816941F001018161816901F0010100918B
:10090000C16941F08051C161C06900F08050009020
:100910000448416821F0E06141F00071416008BD88
:100920000010024000000140002809DB00F01F0217
:10093000012191404009800000F1E020C0F8001141
:1009400070470000F0B40E4B1B680C46C3F3022343
:10095000C3F10705042D00D90425191D072901D26B
:10096000002300E0DB1E012606FA05F1491E2140A6
:1009700099409E40761E16403143F0BC01F054B8B9
:100980000CED00E0064900F0070208684FF6FF038F
:10099000184040EA0220034A1043086070470000F4
:1009A0000CED00E00000FA052DE9F0470F460500C8
:1009B00061D0434E306800F00700B84209D2306879
:1009C00020F0070038433060306800F00700B8427C
:1009D00051D128683B4C810712D5400703D5606888
:1009E00040F4E06060602878000703D5606840F458
:1009F000605060606068A96820F0F00008436060A3
:100A00002878C00728D06868012810D021680228FB
:100A100010D0890700292EDA616821F00301014313
:100A20006160FFF799FD804641F288390DE0216849
:100A30008903EFE78901EDE7FFF78EFDA0EB0801E1
:100A4000494502D90320BDE8F0876068696800F075
:100A50000C00B0EB810FEFD1306800F00700B84216
:100A60000BD9306820F0070038433060306800F060
:100A70000700B84201D00120E5E72878400705D5F6
:100A80006068E96820F4E060084360602878000747
:100A900006D56068296920F4605040EAC1006060B2
:100AA00000F038F86168084AC1F30311515CC8408E
:100AB0000649086006480068FFF7F8FE0020C2E714
:100AC0000020024000100240583800086800002052
:100AD000600000200448054900684968044AC1F3E1
:100AE0000221515CC840704768000020001002409D
:100AF000683800080448054900684968044AC1F399
:100B0000C221515CC84070476800002000100240BC
:100B10006838000812A185B00FC98DE80F0014A035
:100B2000144A006804905168134801F00C03042B28
:100B300010D0082B0ED1C1F38343C9031DF8030065
:100B40000AD5516804AAC1F34041515C0A4A504396
:100B5000B0FBF1F005B0704708494843FAE70000E0
:100B600002030405060708090A0B0C0D0E0F1010EE
:100B7000010200000010024000127A0000093D004E
:100B80002DE9F84F040070D02078C04DC00749D03F
:100B90006868C0F38100012807D06868C0F381004D
:100BA000022809D16868C00306D52868800339D5B2
:100BB00060680028E7D035E06068B0F5803F0BD072
:100BC00010B1B0F5A02F11D0286820F48030286033
:100BD000286820F4802002E0286840F480302860F3
:100BE000606890B1FFF7B8FC06460AE0286840F458
:100BF00080202860F0E700BFFFF7AEFC801B642870
:100C000073D828688003F7D50CE0FFF7A5FC0646EB
:100C100005E000BFFFF7A0FC801B6428F0D828681F
:100C20008003F7D420789A4E80074FF001094FF0E7
:100C3000000839D5686810F00C0F07D06868C0F359
:100C40008100022809D16868C00306D4286880079B
:100C500014D52069012808D110E02069B0B1C6F888
:100C60000090FFF779FC074605E00AE1FFF774FC06
:100C7000C01B0228C4D828688007F7D52868616996
:100C800020F0F80040EAC10028600DE0C6F80080BE
:100C9000FFF762FC074604E0FFF75EFCC01B02287A
:100CA00023D828688007F7D4207800072CD5794806
:100CB000A169D9B1C0F80090FFF74EFC074604E0E7
:100CC000FFF74AFCC01B02280FD8686A8007F7D5D7
:100CD00071484FF4FA510068B0FBF1F0009000BF8A
:100CE0000098411E0091FAD20EE080E0C0F800802A
:100CF000FFF732FC074604E0FFF72EFCC01B02287A
:100D000075D8686A8007F7D42078400760D5E8690D
:100D10000027C00008D4E86940F08050E861E86925
:100D2000012700F0805000905C480168C90513D489
:100D30000168834641F480710160FFF70DFC824633
:100D400006E000BFFFF708FCA0EB0A0064284ED8BD
:100D5000DBF80000C005F5D5E06801280AD008B12D
:100D6000052813D0286A20F001002862286A20F0A4
:100D7000040002E0286A40F001002862E06841F2C5
:100D8000883B98B1FFF7E8FB82460BE0286A40F009
:100D900004002862EEE700BFFFF7DEFBA0EB0A01CC
:100DA00059455AD8286A8007F6D50CE0FFF7D4FBDE
:100DB000824605E0FFF7D0FBA0EB0A0159454CD86D
:100DC000286A8007F6D41FB1E86920F08050E861F6
:100DD000E06988B36968C1F38101022944D002281F
:100DE000C6F8608004D0FFF7B7FB044638E034E073
:100DF000FFF7B2FB074604E0FFF7AEFBC01B02287B
:100E00002BD828688001F7D4206AB0F5803F05D13F
:100E10006868A16820F4003008436860D4E90801DC
:100E20000843696821F4741108436860C6F860904B
:100E3000FFF792FB044606E025E000BFFFF78CFBBE
:100E4000001B022809D828688001F7D51BE000BFE5
:100E5000FFF782FB001B022802D90320BDE8F88FB0
:100E600028688001F4D40EE00128F7D06868226A6F
:100E700000F48031914204D1616A00F4701088421C
:100E800001D00120EAE70020E8E70000001002405E
:100E9000000042428004424268000020007000408E
:100EA00010B5401EB0F1807F01D3012010BD4FF07E
:100EB000E02460610F21601700F0B6FD0020A06102
:100EC00007202061002010BD70477047F8B5026808
:100ED00004461068D168536910F00F0F4FF00005F9
:100EE00054D003F0010601F4907737435FD0C20776
:100EF00005D0CA0503D5226C42F0010222644207E4
:100F000005D5DA0703D0226C42F002022264820780
:100F100005D5DA0703D0226C42F0040222640207EE
:100F200007D501F02002324303D0226C42F00802C0
:100F30002264226C002A35D0800604D5880602D5AA
:100F4000204600F07BFC20684069216CC0F38010D3
:100F500001F008010143204625D000F057FC20682D
:100F6000416949061BD5416921F040014161A06BEF
:100F7000A8B158494163A06BFFF742F9002811D08E
:100F8000A06B416B01B0BDE8F040084783060ED569
:100F90008B060CD52046BDE8F84000F04FBC20463B
:100FA000FFF793FFF8BDFFF790FF2564F8BD266BB0
:100FB0002023012E52D1C60650D5CE064ED510683C
:100FC00050680090506940062AD5A16B08684068B7
:100FD0000004000CEAD0A68D8642E7D9E085886936
:100FE000202818D0D06820F48070D0602068416933
:100FF00021F0010141612068416921F04001416116
:1010000084F83E3025632068C16821F01001C1607A
:10101000A06BFFF7D1F8A08DE18D401A81B219E0E5
:10102000A08DE18D401A81B2E08D0028BED000294C
:10103000BCD0D06820F49070D0602068426922F063
:101040000102426184F83E3025632068C26822F0C4
:101050001002C2602046FFF737FFF8BD05062BD50A
:101060000D0629D594F83D002128F6D1A068B0F5E9
:10107000805F01D12069B0B1206A411C21622168E2
:1010800000784860E08C401E0004000CE084E4D14D
:101090002068C16821F08001C1602068C16841F00A
:1010A0004001C160F8BD206A0088C0F308005060AC
:1010B000206A801C2062E5E74006F3D54806F1D59A
:1010C000D168204621F04001D16084F83D3000F025
:1010D0009BF8F8BDFD17000870B5040004D094F823
:1010E0003D00002510B106E0012070BD84F83C50A1
:1010F000204600F023F8242084F83D002068C168D1
:1011000021F40051C160204600F0F4FB2068016921
:1011100021F4904101612068416921F02A01416177
:101120002068C16841F40051C1602564202084F822
:101130003D0084F83E00002070BD000030B585B051
:101140000024009401940294039400681849884292
:101150002CD11848816941F480418161816901F491
:1011600080410491816941F0040181618069124DDF
:1011700000F0040004904FF40070009002200190F1
:101180000320039069462846FFF7E4F82815CDE9C7
:101190000004694628460294FFF7DCF80022114655
:1011A0002520FFF7CFFB2520FFF7BEFB05B030BDA4
:1011B00000380140001002400008014090F83E3025
:1011C000202B0ED159B152B190F83C30012B08D0F0
:1011D000012380F83C300023036300F0E7BB0120CB
:1011E000704702207047000000680449884204D11B
:1011F000012203490348FFF7E1BF7047003801406F
:1012000021000020C00000207047FEE701684A6905
:10121000D24352050FD46FF480624A61002140F836
:10122000301F202242738173026942F0040202617E
:101230000173012070470020704700002DE9F8433A
:10124000044600680D46DDE9089701689846164691
:1012500041F4807101604B4600224FF0011120469D
:10126000009700F065F848B120680068C00502D515
:101270004FF4007020640320BDE8F883216805F076
:10128000FE0008613B464A461549204600F084F8B6
:1012900088B920684169806900903A4649462046ED
:1012A00000F0C5F848B1206C042804D1206801681A
:1012B00041F4007101600120DEE7F5B2B8F1010FE1
:1012C00009D02168300A08613A464946204600F0B4
:1012D000AEF80028E7D1206805610020CCE70000C7
:1012E0000200010070B516460D4604460DE020468A
:1012F000FFF78CFF08B1012070BD681C05D0FFF717
:101300002BF9801BA84207D835B120684069C0433B
:101310004007ECD4002070BD002044F8300F20219D
:101320006173A073216941F0200121612073E2E71C
:101330002DE9F0471E4690460D460446C1F3074787
:10134000DDF8209008E0701C06D0FFF705F9A0EB4F
:101350000900B0420FD876B12068012F18D08069FB
:1013600025EA00000004000C14D000214145EAD019
:101370000020BDE8F087002044F8300F2021617381
:10138000A073216941F02001216120730120F0E761
:101390004069E5E70121E9E72DE9F0479A469146E2
:1013A0000E46044600254FF02008C1F3074725E00C
:1013B00020684069C043400514D42068016841F4A6
:1013C0000071016021686FF480604861256384F8D2
:1013D0003D8084F83E50206C40F00400206484F886
:1013E0003C501FE0B9F1FF3F08D0FFF7B5F8A0EB84
:1013F0000A0149450CD8B9F1000F09D02068012F26
:1014000013D0806926EA00000004000C0BD0CFE75F
:1014100044F8305F84F80D80A573206940F0200007
:10142000206125730120BDE8F0874069EAE770B5C7
:1014300016460D4604460DE02046FFF7E7FE08B1CC
:10144000012070BD681C05D0FFF786F8801BA842FC
:1014500007D835B120684069C0430006ECD40020AD
:1014600070BD002044F8300F20216173A073216902
:1014700041F0200121612073E2E7000070B52021D6
:101480000F48FFF763F80F4DA5F10C0430B9207831
:1014900005EBC0004078207000F094F84FF4004154
:1014A0000948FFF753F8002808D1207805EBC00061
:1014B00080782070BDE8704000F084B870BD0000F6
:1014C000001001402C0000200008014030B585B01C
:1014D00000241A4801940394816941F0200181613C
:1014E000816901F020010491816941F0100181615D
:1014F000816901F010010491816941F00401816169
:10150000816901F004010491816941F00801816160
:101510008069012500F008000490202000906946B1
:1015200002950748FEF716FFE8038DE8310069468B
:101530000448FEF70FFF05B030BD00000010024068
:1015400000100140000801400D4810B50B49016032
:101550000C49416000214FF480428160C0E90312D0
:1015600041618161C1610162FEF7FCFF002803D087
:10157000BDE81040FEF71EBE10BD00000054004044
:101580006C000020A08601000C4810B50A490160DB
:101590004FF416514160002181600C22C160C0E906
:1015A00004128161C161FFF797FD002803D0BDE8F7
:1015B0001040FEF7FFBD10BD00380140C000002004
:1015C000FEE7FEE770B5002404F1B000C0B200F001
:1015D000BDF8002000F0BAF8102000F0B7F80025A0
:1015E000002000F0C5F86D1CEDB2802DF8D3641C0E
:1015F000E4B2082CE8D370BD10B58D2000F0A6F839
:10160000142000F0A3F8BDE81040AF2000F09EB811
:101610002DE9F04782460C460E4908989946174630
:10162000002601EB802810E02146504600F01CF80F
:10163000554606E018F80600761C00F099F86D1C77
:10164000EDB2BD42F6D3641CE4B24C45ECD3BDE828
:10165000F08700005824000810B5C820FEF768FE87
:10166000BDE8104000F0C6B910B50446B031C8B2AC
:1016700000F06CF8102040EA141000F067F804F055
:101680000F00BDE8104000F061B800002DE9F04106
:10169000203A00240D468046D6B27F2803D9002088
:1016A0008D1C8046EDB2102B29460FD0FFF7DCFFD2
:1016B000164906EB460001EB4005285D00F058F89E
:1016C000641CE4B2062CF8D3BDE8F081FFF7CCFF30
:1016D0000F4F00BF04EB0610385C00F049F8641CA3
:1016E000E4B2082CF6D36D1CE9B24046FFF7BCFF0C
:1016F0005FF0000404EB06103844007A00F038F87C
:10170000641CE4B2082CF5D3DEE70000401C00089E
:10171000681E00082DE9F041984617460E4604461B
:1017200000250DE0434631462046FFF7AFFF083461
:10173000E4B2782C02D90024B61CF6B26D1CEDB2CE
:101740007A5D002AEED1BDE8F081000001B584B0D9
:1017500001214FF4807204A88DE807000B46002297
:1017600078210248FEF7C2FF05B000BD6C000020E2
:1017700001B584B001214FF4807204A88DE8070000
:101780000B46402278210248FEF7B0FF05B000BDAD
:101790006C00002070477047FFF76EB830B58FB00F
:1017A00028216846FEF7E7FC14210AA8FEF7E3FCAF
:1017B00001210804CDE900100024029402250491BF
:1017C000CDE907504FF4E01009906846FFF7D8F9CB
:1017D00008B172B6FEE70F20CDE90A054FF480602C
:1017E000CDE90C4002210AA80E94FFF7DDF800288D
:1017F00001D072B6FEE70FB030BD704710B5406A39
:101800000021C185C184FFF760FB10BD0168CA6873
:1018100022F49072CA6001684A6922F001024A61AA
:10182000016B012904D10168CA6822F01002CA6064
:10183000202180F83E1000210163704708B590F820
:101840003E10222901D0022008BD82684FF4805347
:101850009A4201D1016921B1816A9A421BD04AB1F1
:101860000AE00268816A5268C2F308020A80816A4B
:10187000891C08E0026972B10268526802F07F02B6
:101880000A70816A491C8162C18D491E0904090CD4
:10189000C18503D019E002685268F1E70168CA689F
:1018A00022F02002CA600168CA6822F48072CA600D
:1018B00001684A6922F001024A61202180F83E1045
:1018C000016B012903D0FFF78FFC002008BD002128
:1018D00001630168CA6822F01002CA6001680A68E0
:1018E000D20602D50A6849680091818DFFF7ECFAAB
:1018F000EBE7000070B5044600680169E26821F476
:101900004051114301612169A0680843616908439E
:101910002168CA6841F20C639A430243CA60206896
:101920004169A26921F44071114341611E49206857
:10193000884202D1FFF7DEF801E0FFF7CBF800EBB9
:10194000C00101EB0012606864218000B2FBF0F37B
:10195000B3FBF1F36FF018067343B2FBF0F5B2FB83
:10196000F0F605EB8305322303EB0515B5FBF1F526
:10197000B6FBF1F605F0F00505EB0615B2FBF0F647
:10198000B2FBF0F0B0FBF1F06FF01802504306EB41
:10199000800003EB0010B0FBF1F0216800F00F00B5
:1019A0002844886070BD0000003801408162828553
:1019B000C28500210164222280F83E2080F83C107C
:1019C0000168CA6842F48072CA6001684A6942F0DC
:1019D00001024A610068C16841F02001C160002035
:1019E000704700000148FFF771BA0000C0000020F6
:1019F000FEE70000FEB50024094F4FF48075012674
:101A00003819CDE900060123002278210295054806
:101A1000FEF76CFE641CE4B21B2CF1D3FEBD00008B
:101A2000040000206C0000200907090E002804DBD8
:101A300000F1E02080F80014704700F00F0000F182
:101A4000E02080F8141D704702E008C8121F08C18A
:101A5000002AFAD170477047002001E001C1121F2F
:101A6000002AFBD17047000010B5102306A2022106
:101A70000420FFF74FFE10230521BDE8104004A20B
:101A80000420FFF747BE00002A73706565640000FC
:101A900020626C7565746F6F7468000010B5102358
:101AA00006A202210420FFF735FE10230521BDE820
:101AB000104004A20420FFF72DBE000020737065C3
:101AC000656400002A626C7565746F6F746800004D
:101AD00010B5102306A202210420FFF71BFE1023DD
:101AE0000521BDE8104005A20420FFF713BE000049
:101AF0002A7370656564203D20300000206C61739E
:101B0000747061676500000010B5102306A2022101
:101B10000420FFF7FFFD10230521BDE8104005A2BA
:101B20000420FFF7F7BD0000207370656564203D59
:101B3000203000002A6C61737470616765000000DA
:101B400010B5102306A202210420FFF7E3FD1023A5
:101B50000521BDE8104005A20420FFF7DBBD000011
:101B60002A626C756573746172740000206C617315
:101B7000747061676500000010B5102306A2022191
:101B80000420FFF7C7FD10230521BDE8104005A282
:101B90000420FFF7BFBD000020626C75657374619F
:101BA000727400002A6C61737470616765000000D4
:101BB00008B5FEF769FEFFF7F1FDFFF787FCFFF7B9
:101BC000C3FCFFF7E1FCFFF747FDFFF715FDFFF74B
:101BD000F9FC002608238022314630460096FFF7A4
:101BE00017FD4FF47A70FEF7A3FBFFF7EBFC012221
:101BF00011491248FFF7E2FA0F4C0125641E04F167
:101C00000C0760786D280DD06E280ED06B2810D090
:101C10006660FFF733FC207807EBC0004068A060E7
:101C20008047EEE7FFF720FF01E0FFF751FF656017
:101C3000E7E7FFF785FFFAE721000020C00000205A
:101C40000000000000000000002F0000000007005E
:101C5000070000147F147F1400242A7F2A120062D8
:101C60006408132300364955225000000503000084
:101C700000001C224100000041221C000014083E0C
:101C800008140008083E0808000000A060000008D2
:101C90000808080800006060000000201008040226
:101CA000003E5149453E0000427F400000426151E4
:101CB0004946002141454B31001814127F1000277E
:101CC00045454539003C4A49493000017109050341
:101CD00000364949493600064949291E0000363672
:101CE00000000000563600000008142241000014D5
:101CF00014141414000041221408000201510906B2
:101D000000324959513E007C1211127C007F494932
:101D10004936003E41414122007F4141221C007F63
:101D200049494941007F09090901003E4149497A71
:101D3000007F0808087F0000417F410000204041EB
:101D40003F01007F08142241007F40404040007F57
:101D5000020C027F007F0408107F003E4141413E9B
:101D6000007F09090906003E4151215E007F0919E3
:101D700029460046494949310001017F0101003FE0
:101D80004040403F001F2040201F003F4038403F60
:101D900000631408146300070870080700615149C4
:101DA000454300007F41410000552A552A55000057
:101DB00041417F00000402010204004040404040D5
:101DC000000001020400002054545478007F48446D
:101DD000443800384444442000384444487F0038A4
:101DE0005454541800087E0901020018A4A4A47CCD
:101DF000007F080404780000447D40000040808497
:101E00007D00007F102844000000417F4000007CDE
:101E100004180478007C08040478003844444438EA
:101E200000FC242424180018242418FC007C080436
:101E3000040800485454542000043F444020003C0F
:101E40004040207C001C2040201C003C4030403C96
:101E5000004428102844001CA0A0A07C0044645426
:101E60004C4414141414141400000000000000006A
:101E70000000000000000000000000F8000000006A
:101E8000000000333000000000100C06100C0600AB
:101E9000000000000000000040C07840C078400012
:101EA000043F04043F040400007088FC0830000074
:101EB000001820FF211E0000F008F000E0180000CC
:101EC00000211C031E211E0000F008887000000085
:101ED0001E2123241927211010160E0000000000D7
:101EE0000000000000000000000000E018040200F4
:101EF000000000071820400000020418E000000065
:101F00000040201807000000404080F08040400062
:101F10000202010F01020200000000F000000000B8
:101F20000101011F0101010000000000000000008C
:101F300080B0700000000000000000000000000001
:101F4000000101010101010100000000000000008A
:101F50000030300000000000000000008060180425
:101F6000006018060100000000E010080810E00002
:101F7000000F102020100F00001010F800000000CB
:101F80000020203F20200000007008080888700012
:101F90000030282422213000003008888848300092
:101FA0000018202020110E000000C02010F80000B2
:101FB00000070424243F240000F80888880808004B
:101FC0000019212020110E0000E010888818000060
:101FD000000F112020110E0000380808C838080032
:101FE0000000003F000000000070880808887000B2
:101FF000001C222121221C0000E010080810E00033
:102000000000312222110F00000000C0C0000000BB
:1020100000000030300000000000008000000000E0
:1020200000008060000000000000804020100800D8
:1020300000010204081020004040404040404000A1
:10204000040404040404040000081020408000007C
:102050000020100804020100007048080808F00081
:102060000000003036010000C030C828E810E00051
:102070000718272423140B000000C038E0000000DC
:10208000203C23020227382008F888888870000046
:10209000203F202020110E00C0300808080838001A
:1020A000071820202010080008F808080810E00091
:1020B000203F202020100F0008F88888E808100032
:1020C000203F20202320180008F88888E808100006
:1020D000203F200003000000C0300808083800003E
:1020E00007182020221E020008F808000008F8083F
:1020F000203F210101213F20000808F808080000C6
:102100000020203F2020000000000808F8080800F8
:10211000C08080807F00000008F888C02818080070
:10212000203F20012638200008F8080000000000A9
:10213000203F20202020300008F8F800F8F80800A0
:10214000203F003F003F200008F830C00008F8089A
:10215000203F200007183F00E01008080810E000AA
:102160000F10202020100F0008F808080808F000C1
:10217000203F210101010000E01008080810E000E4
:102180000F18242438504F0008F888888888700079
:10219000203F2000030C3020007088080808380019
:1021A0000038202121221C00180808F8080818000F
:1021B0000000203F2000000008F808000008F80890
:1021C000001F202020201F000878880000C8380841
:1021D000000007380E010000F80800F80008F800B9
:1021E000033C0700073C0300081868808068180853
:1021F00020302C03032C30200838C800C8380800D1
:102200000000203F2000000010080808C83808001F
:102210002038262120201800000000FE02020200C3
:102220000000007F40404000000C30C00000000073
:10223000000000010638C00000020202FE0000009B
:10224000004040407F000000000004020202040041
:10225000000000000000000000000000000000007E
:102260008080808080808080000202040000000066
:10227000000000000000000000008080808000005E
:102280000019242222223F2008F80080800000004C
:10229000003F112020110E0000000080808000000F
:1022A000000E112020201100000000808088F8001E
:1022B000000E112020103F20000080808080000050
:1022C000001F222222221300008080F088888818B4
:1022D0000020203F202000000000808080808000BF
:1022E000006B94949493600008F800808080000054
:1022F000203F210000203F2000809898000000002F
:102300000020203F2020000000000080989800005E
:1023100000C08080807F000008F80000808080007E
:10232000203F24022D302000000808F800000000A3
:102330000020203F2020000080808080808080005E
:10234000203F20003F20003F8080008080800000F0
:10235000203F210000203F2000008080808000007E
:10236000001F202020201F008080008080000000AF
:1023700080FFA12020110E000000008080808000DE
:10238000000E112020A0FF808080800080808000CF
:1023900020203F21200001000000808080808000FC
:1023A0000033242424241900008080E08080000071
:1023B0000000001F202000008080000000808000BE
:1023C000001F202020103F2080808000008080801F
:1023D00000010E30080601008080008000808080AF
:1023E0000F300C030C300F000080800080808000D4
:1023F0000020312E0E3120008080800000808080FF
:1024000080818E70180601000080808080808000AE
:102410000021302C2221300000000000807C0202CC
:1024200000000000003F404000000000FF000000EE
:1024300000000000FF0000000002027C800000009D
:102440000040403F000000000006010102020404B9
:10245000000000000000000000000000000000007C
:10246000000000000000000000000000000000006C
:10247000000000000000000000000000000000005C
:10248000000000000000000000000000000000004C
:10249000000000000000000000000000000000003C
:1024A000000000000000000000000000000000002C
:1024B000000000000000000000000000000000001C
:1024C000000000000000000000000000000000000C
:1024D00000000000000000000000000000000000FC
:1024E00000000000000000000000000000000000EC
:1024F00000000000000000000000000000000000DC
:1025000000000000000000000000000000000000CB
:1025100000000000000000000000000000000000BB
:1025200000000000000000000000000000000000AB
:10253000000000000000000000000000000000009B
:10254000000000000000000000000000000000008B
:10255000000000000000000000000000000000007B
:10256000000000000000000000000000000000006B
:10257000000000000000000000000000000000005B
:10258000000000000000000000000000000000004B
:10259000000000000000000000000000000000003B
:1025A000000000000000000000000000000000002B
:1025B000000000000000000000000000000000001B
:1025C000000000000000000000000000000000000B
:1025D00000000000000000000000000000000000FB
:1025E00000000000000000E0F87C0E02020202067B
:1025F0000E18000002FEFE020000000202FE0200B1
:102600000000000202FEFEFE0202000000001E06A4
:102610000202FEFE0202020E0C000000000000009A
:1026200000000000000000000000000000000000AA
:10263000000000000000000000000000000000009A
:10264000000000000000000000000000000000008A
:10265000000000000000000000000000000000007A
:10266000000000000000003FFFF08000000000803C
:10267000E020000000FFFF8000000080C03F00005D
:102680000000000000FFFFFF00000000000000004D
:102690000000FFFF0000000000000000000000003C
:1026A000000000000000000000000000000000002A
:1026B000000000000000000000000000000000001A
:1026C000000000000000000000000000000000000A
:1026D00000000000000000000000000000000000FA
:1026E00000000000000000000000010101010101E4
:1026F00000000000000001010101010100000000D4
:1027000000000001010101010101000000000000C2
:1027100000010101010100000000000000000000B4
:1027200000000000000000000000000000000000A9
:102730000000000000000000000000000000000099
:102740000000000000000000000000000000000089
:102750000000000000000000000000000000000079
:102760000000000000000000000000000000000069
:102770000000000000000000000000000000000059
:102780000000000000000000000000000000000049
:102790000000000000000000000000000000000039
:1027A0000000000000000000000000000000000029
:1027B0000000000000000000000000000000000019
:1027C0000000000000000000000000000000000009
:1027D00000000000000000000000000000000000F9
:1027E00000000000000000000000000000000000E9
:1027F00000000000000000000000000000000000D9
:1028000000000000000000000000000000000000C8
:1028100000000000000000000000000000000000B8
:1028200000000000000000000000000000000000A8
:102830000000000000000000000000000000000098
:102840000000000000000000000000000000000088
:1028500000000000000000000003050911FF1189BD
:1028600005C300E000F000F8000000000000004494
:1028700028FF11AA44000000000000000000000032
:102880000000000000000000000000000000000048
:102890000000000000000000000000000000000038
:1028A0000000000000000000000000000000000028
:1028B000000083013844829292740183000000007A
:1028C0000000007C44FF017D7D7D7D017D7D7D7D5F
:1028D000017D7D7D7D01FF00000000000001000101
:1028E00000010001000100010000000000000000E4
:1028F00000010100000000000000000000000000D6
:1029000000000000000000000000000000000000C7
:1029100000000000000000000000000000000000B7
:1029200000000000000000000000000000000000A7
:102930000000010100000000000001010000000093
:10294000000000000001010101010101010101017C
:102950000101010101010100000000000000000070
:102960000000000000000000000000000000000067
:1029700000000000000000F8080808080808080027
:10298000F8186080000000806018F8000000202027
:10299000F8000000000000E0100808080810E0003F
:1029A00000002020F80000000000000000000000EF
:1029B00000080808080888681800000000000000E7
:1029C0000000000000000000000000000000000007
:1029D00000000000000000000000000000000000F7
:1029E00000000000000000000000000000000000E7
:1029F000000000000000007F010101010101000052
:102A00007F0000010618060100007F000000404022
:102A10007F4040000000001F2040404040201F0039
:102A2000000040407F4040000000000060000000C7
:102A30000000006018060100000000000000000017
:102A40000000000000000000000000000000000086
:102A50000000000000000000000000000000000076
:102A60000000000000000000000000000000000066
:102A700000000000000000000000000000402020D6
:102A800020C00000E0202020E000000040E0000026
:102A9000000060202020E00000000000E020202056
:102AA000E0000000000040202020C0000040202066
:102AB00020C0000000000000000000000000000036
:102AC0000000000000000000000000000000000006
:102AD00000000000000000000000000000000000F6
:102AE00000000000000000000000000000000000E6
:102AF000000000000000000000000000000C0A0AB6
:102B0000090C00000F0808080F000000080F08005B
:102B100000000C0809090E00000C00000F0909094B
:102B20000F00000C00000C0A0A090C00000C0A0A35
:102B3000090C000000000000000000000000000080
:102B40000000000000000000000000000000000085
:102B50000000000000000000000000000000000075
:102B60000000000000000000000000000000000065
:102B70000000000000000000000000000000000055
:102B80000000000000000000000000000000000045
:102B90000000000080808080808080800000000035
:102BA0000000000000000000000000000000000025
:102BB0000000000000000000000000000000000015
:102BC0000000000000000000000000000000000005
:102BD0000000000000000000007F030C300C037FA9
:102BE00000003854545800007C04047800003C4035
:102BF000407C000000000000000000000000000019
:102C000000000000000000000000000000000000C4
:102C100000000000FFAAAAAA280800FF0000000088
:102C200000000000000000000000000000000000A4
:102C30000000000000000000000000000000000094
:102C4000007F030C300C037F000026494949320005
:102C5000007F020408107F00000000000000000058
:102C60000000000000000000000000000000000064
:102C70000000000000000000000000000000000054
:102C80000000000000000000000000000000000044
:102C90000000000000000000000000000000000034
:103860000102030406070809000000000102030426
:1038700090380008000000206C000000481A000882
:10388000FC3800086C0000209C040000581A000856
:1038900000000000AE001040B081FFA1A6A83FC804
:1038A000D300D580D805D9F1DA12D8308D14AF0005
:1038B0000000000000000000000000000001020005
:1038C000691A0008010004009D1A000802030200A2
:1038D000D11A000803020000091B000804050400B7
:1038E000411B000805040000791B000801000000CE
:0C38F00010000000000000000024F400A4
:0400000508000131BD
:00000001FF
