:020000040800F2
:10000000B0040020450100087B120008530F0008CF
:1000100079120008530200080114000800000000D3
:100020000000000000000000000000007F12000837
:1000300055020008000000007D120008811200082F
:100040005F0100085F0100085F0100085F01000810
:100050005F0100085F0100085F0100085F01000800
:100060005F0100085F0100085F0100085F010008F0
:100070005F0100085F0100085F0100085F010008E0
:100080005F0100085F0100085F0100085F010008D0
:100090005F0100085F0100085F0100085F010008C0
:1000A0005F0100085F0100085F0100085F010008B0
:1000B0005F0100085F0100085F0100085F010008A0
:1000C0005F0100085F0100085F0100085F01000890
:1000D0005F0100085F0100085F0100085F01000880
:1000E0005F0100085F0100085F0100085F01000870
:1000F0005F0100085F0100085F0100085F01000860
:100100005F0100085F0100085F0100085F0100084F
:100110005F0100085F0100085F0100085F0100083F
:100120005F0100085F0100085F0100085F0100082F
:10013000DFF80CD000F06CF800480047E118000828
:10014000B00400200648804706480047FEE7FEE767
:10015000FEE7FEE7FEE7FEE7FEE7FEE7FEE7FEE777
:10016000E312000831010008202A04DB203A21FABA
:1001700002F00021704721FA02F3D040C2F12002C0
:100180009140084319467047D2B201E000F8012BB4
:10019000491EFBD270470022F6E710B513460A4607
:1001A00004461946FFF7F0FF204610BD2DE9F05F29
:1001B0000546002092469B468846064681464024D6
:1001C0001BE02846414647462246FFF7CDFF5346EF
:1001D0005A46C01A914110D311461846224600F0E3
:1001E00029F82D1A67EB01084F462246012000210D
:1001F00000F020F817EB00094E41201EA4F1010485
:10020000DFDC484631462A464346BDE8F09F000001
:10021000064C074D06E0E06840F0010394E8070053
:1002200098471034AC42F6D3FFF786FFB0190008A8
:10023000D0190008202A04DB203A00FA02F100203D
:1002400070479140C2F1200320FA03F31943904014
:100250007047FEE7704772B6FEE7000070B50446CF
:1002600000F00AF90546601C02D0044800780444F6
:1002700000F002F9401BA042FAD370BD0400002038
:100280002DE9F84FDFF8C891002409F1040A0AF1BA
:10029000040B23460F270BF1040ED1E00125A540E6
:1002A00006EA0502AA4276D1DFF8A8C14E68A6EB9D
:1002B0000C0866452BD00DDC032E34D005DC36B39C
:1002C000012E19D0022E2FD11BE0112E16D0122E86
:1002D0002AD119E0B8F5881F19D006DCB8F5803F9F
:1002E00015D0B8F5801F1FD111E0B8F5001F0ED052
:1002F000B8F5041F18D10AE0CB6815E0CB681B1DC8
:1003000012E0CB6808330FE0CB680C330CE08B684D
:100310002BB1012B4FF0080303D0456104E0042307
:1003200002E0056100E00023FF2A01D8064601E053
:1003300000F104064FEA840501D9A5F12005D6F89D
:10034000008007FA05FC28EA0C0803FA05F548EADC
:100350000508C6F800804D68ED0070D53E4DAE69C9
:1003600046F00106AE61AD6924F0030605F0010513
:1003700000953A4D06EB050CDCF80850A607360F41
:1003800007FA06F825EA0805DFF8D480404503D1CE
:100390004FF0000825E052E0DFF8C880404502D168
:1003A0004FF001081DE0DFF8C080404502D14FF05A
:1003B000020816E0DFF8B480404502D14FF0030890
:1003C0000FE0DFF8AC80404502D14FF0040808E0B0
:1003D000DFF8A080404502D14FF0050801E04FF062
:1003E000060808FA06F848EA0508CCF808804D68BF
:1003F000D9F80060ED034D4601D5164300E0964361
:100400002E604D68DAF80060AD03554601D51643FD
:1004100000E096432E604D68DBF80060ED025D461B
:1004200001D5164300E096432E604D68DEF800606B
:10043000AD02754601D5164300E096432E60641C5C
:100440000A681646E2407FF429AFBDE8F88F000045
:1004500000040140000011100010024000000140A3
:1004600000080140000C0140001001400014014050
:1004700000180140001C01400148806870470000DE
:100480000400002070B5040025D094F83D0000253C
:1004900020B984F83C50204600F050F9242084F81C
:1004A0003D002068016821F00101016020680168B9
:1004B00041F4004101602068016821F400410160BD
:1004C00000F08AFA4D4A6168914201D84C4900E037
:1004D0004C49884201D2012070BD4B492368B0FBD2
:1004E000F1F15E6826F03F060E435E60636893425A
:1004F00006D94FF4967359434FF47A73B1FBF3F175
:100500002368491C1E6A26F03F0631431962616860
:10051000914210D84900401EB0FBF1F2521CC2F3C8
:100520000B02042A01D2042022E0B0FBF1F0401CAF
:10053000C0F30B001CE0A268F2B301EBC10303EBB4
:100540000116431EB3FBF6F35B1C43F480431B050B
:1005500049D092B301EBC10202EB0111401EB0FB86
:10056000F1F0401CC0F30B0040F4804040F4004028
:100570002168CA694CF6FF739A431043C861D4E9F5
:10058000071001432068026822F0C0021143016095
:10059000D4E9030101432068826848F2FF339A439B
:1005A00011438160D4E9050108432168CA6822F03B
:1005B000FF021043C86001E00EE016E02068016809
:1005C00041F0010101602564202084F83D0025638D
:1005D00084F83E50002070BD01EB4106431EB3FB82
:1005E000F6F35B1CB3E70120C2E701EB4101401EBB
:1005F000B0FBF1F0401CC0F30B00B7E7A086010090
:1006000080841E0000093D0040420F002DE9FF4F8D
:1006100083B09A46DDE9119793460446DDF84080A1
:10062000FFF72AFF054694F83D0020287FD11923C3
:10063000012240492046009500F01EFD002876D199
:1006400094F83C00012872D0012084F83C00206816
:100650000168C90703D1016841F001010160206808
:10066000016821F400610160212084F83D004020F0
:1006700084F83E0000262664C4F82480A4F82A905A
:10068000608D20852C48E062CDE9007553465A46BE
:100690002046049900F076FC70B930E02A463946CD
:1006A000204600F068FD58B1206C042804D1206871
:1006B000016841F400710160012007B0BDE8F08FCE
:1006C000606A216800780861606A401C6062218D60
:1006D000491E89B22185628D521E62852268536946
:1006E000DB435B070BD469B100781061606A401C82
:1006F0006062208D401E2085608D401E6085208DAB
:100700000028CBD12A463946204600F08FFC00282D
:10071000CAD154F83D0B016841F4007101602020FA
:1007200004F81E09E67766770020C6E7FFE7022097
:10073000C3E70000020010000000FFFF00B585B015
:100740000021009101910291039100680F498842B4
:100750001AD10F48816941F008018161816901F076
:1007600008010491C16941F40011C161C069694681
:1007700000F400100490C02000901220019003208B
:1007800003900448FFF77CFD05B000BD0054004015
:1007900000100240000C01400248816802781144B8
:1007A0008160704704000020074810B5016841F0DF
:1007B00010010160032000F067F8002000F006F847
:1007C00000F024F8002010BD0020024070B50D4D4F
:1007D00004464FF47A712878B1FBF0F00A490968B1
:1007E000B1FBF0F000F0DEFA48B9102C07D200227D
:1007F0002146501E00F028F800206C6070BD0120DA
:1008000070BD000004000020100000200C4808B556
:10081000816941F001018161816901F0010100916B
:10082000C16941F08051C161C06900F08050009001
:100830000448416821F0E06141F00071416008BD69
:100840000010024000000140F0B40E4B1B680C4643
:10085000C3F30223C3F10705042D00D90425191D94
:10086000072901D2002300E0DB1E012606FA05F16C
:10087000491E214099409E40761E16403143F0BCEF
:1008800000F0D0BD0CED00E0064900F0070208685A
:100890004FF6FF03184040EA0220034A1043086065
:1008A000704700000CED00E00000FA052DE9F0476C
:1008B0000F46050061D0434E306800F00700B84293
:1008C00009D2306820F0070038433060306800F00B
:1008D0000700B84251D128683B4C810712D5400728
:1008E00003D5606840F4E06060602878000703D5B5
:1008F000606840F4605060606068A96820F0F000B3
:10090000084360602878C00728D06868012810D0A4
:100910002168022810D0890700292EDA616821F0A9
:10092000030101436160FFF7A7FD804641F288396A
:100930000DE021688903EFE78901EDE7FFF79CFDF2
:10094000A0EB0801494502D90320BDE8F0876068A3
:10095000696800F00C00B0EB810FEFD1306800F057
:100960000700B8420BD9306820F0070038433060E8
:10097000306800F00700B84201D00120E5E7287890
:10098000400705D56068E96820F4E06008436060CE
:100990002878000706D56068296920F4605040EA8D
:1009A000C100606000F038F86168084AC1F30311C3
:1009B000515CC8400649086006480068FFF706FF1A
:1009C0000020C2E7002002400010024098190008F1
:1009D000100000200800002004480549006849680C
:1009E000044AC1F30221515CC84070471000002046
:1009F00000100240A8190008044805490068496829
:100A0000044AC1F3C221515CC84070471000002065
:100A100000100240A819000812A185B00FC98DE886
:100A20000F0014A0144A006804905168134801F0A4
:100A30000C03042B10D0082B0ED1C1F38343C90340
:100A40001DF803000AD5516804AAC1F34041515C66
:100A50000A4A5043B0FBF1F005B0704708494843DB
:100A6000FAE7000002030405060708090A0B0C0D4B
:100A70000E0F1010010200000010024000127A0058
:100A800000093D002DE9F84F040070D02078C04DDA
:100A9000C00749D06868C0F38100012807D06868A2
:100AA000C0F38100022809D16868C00306D5286810
:100AB000800339D560680028E7D035E06068B0F57C
:100AC000803F0BD010B1B0F5A02F11D0286820F4D2
:100AD00080302860286820F4802002E0286840F4F4
:100AE00080302860606890B1FFF7C6FC06460AE0D7
:100AF000286840F480202860F0E700BFFFF7BCFCC6
:100B0000801B642873D828688003F7D50CE0FFF7B2
:100B1000B3FC064605E000BFFFF7AEFC801B64286F
:100B2000F0D828688003F7D420789A4E80074FF0D9
:100B300001094FF0000839D5686810F00C0F07D094
:100B40006868C0F38100022809D16868C00306D430
:100B50002868800714D52069012808D110E0206991
:100B6000B0B1C6F80090FFF787FC074605E00AE140
:100B7000FFF782FCC01B0228C4D828688007F7D57D
:100B80002868616920F0F80040EAC10028600DE0A3
:100B9000C6F80080FFF770FC074604E0FFF76CFC26
:100BA000C01B022823D828688007F7D420780007C4
:100BB0002CD57948A169D9B1C0F80090FFF75CFC49
:100BC000074604E0FFF758FCC01B02280FD8686AEC
:100BD0008007F7D571484FF4FA510068B0FBF1F087
:100BE000009000BF0098411E0091FAD20EE080E014
:100BF000C0F80080FFF740FC074604E0FFF73CFC2C
:100C0000C01B022875D8686A8007F7D4207840078F
:100C100060D5E8690027C00008D4E86940F080503A
:100C2000E861E869012700F0805000905C480168A5
:100C3000C90513D40168834641F480710160FFF750
:100C40001BFC824606E000BFFFF716FCA0EB0A0083
:100C500064284ED8DBF80000C005F5D5E06801280F
:100C60000AD008B1052813D0286A20F001002862B4
:100C7000286A20F0040002E0286A40F0010028629F
:100C8000E06841F2883B98B1FFF7F6FB82460BE043
:100C9000286A40F004002862EEE700BFFFF7ECFB93
:100CA000A0EB0A0159455AD8286A8007F6D50CE00E
:100CB000FFF7E2FB824605E0FFF7DEFBA0EB0A014F
:100CC00059454CD8286A8007F6D41FB1E86920F04E
:100CD0008050E861E06988B36968C1F38101022945
:100CE00044D00228C6F8608004D0FFF7C5FB044654
:100CF00038E034E0FFF7C0FB074604E0FFF7BCFB39
:100D0000C01B02282BD828688001F7D4206AB0F5D0
:100D1000803F05D16868A16820F40030084368600E
:100D2000D4E908010843696821F474110843686034
:100D3000C6F86090FFF7A0FB044606E025E000BF80
:100D4000FFF79AFB001B022809D828688001F7D515
:100D50001BE000BFFFF790FB001B022802D9032015
:100D6000BDE8F88F28688001F4D40EE00128F7D0A0
:100D70006868226A00F48031914204D1616A00F40B
:100D80007010884201D00120EAE70020E8E7000067
:100D90000010024000004242800442421000002045
:100DA0000070004010B5401EB0F1807F01D30120DB
:100DB00010BD4FF0E02460610F21601700F032FB9E
:100DC0000020A06107202061002010BD70B5040044
:100DD00004D094F83900002510B106E0012070BD60
:100DE00084F83850204600F023F8242084F8390095
:100DF0002068C16821F40051C160204600F072FAF9
:100E00002068016921F4904101612068416921F065
:100E10002A0141612068C16841F40051C160E56365
:100E2000202084F8390084F83A00002070BD0000CA
:100E300030B585B0002400940194029403940068B6
:100E40001449884224D11448816941F48041816168
:100E5000816901F480410491816941F0040181615B
:100E600080690E4D00F0040004904FF40070009073
:100E7000022001900320039069462846FFF700FAFC
:100E80002815CDE90004694628460294FFF7F8F9D1
:100E900005B030BD0038014000100240000801409C
:100EA0002DE9F843044690F839001F4616460D46D2
:100EB00020284CD1C5B1BEB194F83800012846D0E5
:100EC000012084F838004FF00008C4F83C8021204D
:100ED00084F83900FFF7D0FAA6848146E684A0683A
:100EE000B0F5805F03D004E00120BDE8F8832069FD
:100EF00028B12E465FF0000584F838800EE0002609
:100F0000FAE78021204600F049FAA0B9AEB116F800
:100F1000010B21684860E08C401EE084E08C4B4669
:100F20004FF0000200970028EBD14FF0400120461F
:100F300000F034FA30B10320D7E735F8020BC0F3E4
:100F40000800E6E7202084F839000020CDE70220E1
:100F5000CBE7FEE701684A69D24352050FD46FF42C
:100F600080624A61002140F8301F20224273817361
:100F7000026942F0040202610173012070470020FF
:100F8000704700002DE9F843044600680D46DDE98E
:100F9000089701689846164641F4807101604B46F7
:100FA00000224FF001112046009700F065F848B18B
:100FB00020680068C00502D54FF40070206403204B
:100FC000BDE8F883216805F0FE0008613B464A460B
:100FD0001549204600F084F888B920684169806985
:100FE00000903A464946204600F0C5F848B1206CCA
:100FF000042804D12068016841F4007101600120D7
:10100000DEE7F5B2B8F1010F09D02168300A0861B6
:101010003A464946204600F0AEF80028E7D120685D
:1010200005610020CCE700000200010070B5164603
:101030000D4604460DE02046FFF78CFF08B1012065
:1010400070BD681C05D0FFF717FA801BA84207D8AF
:1010500035B120684069C0434007ECD4002070BD22
:10106000002044F8300F20216173A073216941F002
:10107000200121612073E2E72DE9F0471E469046EA
:101080000D460446C1F30747DDF8209008E0701CC8
:1010900006D0FFF7F1F9A0EB0900B0420FD876B106
:1010A0002068012F18D0806925EA00000004000C98
:1010B00014D000214145EAD00020BDE8F08700208F
:1010C00044F8300F20216173A073216941F02001A1
:1010D000216120730120F0E74069E5E70121E9E79C
:1010E0002DE9F0479A4691460E46044600254FF0FA
:1010F0002008C1F3074725E020684069C043400548
:1011000014D42068016841F40071016021686FF413
:1011100080604861256384F83D8084F83E50206CEF
:1011200040F00400206484F83C501FE0B9F1FF3F18
:1011300008D0FFF7A1F9A0EB0A0149450CD8B9F195
:10114000000F09D02068012F13D0806926EA000023
:101150000004000C0BD0CFE744F8305F84F80D801A
:10116000A573206940F02000206125730120BDE8AF
:10117000F0874069EAE770B516460D4604460DE073
:101180002046FFF7E7FE08B1012070BD681C05D0BE
:10119000FFF772F9801BA84207D835B12068406973
:1011A000C0430006ECD4002070BD002044F8300F8E
:1011B00020216173A073216941F020012161207316
:1011C000E2E700000D4808B5816941F02001816126
:1011D000816901F020010091816941F00401816180
:1011E000816901F004010091816941F00801816188
:1011F000806900F00800009008BD00000010024067
:101200000D4810B50B4901600C49416000214FF4B5
:1012100080428160C0E9031241618161C161016264
:10122000FFF730F9002803D0BDE81040FFF713B8EE
:1012300010BD00000054004018000020A0860100EE
:101240000C4810B50A4901604FF4E13141600021BA
:1012500081600C22C160C0E904128161C161FFF7A5
:10126000B5FD002803D0BDE81040FEF7F4BF10BD67
:10127000003801406C000020FEE7FEE77047704731
:10128000FFF78ABA30B58FB028216846FEF783FF92
:1012900014210AA8FEF77FFF01210804CDE9001000
:1012A0000024029402250491CDE907504FF4E01088
:1012B00009906846FFF7E6FB08B172B6FEE70F201B
:1012C000CDE90A054FF48060CDE90C4002210AA85F
:1012D0000E94FFF7EBFA002801D072B6FEE70FB0CC
:1012E00030BD704770B5044600680169E26821F4BA
:1012F0004051114301612169A068084361690843B5
:101300002168CA6841F20C639A430243CA602068AC
:101310004169A26921F44071114341611E4920686D
:10132000884202D1FFF768FB01E0FFF755FB00EBB5
:10133000C00101EB0012606864218000B2FBF0F391
:10134000B3FBF1F36FF018067343B2FBF0F5B2FB99
:10135000F0F605EB8305322303EB0515B5FBF1F53C
:10136000B6FBF1F605F0F00505EB0615B2FBF0F65D
:10137000B2FBF0F0B0FBF1F06FF01802504306EB57
:10138000800003EB0010B0FBF1F0216800F00F00CB
:101390002844886070BD0000003801402DE9F0410C
:1013A000984617460E460446069D1DE0681C1BD055
:1013B0002DB1FFF761F8A0EB0800A84214D920680E
:1013C000C16821F4D071C1602068416921F0010138
:1013D0004161202084F8390084F83A00002084F824
:1013E00038000320BDE8F0812068006836EA00007C
:1013F00004D00020B842D9D00020F3E70120F9E75B
:10140000FEE700000FB4054B10B503A9044A02988B
:1014100000F028F810BC5DF814FB0000C9180008A3
:10142000140000200907090E002804DB00F1E02069
:1014300080F80014704700F00F0000F1E02080F801
:10144000141D704702E008C8121F08C1002AFAD113
:1014500070477047002001E001C1121F002AFBD134
:10146000704700002DE9FF4F8DB00F46054600265E
:1014700006E025280BD0DDE90F1290476D1C761C85
:1014800028780028F5D111B03046BDE8F08F00244F
:10149000A246A1460122EC4900E0044315F8013FB1
:1014A000203B02FA03F00842F7D128782A2810D00E
:1014B0006FF02F022878A0F13001092914D80AEB27
:1014C0008A0102EB410144F0020400EB010A6D1CA9
:1014D000F0E701CF5FEA000A03D544F40054CAF1F3
:1014E000000A44F002046D1C28782E2817D115F844
:1014F000010F44F004042A280ED06FF02F02287840
:10150000A0F1300109290AD809EB890102EB410158
:1015100000EB01096D1CF2E757F8049B6D1C28785D
:101520006C280FD006DC4C2817D068280DD06A280C
:1015300014D104E0742810D07A280FD10DE044F4BF
:1015400000140AE044F4801401E044F44014697883
:10155000814202D104F580146D1C6D1C2A786E2A1C
:101560001FD00CDC632A31D004DC002A8BD0582A2F
:1015700011D1A3E0642A68D0692A0CD165E0732AEE
:101580002ED004DC6F2A73D0702A04D19BE0752A18
:101590006FD0782A6ED01046DDE90F129047761C86
:1015A00050E1C4F30250022806D0032809D00428D1
:1015B00001CF09D0066045E101CFF117C0E9006114
:1015C00040E101CF06803DE106703BE117F8040BD6
:1015D0008DF8000000208DF80100EB46012003E0AB
:1015E00057F804BB4FF0FF3061074FF0000102D401
:1015F0000DE008F10101884649450FDA8045F8DB26
:101600001BF808100029F4D108E008F10101884610
:101610008142FADB1BF808100029F6D1DDE90F231F
:10162000AAEB08008146214600F036F9304400EB71
:10163000080604E0DDE90F121BF8010B9047B8F132
:101640000108F7D221464846F7E00A21C4F30253C5
:101650004FF0000B0891022B04D001CFC117032BD0
:1016600009D00AE0FF1D27F00707F7E8020108E0AC
:1016700032E01FE020E000B2C117042B01D140B2DC
:10168000C117031E71F1000307DA4FF0000CD0EB15
:101690000C006CEB01012D2302E0230504D52B2364
:1016A0008DF82430012303E0E30701D02023F7E77E
:1016B000984658E00A2110E010210EE010204FF06B
:1016C000000B08900CE010214FF0000B44F00404D4
:1016D0004FF00809089103E008214FF0000B089132
:1016E000C4F30253022B04D001CF0021032B06D0F8
:1016F00006E0FF1D27F00707F7E8020103E080B2CC
:10170000042B00D1C0B24FF0000823072BD5702A5C
:1017100007D0DDF820C08CF0100C5CEA0B0C05D073
:101720000EE040238DF82430012308E050EA010345
:1017300006D030238DF824308DF8252002239846DA
:10174000DDF820C08CF0080C5CEA0B0C0BD150EAE1
:10175000010301D1630706D530238DF824304FF003
:101760000108A9F10109582A04D038A20B9208AA4D
:101770000A920BE03AA2F9E75B46089AFEF716FDDB
:101780000B9B9B5C0A9A521E0A92137050EA01024C
:10179000F2D10A98ADEB000000F1200B600702D5F2
:1017A00024F4803401E04FF00109D94502DDA9EBB2
:1017B0000B0000E0002000EB0B0141440890AAEB75
:1017C000010AE00306D4DDE90F232146504600F06C
:1017D00063F806444FF0000908E009A911F8090070
:1017E000DDE90F12904709F10109761CC145F4DBD0
:1017F000E0030CD5DDE90F232146504600F04CF8FC
:10180000064404E0DDE90F1230209047761C089969
:10181000481E08900029F5DC08E00A980A9900782B
:10182000491C0A91DDE90F129047761CBBF10001BB
:10183000ABF1010BF1DC21465046DDE90F2300F04E
:1018400019F806446D1C1BE60928010030313233BB
:1018500034353637383961626364656600000000EC
:1018600030313233343536373839414243444546D6
:10187000000000002DE9F041044600251E461746F1
:10188000880404D405E039462020B0476D1C641E4E
:10189000F9D52846BDE8F0812DE9F0410446002540
:1018A0001E469046C80301D5302700E02027880453
:1018B00004D505E041463846B0476D1C641EF9D595
:1018C0002846BDE8F081000013B54FF0FF33012238
:1018D00069460248FFF7E4FA00981CBD6C0000203E
:1018E0000EB5FEF761FFFFF7CDFCFFF76BFCFFF7CE
:1018F00087FCFFF7A5FC15484FF6FF7508248DE817
:10190000310001230022A0211148FEF77FFEA8B17B
:1019100010A000BFFFF776FD3220FEF79FFC0B48BA
:101920000123401C8DE831000022A1210848FEF768
:101930006DFE28B10BA0FFF765FDFEE70CA0E9E7FF
:10194000024841780DA0FFF75DFDF6E7000000209A
:101950001800002049742773206E6F74206F6B2E5F
:101960000D0A000052656164206661696C00000028
:1019700049742773206F6B2E0D0A00005265616455
:10198000206F6B2C52656164427566666572203DFE
:1019900020307825303258000000000000000000A0
:1019A0000102030406070809000000000102030405
:1019B000D01900080000002018000000441400089E
:1019C000E8190008180000209804000054140008CA
:1019D000A500000001000000100000000000000051
:0819E0000024F40000000000E7
:0400000508000131BD
:00000001FF
