:020000040800F2
:10000000F008002001010008FB2A00083B2400083A
:10001000F92A0008B90A0008F530000800000000BD
:10002000000000000000000000000000092D000892
:10003000BB0A000800000000072D00080B2D000877
:100040001B0100081B0100081B0100081B01000820
:100050001B0100081B0100081B0100081B01000810
:100060001B0100081B0100081B0100081B01000800
:100070001B0100081B0100081B0100081B010008F0
:100080001B0100081B0100081B0100081B010008E0
:100090001B0100081B0100081B0100081B010008D0
:1000A0001B010008712D00081B0100081B0100083E
:1000B0007D2D0008892D0008952D00081B010008E2
:1000C0001B0100081B0100081B0100081B010008A0
:1000D0001B0100081B0100081B0100081B01000890
:1000E0001B0100081B0100081B010008DFF80CD0F1
:1000F00000F0D0FC00480047D5490008F008002077
:100100000648804706480047FEE7FEE7FEE7FEE7B1
:10011000FEE7FEE7FEE7FEE7FEE7FEE76D2D0008DF
:10012000ED000008202A04DB203A21FA02F0002129
:10013000704721FA02F3D040C2F1200291400843F7
:100140001946704740EA01039B0703D009E008C93C
:10015000121F08C0042AFAD203E011F8013B00F88C
:10016000013B521EF9D27047D2B201E000F8012BD8
:10017000491EFBD270470022F6E710B513460A4627
:1001800004461946FFF7F0FF204610BDF0B480EAA0
:100190000102D40F4200B2EB410F02D202460846E0
:1001A00011464A0042D0C30DDDB2C1F3C752AD1AA9
:1001B000202D35DAC1F3160141F4000204B1524298
:1001C000C5F1200602FA06F12A411044B3EBD05FD4
:1001D00023D0C4B1012DA0EBC35009DCF0BC4FF01B
:1001E000004202EAC352DBB200F5000000F05DBB42
:1001F000400000F1807000EBC350A0F1807040EA35
:10020000D170490009E0490841EAC071A0EBC35030
:1002100000F50000400800EBC350F0BC00F03CBB10
:100220006142012202EB4101001BF6E7F0BC70477E
:1002300081F00041AAE780F00040A7E780EA0102D0
:1002400010B502F00043400022D04A001FD0010E3A
:1002500001EB1261C0F35600C2F3560240F40000F5
:1002600042F40002A0FB022000047F39140400D0F5
:10027000401C50EA124001D44000491EC2B20C0694
:1002800004EBD010401C4008802A02D003E000207C
:1002900010BD20F00100002900DA0020184310BD35
:1002A00030B480EA010202F0004530F0004221F053
:1002B000004013D090B1C30DD40DC2F31601C0F3AA
:1002C0001600E41A41F4000140F400027D3491422A
:1002D00001D3641C00E04900002C02DA30BC00208D
:1002E00070474FF400000023914201D3891A034361
:1002F00040084FEA4101F7D151B1914202D14FF08C
:10030000004105E002D24FF0010101E06FF0010170
:1003100003EBC450284430BC00F0BEBA420005D004
:10032000C0F3C7525242914201DC0020704700EBFB
:10033000C15070472DE9FE4F804681EA0300C00F8F
:100340000C46009021F0004123F00045B8EB02007C
:10035000A94105D24046214690461C460B4602461E
:1003600023F00040104347D0270DC7F30A00C3F322
:100370000A510290401A019040286BDAC3F313002F
:1003800040F4801B0098924620B10023D2EB030A70
:1003900063EB0B0B01985946C0F14002504600F048
:1003A0005AFA06460D4650465946019A00F062FA3E
:1003B00010EB08006141002487EA115284EAE773D8
:1003C0001A4340D0009A62B3019A012A4FEA0752B9
:1003D00015DC001B61EB02014FF0004202EA0752FC
:1003E000CDE90042001C41F5801132462B4600F059
:1003F00099FA03B0BDE8F08F40462146F9E7001BAB
:1004000061EB0201001C41F5801300185B412018CC
:10041000A2F5001747EB030140EAD570B6196D410C
:1004200011E06D084FEA360645EAC0754FEA0752FB
:10043000001B61EB0201001C41F5801149084FEAE5
:1004400030000019514132462B4603B0BDE8F04F51
:1004500000F059BA0098012240000023D0EB0202BC
:1004600063EBE073009821464FEAE074B8EB0000BC
:1004700061EB0401E9E783F000435BE781F00041B1
:1004800058E72DE9FE4F81EA030404F0004421F00F
:10049000004100944FF0000B23F0004350EA0104A8
:1004A0005ED052EA03045BD0C3F30A54C1F30A5589
:1004B0002C44A4F2F3340194A0FB0254C1F31301C1
:1004C00041F48011C3F3130343F4801301FB02448E
:1004D00000FB034E840A970A44EA815447EA835793
:1004E000A4FB076802958D0A05FB07854FEA932C4C
:1004F00004FB0C542705029D4FEA065847EA1637BD
:10050000B5EB08056EEB070C870E920E47EA8117D4
:1005100042EA8312A7FB0201B6EB0B0164EB000475
:100520002B0D43EA0C335E1844EB1C50DA4651465F
:10053000E7FB0201C5F313044FEA0B3343EA1453FC
:100540004FEA0432019C43EA0603A4F10C0402942E
:10055000009CCDE900B400F0E5F903B0BDE8F08FF0
:1005600000200146F9E72DE9F04D81EA030404F08B
:10057000004B21F0004514464FF0000A23F00041E3
:1005800050EA050220D054EA01021DD0C5F30A57F3
:100590000246C5F31303C1F31300C1F30A5640F436
:1005A000801543F48013A7EB0608101BD64608F20B
:1005B000FD3873EB050002D308F1010801E0921841
:1005C0005B41B8F1000F03DA00200146BDE8F08D71
:1005D00000204FF48011064684460EE0171B73EB93
:1005E000050705D3121B63EB050306434CEA010C18
:1005F00049084FEA300092185B4150EA0107EDD1FB
:1006000052EA030012D082EA040083EA050108439B
:1006100005D0101BAB4106D20122002306E00022C8
:100620004FF0004302E06FF0010253101AEB060096
:100630004CEB085110EB0A0041EB0B01BDE8F04D0B
:1006400000F061B970B521F0004303430CD0C1F351
:100650000A550024D5EB040564EB0403D617AD1A44
:10066000B34102DB0020014670BD201841EB02516E
:1006700070BDC10F80EAE0700844CA0796230021CC
:1006800000F013B996230022114600F00EB90EB502
:10069000C10F80EAE0700844CA07002140F23343EA
:1006A0008DE80E000A460B4600F03CF903B000BD91
:1006B0000EB540F2334102910021CDE900110A4606
:1006C0000B4600F02FF903B000BD70B5C1F30A521C
:1006D00001F000450024C1F3130140F2FF3341F45F
:1006E00080119A4201DA002070BD40F233439A42F1
:1006F000A2F2334203DC5242FFF714FD00E09040C7
:100700002C43F1D0404270BD00F0004230F0004078
:100710000AD0C10D01F56071C0F3160042EA015123
:10072000C20840071143704700200146704700008F
:1007300030B5041E71F1000404DB4FF00044404268
:1007400064EB0101141E73F1000405DB1C464FF03D
:100750000043524263EB04038B4208BF824230BD28
:1007600030B5041E71F1000404DB4FF00044404238
:1007700064EB0101141E73F1000405DB1C464FF00D
:100780000043524263EB0403994208BF904230BDDC
:1007900001F0004330B421F0004150EA010206D0DC
:1007A0000A0DA2F56072C1F31301002A02DC30BC0D
:1007B00000207047440F44EAC104C100E01830BC77
:1007C00000EBC25000F068B830B50B46014600207F
:1007D0002022012409E021FA02F59D4205D303FA03
:1007E00002F5491B04FA02F52844151EA2F1010284
:1007F000F1DC30BD2DE9F05F0546002092469B46B6
:1008000088460646814640241BE028464146474626
:100810002246FFF787FC53465A46C01A914110D32F
:1008200011461846224600F016F82D1A67EB01080B
:100830004F4622460120002100F00DF817EB000979
:100840004E41201EA4F10104DFDC484631462A4611
:100850004346BDE8F09F202A04DB203A00FA02F16B
:10086000002070479140C2F1200320FA03F319439E
:1008700090407047202A06DBCB17203A41FA02F05D
:1008800043EAE07306E041FA02F3D040C2F12002ED
:1008900091400843194670470029A8BF7047401C83
:1008A000490008BF20F00100704710B4B0FA80FC86
:1008B00000FA0CF050EA010404BF10BC704749B1C3
:1008C000CCF1200421FA04F411FA0CF118BF012133
:1008D00021430843A3EB0C01CB1D4FEA00614FEA13
:1008E000102042BF002010BC704700EBC3501044E2
:1008F0000029A4BF10BC7047401C490008BF20F06D
:10090000010010BC704710B5141E73F1000408DA22
:10091000401C41F1000192185B411A4301D120F0C3
:10092000010010BD2DE9F04D92469B4611B1B1FA80
:1009300081F202E0B0FA80F220329046FFF78BFF9E
:1009400004460F4640EA0A0041EA0B0153465A4664
:10095000084313D0114653EA010019D0C8F14002F0
:100960005046FFF7DFFB05460E46504659464246C5
:10097000FFF771FF084305D0012004E02046394607
:10098000BDE8F08D0020054346EAE0762C4337436E
:100990000A986305E40AA0EB08000022FD0A44EA75
:1009A00047540A3002D500200146E9E70105101935
:1009B0006941DDE9084500196941BDE8F04DA2E74C
:1009C0002DE9F04D00231A461B1A8A4103DB002053
:1009D0000146BDE8F08DC1F30A52C1F3130141F4A1
:1009E00080154FF0000BD10702D100186D41521E47
:1009F0000027044640F2FF11384601EB620A3E46EA
:100A00008046024600204FF48011FFF78BFBC2198D
:100A10007141BB1846EB0100B4EB030C75EB000C05
:100A200004D3E41A65EB000517460E46241908F1B5
:100A300001006D4180463428E3DDF91946EB0600DC
:100A4000091BA84103D24FF0FF32134601E00022F8
:100A500013461BEB070046EB0A51BDE8F04DFFF7CC
:100A600052BFC1F30A52C1F3130140F2FF3341F404
:100A700080119A4202DA00200146704740F2334367
:100A80009A42A2F2334202DC5242FFF74BBBFFF71D
:100A9000E2BE0000064C074D06E0E06840F00103AE
:100AA00094E8070098471034AC42F6D3FFF722FBD6
:100AB000D84E0008F84E0008FEE7704772B6FEE711
:100AC00070B5044600F0FEF80546601C02D00448EC
:100AD0000078044400F0F6F8401BA042FAD370BD41
:100AE000C00000202DE9F84FDFF8B891002409F18B
:100AF000040A0AF1040B23460F270BF1040EC9E088
:100B00000125A5402A40AA427DD1674ED1F804C0F4
:100B1000ACEB0608B44532D014DCBCF1030F3AD07C
:100B200009DCBCF1000F2AD0BCF1010F1CD0BCF1D4
:100B3000020F31D11DE0BCF1110F17D0BCF1120F23
:100B40002AD119E0B8F5881F19D006DCB8F5803F26
:100B500015D0B8F5801F1FD111E0B8F5001F0ED0D9
:100B6000B8F5041F18D10AE0CB6815E0CB681B1D4F
:100B700012E0CB6808330FE0CB680C330CE08B68D5
:100B80002BB1012B4FF0080303D0456104E004238F
:100B900002E0056100E00023FF2A01D8064601E0DB
:100BA00000F104064FEA840501D9A5F12005D6F825
:100BB000008007FA05FC28EA0C0803FA05F548EA64
:100BC0000508C6F800804D68ED0062D5374DAE6966
:100BD00046F00106AE61AD6924F0030605F001059B
:100BE0000095334D06EB050CDCF80850A607360FD0
:100BF00007FA06F825EA0805DFF8B880404503D172
:100C00004FF0000817E044E0DFF8AC80404502D127
:100C10004FF001080FE0DFF8A480404502D14FF00B
:100C2000020808E0DFF89880404502D14FF0030841
:100C300001E04FF0040808FA06F848EA0508CCF885
:100C400008804D68D9F80060ED034D4601D5164384
:100C500000E096432E604D68DAF80060AD0355461B
:100C600001D5164300E096432E604D68DBF8006026
:100C7000ED025D4601D5164300E096432E604D68B7
:100C8000DEF80060AD02754601D5164300E09643DC
:100C90002E60641C0D682A46E5407FF431AFBDE844
:100CA000F88F000000040140000011100010024005
:100CB0000000014000080140000C0140001001400C
:100CC000001401400148806870470000C000002007
:100CD00070B5040025D094F83D00002520B984F8B3
:100CE0003C50204600F078FA242084F83D0020682B
:100CF000016821F0010101602068016841F40041B0
:100D000001602068016821F40041016000F0C2FB2D
:100D10004D4A6168914201D84C4900E04C498842F3
:100D200001D2012070BD4B492368B0FBF1F15E6830
:100D300026F03F060E435E606368934206D94FF487
:100D4000967359434FF47A73B1FBF3F12368491C4E
:100D50001E6A26F03F06314319626168914210D83D
:100D60004900401EB0FBF1F2521CC2F30B02042AF0
:100D700001D2042022E0B0FBF1F0401CC0F30B00D4
:100D80001CE0A268F2B301EBC10303EB0116431EA2
:100D9000B3FBF6F35B1C43F480431B0549D092B3CD
:100DA00001EBC10202EB0111401EB0FBF1F0401C4F
:100DB000C0F30B0040F4804040F400402168CA6951
:100DC0004CF6FF739A431043C861D4E907100143FE
:100DD0002068026822F0C00211430160D4E90301D7
:100DE00001432068826848F2FF339A4311438160CF
:100DF000D4E9050108432168CA6822F0FF021043C4
:100E0000C86001E00EE016E02068016841F00101D1
:100E100001602564202084F83D00256384F83E505D
:100E2000002070BD01EB4106431EB3FBF6F35B1CD3
:100E3000B3E70120C2E701EB4101401EB0FBF1F036
:100E4000401CC0F30B00B7E7A086010080841E00A1
:100E500000093D0040420F002DE9FF4F83B00025FF
:100E6000DDE910799A4693460446DDF848800095FE
:100E7000FFF728FF064694F83D0020287CD119236F
:100E8000012285492046009601F0E8FB0028F5D1B3
:100E900094F83C0001286FD0012084F83C002068C1
:100EA0000168C90703D1016841F0010101602068B0
:100EB000016821F400610160222084F83D00402097
:100EC00084F83E0025646762A4F82A90608D20852E
:100ED0007248E062CDE9008653465A46204604999E
:100EE00001F0C4FA00287DD1208DDFF8B4912027CD
:100EF00068B1012814D00228206801681ED041F48E
:100F0000806101602068416980690090B6E02068D6
:100F1000416981690091016841F400710160ADE0AF
:100F20002068016821F48061016072B6206841691F
:100F300081690091016841F400710AE041F40061A7
:100F4000016072B62068416981690091016821F4ED
:100F50008061016062B691E0032868D801280CD056
:100F6000022843464FF000024946204600960FD023
:100F700001F074FBB0BB10E08BE0324641462046E6
:100F800001F0EBFB70BB20680069616A08706CE0DF
:100F900001F064FB30BB72B634E02068016821F4D4
:100FA0008061016072B620680069616A0870606AD9
:100FB000401C6062208D401E2085608D401E608533
:100FC000384846F2A8110068B0FBF1F0C0EBC00051
:100FD00000EB80000090401E009008D0206840691F
:100FE000C04300E029E040070CD50098F3E744F83F
:100FF000305F6773A573206940F02000206162B6FE
:1010000025731AE02068016841F4007101602068CE
:101010000069616A0870606A401C6062218D491E27
:101020002185618D491E618562B621681BE03246CB
:101030004146204601F091FB18B1012007B0BDE800
:10104000F08F20680069616A0870606A401C606205
:10105000218D491E2185618D491E618521684A695E
:10106000D24352070AD409690170606A401C606269
:10107000208D401E2085608D401E6085208D0028BB
:101080007FF46AAF84F83D7084F83E5084F83C5099
:10109000D4E70220D2E70000020010000000FFFFAA
:1010A00004000100CC0000202DE9FF4F83B09A46D8
:1010B000DDE9119793460446DDF84080FFF702FE14
:1010C000054694F83D0020287FD11923012240498C
:1010D0002046009501F0C2FA002876D194F83C0031
:1010E000012872D0012084F83C0020680168C907FB
:1010F00003D1016841F0010101602068016821F419
:1011000000610160212084F83D00402084F83E0009
:1011100000262664C4F82480A4F82A90608D2085D7
:101120002C48E062CDE9007553465A4620460499A2
:1011300001F01AFA70B930E02A463946204601F02B
:101140003FFB58B1206C042804D12068016841F4A9
:1011500000710160012007B0BDE8F08F606A21686E
:1011600000780861606A401C6062218D491E89B266
:101170002185628D521E628522685369DB435B07BD
:101180000BD469B100781061606A401C6062208DE8
:10119000401E2085608D401E6085208D0028CBD1AB
:1011A0002A463946204601F033FA0028CAD154F8BD
:1011B0003D0B016841F400710160202004F81E0914
:1011C000E67766770020C6E7FFE70220C3E7000066
:1011D000020010000000FFFF10B586B00021009152
:1011E0000191029103910068104988421BD1104C73
:1011F000A06940F00800A061A069694600F00800FD
:1012000004904FF44060009012200190032003905E
:101210000848FFF767FCE06940F48000E061E0699E
:1012200000F48000049006B010BD0000005800409B
:1012300000100240000C014002488168027811440D
:1012400081607047C0000020074810B5016841F078
:1012500010010160032000F075F8002000F006F88E
:1012600000F024F8002010BD0020024070B50D4DA4
:1012700004464FF47A712878B1FBF0F00A49096806
:10128000B1FBF0F000F0ECFA48B9102C07D20022C4
:101290002146501E00F036F800206C6070BD012021
:1012A00070BD0000C0000020CC0000200C4808B534
:1012B000816941F001018161816901F001010091C1
:1012C000C16941F08051C161C06900F08050009057
:1012D0000448416821F0E06141F00071416008BDBF
:1012E0000010024000000140002809DB00F01F024E
:1012F000012191404009800000F1E020C0F8001178
:1013000070470000F0B40E4B1B680C46C3F3022379
:10131000C3F10705042D00D90425191D072901D2A1
:10132000002300E0DB1E012606FA05F1491E2140DC
:1013300099409E40761E16403143F0BC01F000BF3C
:101340000CED00E0064900F0070208684FF6FF03C5
:10135000184040EA0220034A10430860704700002A
:101360000CED00E00000FA052DE9F0470F460500FE
:1013700061D0434E306800F00700B84209D23068AF
:1013800020F0070038433060306800F00700B842B2
:1013900051D128683B4C810712D5400703D56068BE
:1013A00040F4E06060602878000703D5606840F48E
:1013B000605060606068A96820F0F00008436060D9
:1013C0002878C00728D06868012810D02168022832
:1013D00010D0890700292EDA616821F0030101434A
:1013E0006160FFF76FFC804641F288390DE02168AB
:1013F0008903EFE78901EDE7FFF764FCA0EB080143
:10140000494502D90320BDE8F0876068696800F0AB
:101410000C00B0EB810FEFD1306800F00700B8424C
:101420000BD9306820F0070038433060306800F096
:101430000700B84201D00120E5E72878400705D52C
:101440006068E96820F4E06008436060287800077D
:1014500006D56068296920F4605040EAC1006060E8
:1014600000F038F86168084AC1F30311515CC840C4
:101470000649086006480068FFF7F8FE0020C2E74A
:101480000020024000100240D04D0008CC00002097
:10149000C40000200448054900684968044AC1F3B3
:1014A0000221515CC8407047CC000020001002406F
:1014B000E04D00080448054900684968044AC1F342
:1014C000C221515CC8407047CC000020001002408F
:1014D000E04D000812A185B00FC98DE80F0014A0DF
:1014E000144A006804905168134801F00C03042B5F
:1014F00010D0082B0ED1C1F38343C9031DF803009C
:101500000AD5516804AAC1F34041515C0A4A5043CC
:10151000B0FBF1F005B0704708494843FAE7000016
:1015200002030405060708090A0B0C0D0E0F101024
:10153000010200000010024000127A0000093D0084
:101540002DE9F84F040070D02078C04DC00749D075
:101550006868C0F38100012807D06868C0F3810083
:10156000022809D16868C00306D52868800339D5E8
:1015700060680028E7D035E06068B0F5803F0BD0A8
:1015800010B1B0F5A02F11D0286820F48030286069
:10159000286820F4802002E0286840F48030286029
:1015A000606890B1FFF78EFB06460AE0286840F4B9
:1015B00080202860F0E700BFFFF784FB801B6428D1
:1015C00073D828688003F7D50CE0FFF77BFB06464D
:1015D00005E000BFFFF776FB801B6428F0D8286881
:1015E0008003F7D420789A4E80074FF001094FF01E
:1015F000000839D5686810F00C0F07D06868C0F390
:101600008100022809D16868C00306D428688007D1
:1016100014D52069012808D110E02069B0B1C6F8BE
:101620000090FFF74FFB074605E00AE1FFF74AFB92
:10163000C01B0228C4D828688007F7D528686169CC
:1016400020F0F80040EAC10028600DE0C6F80080F4
:10165000FFF738FB074604E0FFF734FBC01B022806
:1016600023D828688007F7D4207800072CD579483C
:10167000A169D9B1C0F80090FFF724FB074604E048
:10168000FFF720FBC01B02280FD8686A8007F7D538
:1016900071484FF4FA510068B0FBF1F0009000BFC0
:1016A0000098411E0091FAD20EE080E0C0F8008060
:1016B000FFF708FB074604E0FFF704FBC01B022806
:1016C00075D8686A8007F7D42078400760D5E86944
:1016D0000027C00008D4E86940F08050E861E8695C
:1016E000012700F0805000905C480168C90513D4C0
:1016F0000168834641F480710160FFF7E3FA824696
:1017000006E000BFFFF7DEFAA0EB0A0064284ED81F
:10171000DBF80000C005F5D5E06801280AD008B163
:10172000052813D0286A20F001002862286A20F0DA
:10173000040002E0286A40F001002862E06841F2FB
:10174000883B98B1FFF7BEFA82460BE0286A40F06A
:1017500004002862EEE700BFFFF7B4FAA0EB0A012D
:1017600059455AD8286A8007F6D50CE0FFF7AAFA3F
:10177000824605E0FFF7A6FAA0EB0A0159454CD8CE
:10178000286A8007F6D41FB1E86920F08050E8612C
:10179000E06988B36968C1F38101022944D0022855
:1017A000C6F8608004D0FFF78DFA044638E034E0D4
:1017B000FFF788FA074604E0FFF784FAC01B022807
:1017C0002BD828688001F7D4206AB0F5803F05D176
:1017D0006868A16820F4003008436860D4E9080113
:1017E0000843696821F4741108436860C6F8609082
:1017F000FFF768FA044606E025E000BFFFF762FA4B
:10180000001B022809D828688001F7D51BE000BF1B
:10181000FFF758FA001B022802D90320BDE8F88F11
:1018200028688001F4D40EE00128F7D06868226AA5
:1018300000F48031914204D1616A00F47010884252
:1018400001D00120EAE70020E8E700000010024094
:101850000000424280044242CC0000200070004060
:1018600010B5401EB0F1807F01D3012010BD4FF0B4
:10187000E02460610F21601701F062FC0020A0618C
:1018800007202061002010BD7047704770B590F8A8
:101890003C20012A26D0012480F83C40022280F816
:1018A0003D2003685A689D6822F070060A6832433A
:1018B0005A600D4B02689A4208D0B2F1804F05D0B1
:1018C0000A4B9A4202D00A4B9A4204D1496825F049
:1018D00080031943916080F83D40002180F83C105E
:1018E000084670BD022070BD002C0140000400407D
:1018F0000008004010B5040003D094F83D0010B17A
:1019000007E0012010BD002084F83C00204600F0D4
:101910001FF8022084F83D00211D206801F040FAE4
:10192000012084F8460084F83E0084F83F0084F8E3
:10193000400084F8410084F8420084F8430084F8B1
:10194000440084F8450084F83D00002010BD0000EC
:1019500008B500680B49884212D10B48816941F4EF
:10196000006181618069002200F400600090012123
:101970001920FFF7C7FCBDE808401920FFF7B4BCE9
:1019800008BD0000002C01400010024090F83D10FE
:10199000012901D001207047022180F83D10016823
:1019A000CA6842F00102CA6000680B49884208D048
:1019B000B0F1804F05D00949884202D008498842D9
:1019C00004D1816801F00701062903D0016841F0C4
:1019D0000101016000207047002C0140000400401C
:1019E0000008004070B5044690F83C00012817D06C
:1019F000012584F83C50022084F83D00206882686C
:101A000022F0770222F47F4282600868502830D0AA
:101A10000DDC20284DD005DC98B310283BD148E0E0
:101A2000022070BD302844D0402834D139E06028ED
:101A300028D0702806D0B0F5805F2CD0B0F5005FBC
:101A400029D10AE0CB68D1E90121206801F0EBF946
:101A50002068816841F0770109E0CB68D1E9012174
:101A6000206801F0E0F92068816841F480418160DC
:101A700011E0CA684968206801F08AFA502120689C
:101A800007E016E0CA684968206801F092FA602110
:101A9000206801F0D2F984F83D50002084F83C0021
:101AA00070BDCA684968206801F072FA4021206858
:101AB000EFE7226801461046EBE72DE9F0410D46BD
:101AC000040003D094F83D0018B108E00120BDE8FF
:101AD000F081002084F83C00204600F041F802200C
:101AE00084F83D002068816844F2070291438160D8
:101AF000211D206801F054F9226890689169166AE6
:101B00002B68AF69034340F20330814341EA072168
:101B1000A868EF6908434FF6FC418843E96840EA4A
:101B20000720014328692F6A000140EA0730084373
:101B300069686D6926F0220646EA05152943936017
:101B40002268906154F8460B0162012004F81F09D5
:101B5000E0752076E0762077A0750020B7E70000DA
:101B600000B585B0002100910191029103910168B7
:101B70002248B1F1804F23D0214A91421ED1C16940
:101B800041F00401C161C16901F00401049181695E
:101B900041F0080181618069694600F00800049005
:101BA000C02000901748FEF79DFF002211461E201E
:101BB000FFF7A8FB5FF01E00FFF796FB05B000BD26
:101BC000C16941F00101C161C16901F001010491E4
:101BD000816941F0040181618069694600F0040077
:101BE0000490032000900848FEF77CFF0022114675
:101BF0001C20FFF787FB1C20DEE7000000100240DE
:101C000000080040000C01400008014070B590F849
:101C10003E60044690F83F5090F8423090F84320E0
:101C2000022021B104290ED0012E1BD114E0012E77
:101C300018D1012B16D184F83E0084F8420001220D
:101C40000021206820E0012D0CD1012A0AD184F85E
:101C50003F0084F8430014E0012D03D1012B01D192
:101C6000012A01D0012070BD84F83E0084F83F00B5
:101C700084F8420084F8430001220021206801F02A
:101C8000C5F801220421206801F0C0F8206801682D
:101C900041F001010160002070BD704770B504463D
:101CA000006801694FF00005C943890715D4C16870
:101CB000C943890711D4E91E0161012020772068FA
:101CC00080698007204602D0FFF7E7FF04E000F0BC
:101CD000D1F8204600F07EF9257720680169C943D4
:101CE000490717D4C168C943490713D46FF00401E9
:101CF0000161022020772068806910F4407F20462F
:101D000002D0FFF7CAFF04E000F0B4F8204600F06C
:101D100061F9257720680169C943090716D4C168AC
:101D2000C943090712D46FF008010161042020772C
:101D30002068C0698007204602D0FFF7AEFF04E0AC
:101D400000F098F8204600F045F9257720680169F1
:101D5000C943C90617D4C168C943C90613D46FF073
:101D600010010161082020772068C06910F4407FCD
:101D7000204602D0FFF791FF04E000F07BF82046F8
:101D800000F028F9257720680169C943C90708D1FF
:101D9000C168C943C90704D1891E0161204600F00A
:101DA00069F920680169C943090609D4C168C943B2
:101DB000090605D46FF0800101612046FFF764FD3C
:101DC00020680169C943490609D4C168C943490665
:101DD00005D46FF040010161204600F04DFA206803
:101DE0000169C94389060BD4C168C943890607D470
:101DF0006FF0200101612046BDE87040FFF745BD4E
:101E000070BD000010B586B00021009101910291D3
:101E1000039100681349884221D11348816941F038
:101E200004018161816901F004010491816941F03B
:101E3000080181618069022400F008000490C0203C
:101E4000CDE90004694609480394FEF74BFE0320E0
:101E5000CDE90004694606480394FEF743FE06B048
:101E600010BD0000000400400010024000080140C6
:101E7000000C0140704770B5044690F83C000D46D8
:101E800001280AD0012084F83C0042B1042A18D06D
:101E9000082A2AD00C2A4DD139E0022070BD2068D2
:101EA00000F0D4FF2068816941F008018161206859
:101EB000816921F004018161206881692A691143E7
:101EC00011E0206800F0EAFF2068816941F40061B8
:101ED00081612068816921F4806181612068816964
:101EE0002A6941EA0221816124E0206801F002F8B8
:101EF0002068C16941F00801C1612068C16921F011
:101F00000401C1612068C1692A69114311E0206898
:101F100001F01CF82068C16941F40061C1612068CA
:101F2000C16921F48061C1612068C1692A6941EAFF
:101F30000221C161002084F83C0070BD10B504008E
:101F400003D094F83D0010B107E0012010BD00203F
:101F500084F83C00204600F01FF8022084F83D0081
:101F6000211D206800F01CFF012084F8460084F841
:101F70003E0084F83F0084F8400084F8410084F873
:101F8000420084F8430084F8440084F8450084F853
:101F90003D00002010BD000008B500680B498842D4
:101FA00012D10B48C16941F00201C161C069002230
:101FB00000F00200009011461D20FFF7A3F9BDE8D4
:101FC00008401D20FFF790B908BD00000004004044
:101FD000001002407047000010B50446022249B1CB
:101FE00004290ED0082913D094F84100012816D0F6
:101FF000012010BD94F83E000128F9D184F83E205C
:102000000FE094F83F000128F2D184F83F2008E067
:1020100094F840000128EBD184F8402001E084F8D6
:1020200041200122206800F0F1FE0F49206888421B
:1020300003D1426C42F4004242642068884208D0D6
:10204000B0F1804F05D00949884202D00849884242
:1020500004D1816801F00701062903D0016841F02D
:1020600001010160002010BD002C0140000400406F
:10207000000800402DE9FC5F0068714988427DD16D
:10208000704802689046506AFEF712FB6E4D0022BF
:102090006E4BFEF768FA0122FEF7D4FA6C4CDFF8BB
:1020A000B4A122465346FEF7ECF9DFF8ACB10022AA
:1020B0005B46FEF7E6F90022684BFEF754FA002271
:1020C000674BFEF7DEF9DFF89C91C5E90001064693
:1020D000D9F800000F46406AFEF7EAFA00225B4B8F
:1020E000FEF741FA0122FEF7ADFA22465346FEF70B
:1020F000C8F900225B46FEF7C4F90022574BFEF7F1
:1021000032FA0022564BFEF7BCF90024C5E9020161
:10211000C8F82440D9F80020546232463B46FEF706
:1021200009F900224D4BFEF71EFA661E3246FEF7F5
:1021300089FA0022CDE9002202460B464A4800F007
:10214000DDFCDFF828913146D9F82800FEF7E6F8E3
:10215000FEF7DAFAD5E90623CDE9002302460B465D
:10216000434800F0CBFC42483F49D0E91023D1E975
:102170001001FEF7DFF8C5E9040100E036E0FEF7E4
:10218000A4FA002800DA4042DFF8E880642804DB83
:102190002D4A33490020C2E904012B4E06F11800F4
:1021A0000FC8FEF7C7F805460F46D9F82800FEF716
:1021B000ABFA2A463B46FEF7D3FA19D2D6E9040118
:1021C000FEF783FA002801DB024600E04242D8F81D
:1021D000003041465A63D8F800209463002800DAA2
:1021E00040420A68D063D8F800000464BDE8FC9F50
:1021F00006F118000FC8FEF73EF905460F46D9F85C
:102200002800FEF781FA2A463B46FEF791FAEDD206
:10221000D8F8000045464463D6E90401FEF755FAB4
:10222000002801DB014600E041422A6891632968E9
:10223000CC63002800DA404229680864D6E7000031
:10224000002C01408C0300205000002000E8E740F3
:102250001F85EB51B81E094000405040000024404B
:10226000000059401C04002040010020D80000203C
:10227000D0010020D4030020704770B5040004D0C2
:1022800094F83D00002510B106E0012070BD84F8EF
:102290003C50204600F022F8242084F83D002068BD
:1022A000C16821F40051C160204600F095FE20680D
:1022B000016921F4904101612068416921F02A01FE
:1022C00041612068C16841F40051C160256420204B
:1022D00084F83D0084F83E00002070BD70B586B0E3
:1022E00000240094019402940394234E036823492C
:1022F00002200322224DB34219D18B6943F480435B
:102300008B618B6903F4804304938B6943F004036E
:102310008B618969039201F0040104910102CDE906
:10232000001069462846FEF7DDFB28151BE0154E18
:10233000B3421FD1CB6943F40033CB61CB6903F4C3
:10234000003304938B6943F004038B618969039222
:1023500001F0040104910421CDE9001069462846EA
:10236000FEF7C0FB0820CDE9000469462846029428
:10237000FEF7B8FB06B070BD003801400010024007
:1023800000080140004400402DE9F843044690F85D
:102390003D001F4616460D4620284CD1C5B1BEB1A2
:1023A00094F83C00012846D0012084F83C004FF00E
:1023B0000008C4F84080212084F83D00FEF782FC2C
:1023C000A6848146E684A068B0F5805F03D004E06F
:1023D0000120BDE8F883206928B12E465FF0000592
:1023E00084F83C800EE00026FAE78021204600F0C9
:1023F0004FFEA0B9AEB116F8010B21684860E08C21
:10240000401EE084E08C4B464FF00002009700280D
:10241000EBD14FF04001204600F03AFE30B10320EE
:10242000D7E735F8020BC0F30800E6E7202084F870
:102430003D000020CDE70220CBE7FEE701684A69B6
:10244000D24352050FD46FF480624A61002140F8F4
:10245000301F202242738173026942F0040202613C
:102460000173012070470020704700002DE9F84FEC
:102470000446006889460B9D01689846174641F45A
:10248000806101602068016841F4807101600095FD
:102490004FF0011B0022594620460A9B00F0DEF84F
:1024A0004FF4007A40B120680068C00501D5C4F837
:1024B00040A00320BDE8F88F216809F0FE00086104
:1024C0002B46284920460A9A00F0FCF8F0BB206809
:1024D0004169806900902A4620460A9900F070F907
:1024E00040B1206C04283AD12068016841F40071A1
:1024F000016034E0FEB2B8F1010F09D02168380A5A
:1025000008612A4620460A9900F05AF90028E8D1C5
:10251000206806612A4620460A9900F051F90028F1
:10252000DFD12068016841F48071016000950022CC
:10253000594620460A9B00F091F80028B3D1216843
:1025400009F0FF0040F00100086100E007E02B46C1
:10255000044920460A9A00F0B5F80028AAD00120C4
:10256000A8E70000020001002DE9F84304460068D6
:102570000D46DDE9089701689846164641F48071DA
:1025800001604B4600224FF001112046009700F0F9
:1025900065F848B120680068C00502D54FF40070A6
:1025A00020640320BDE8F883216805F0FE0008617F
:1025B0003B464A461549204600F084F888B9206811
:1025C0004169806900903A464946204600F0F8F893
:1025D00048B1206C042804D12068016841F40071DE
:1025E00001600120DEE7F5B2B8F1010F09D02168E2
:1025F000300A08613A464946204600F0E1F80028D2
:10260000E7D1206805610020CCE70000020001004E
:1026100070B516460D4604460DE02046FFF70EFF46
:1026200008B1012070BD681C05D0FEF74BFB801B74
:10263000A84207D835B120684069C0434007ECD4B0
:10264000002070BD002044F8300F20216173A0737A
:10265000216941F0200121612073E2E72DE9F04773
:102660001E4690460D460446C1F30747DDF820900C
:1026700008E0701C06D0FEF725FBA0EB0900B04275
:102680000FD876B12068012F18D0806925EA0000A4
:102690000004000C14D000214145EAD00020BDE820
:1026A000F087002044F8300F20216173A073216966
:1026B00041F02001216120730120F0E74069E5E746
:1026C0000121E9E72DE9F0479A4691460E46044676
:1026D00000254FF02008C1F3074725E02068406936
:1026E000C043400514D42068016841F400710160C2
:1026F00021686FF480604861256384F83D8084F828
:102700003E50206C40F00400206484F83C501FE0F0
:10271000B9F1FF3F08D0FEF7D5FAA0EB0A01494511
:102720000CD8B9F1000F09D02068012F13D08069AF
:1027300026EA00000004000C0BD0CFE744F8305F1D
:1027400084F80D80A573206940F020002061257376
:102750000120BDE8F0874069EAE72DE9F041002556
:1027600090460E460446202717E04069C043C00645
:102770000CD454F8301B6FF01000486144F8105925
:102780006777A577206A2062257717E0FEF79AFA27
:10279000A0EB0800B04208D83EB120684169C943A7
:1027A0004906E2D40020BDE8F08144F8305F677349
:1027B000A573206940F02000206125730120F2E715
:1027C00070B516460D4604460DE02046FFF736FE6E
:1027D00008B1012070BD681C05D0FEF773FA801B9C
:1027E000A84207D835B120684069C0430006ECD440
:1027F000002070BD002044F8300F20216173A073C9
:10280000216941F0200121612073E2E710B502F057
:1028100075F9BDE8104002F015B810B502F09EF948
:1028200001F07AFCBDE8104001F06ABF0D4808B520
:10283000816941F020018161816901F020010091ED
:10284000816941F004018161816901F00401009115
:10285000816941F008018161806900F00800009001
:1028600008BD0000001002400D4810B50B49016082
:102870000C49416000214FF480428160C0E903129D
:1028800041618161C1610162FEF722FA002803D033
:10289000BDE81040FEF712B910BD0000005800401E
:1028A000F0020020A086010010B586B00024184870
:1028B00000940194029403940494144905940160D3
:1028C0004FF43471C0E9011440F2E731C0E9031458
:1028D0008021C0E90541FFF70DF808B1FEF7EEF8D9
:1028E0004FF48050009069460948FFF77BF808B123
:1028F000FEF7E4F8049404A905480594FEF7C6FF22
:10290000002801D0FEF7DAF806B010BD002C014017
:102910004403002010B58CB024216846FDF72BFC41
:102920000024154809944FF080410A94C0E900142E
:102930004FF6FF71C0E90241046184610320CDE9D3
:1029400000040120CDE902040494CDE90540079478
:10295000694609480894FFF7B0F808B1FEF7AEF8E9
:10296000099409A904480A94FEF790FF002801D0B1
:10297000FEF7A4F80CB010BD8C03002010B58AB08F
:10298000002407941C2168460894FDF7F4FB2248B4
:10299000204901604FF4E151C0E901146321C0E90D
:1029A00003148461FFF7CAFA08B1FEF787F80794A9
:1029B00007A919480894FEF769FF08B1FEF77EF8E9
:1029C0006020CDE900040294002269461248049474
:1029D000FFF751FA08B1FEF771F8042269460E4874
:1029E000FFF749FA08B1FEF769F8082269460A4874
:1029F000FFF741FA08B1FEF761F80C226946064874
:102A0000FFF739FA08B1FEF759F80348FFF7FAF96A
:102A10000AB010BD00040040D403002010B58CB0F3
:102A200024216846FDF7A7FB0024164809941449A1
:102A30000A94C0E900144FF6FF71C0E90241046135
:102A400084610320CDE900040120CDE9020404944F
:102A5000CDE90540079469460A480894FFF72DF828
:102A600008B1FEF72BF8099409A906480A94FEF765
:102A70000DFF002801D0FEF721F80CB010BD0000BA
:102A8000000800401C0400200C4810B50A490160F1
:102A90004FF4E1314160002181600C22C160C0E946
:102AA00004128161C161FFF7E8FB002803D0BDE893
:102AB0001040FEF703B810BD003801406404002048
:102AC0000C4810B50A4901604FF4165141600021CD
:102AD00081600C22C160C0E904128161C161FFF70D
:102AE000CCFB002803D0BDE81040FDF7E7BF10BDC8
:102AF00000440040A8040020FEE7FEE72DE9FE4F59
:102B00000400DDE90C011BD0D4E92056C4E92256AB
:102B1000A946D4E91E75C4E92075A84604F130051C
:102B2000B24685E80F001034FDF7A5FCC4E91A0190
:102B3000054614F8100D0E4638B101285BD057E059
:102B40000020014603B0BDE8F08FD4E902012A4617
:102B50003346FDF796FCC4E91201D4E904012A4684
:102B60003346FDF78EFCD4E91423FDF7E3FBC4E9FB
:102B7000140181468A46D4E91A01C4E91C01D4E94A
:102B80001801C4E91A013A46434628463146FDF782
:102B900072FCC4E9180102460B46D4E90601FDF7B0
:102BA00070FCC4E91601D4E90A2348465146FDF7F2
:102BB000D7FDD4E90A010AD3D4E9142381F00041F6
:102BC000FDF7CEFD05D2D4E90A0181F00041C4E948
:102BD0001401483494E80F00483CFDF7ABFBD4E9FE
:102BE00016234DE0D4E9080181F00041C4E9100149
:102BF000D4E91001A6E73A46434628463146FDF798
:102C00003AFCD4E90223FDF73CFCC4E91201CDE90A
:102C10000001D4E904012A463346FDF732FCC4E939
:102C2000140183460291D4E91A01C4E91C01D4E9D4
:102C30001801C4E91A01012238464146FDF702FD98
:102C40002A463346FDF71AFC4A465346FDF772FB07
:102C5000C4E918010246D4E906050B462946FDF7EA
:102C600010FCC4E9160105460E469DE80B005A46C5
:102C7000FDF760FB2A463346FDF75CFBD4E91023E1
:102C8000FDF758FBC4E91001D4E90823FDF768FDFE
:102C9000D4E90801AAD3D4E9102381F00041FDF75B
:102CA0005FFDA5D29EE7F0B506AF059E97E8380018
:102CB000002827D0002A25D00170D2E90017C0E9EA
:102CC0000217D2E90217C0E90417D2E90417066215
:102CD000C0E906170022C0E91C22C0E91A22C0E997
:102CE0001822C0E91022C0E91622C0E91422C0E966
:102CF0001222C0E92222C0E92022C0E91E2224308B
:102D000080E83800F0BD70477047FEF795BA30B5DF
:102D10008FB028216846FDF72EFA14210AA8FDF786
:102D20002AFA01210804CDE90010002402940225AA
:102D30000491CDE907504FF4E01009906846FEF782
:102D4000FFFB08B172B6FEE70F20CDE90A054FF48C
:102D50008060CDE90C4002210AA80E94FEF704FB26
:102D6000002801D072B6FEE70FB030BD70470000FA
:102D70000148FEF793BF0000440300200148FEF71E
:102D80008DBF00008C0300200148FEF787BF0000C4
:102D9000D40300200148FEF781BF00001C0400207E
:102DA000F0B50268164B174C174D4FF0804798420C
:102DB00005D0B84203D0A04201D0A84203D122F0EE
:102DC00070064A683243984205D0B84203D0A04208
:102DD00001D0A84203D122F44074CA6822434C694E
:102DE00022F08002224302608A68C2620A6882621C
:102DF000984201D10969016301214161F0BD0000E0
:102E0000002C0140000400400008004010B501F013
:102E10001F030121046A99408C430462016A9A40AD
:102E20001143016210BD10B5846842EA032224F404
:102E30007F440A432243826010BD826822F0700200
:102E40000A4342F0070181607047000030B5026A12
:102E500022F001020262026A4368846924F0730569
:102E60000C682C4322F002058A682A430A4DA842C6
:102E70000BD122F00805CA6823F440732A434D6938
:102E800022F004021D438B692B434360846149682F
:102E90004163026230BD0000002C014030B5026A7F
:102EA00022F010020262026A436884690D6824F409
:102EB000E64444EA05248D6822F0200242EA051225
:102EC0000B4DA8420ED1CD6822F0800242EA0512D5
:102ED0004D6923F4406343EA85038D6922F0400283
:102EE00043EA85034360846149688163026230BDBF
:102EF000002C014030B5026A22F480720262036A3B
:102F00004268C46923F4007324F073050C682C43F1
:102F10008D6843EA05230C4DA8420ED1CD6823F4F9
:102F2000006343EA05234D6922F4405242EA051248
:102F30008D6923F4806342EA05124260C4614968E6
:102F4000C163036230BD0000002C014030B5026A4D
:102F500022F480520262046A4268C3690D6823F455
:102F6000E64343EA05238D6824F4005444EA05341B
:102F7000064DA84204D14D6922F4804242EA8512EE
:102F80004260C36149680164046230BD002C0140A5
:102F900010B5036A046A24F001040462846924F011
:102FA000F00444EA021423F00A020A438461026234
:102FB00010BD10B5036A23F0100303628369046A2D
:102FC00023F4704343EA023224F0A00343EA0111E0
:102FD0008261016210BD000070B50446006801699D
:102FE000E26821F44051114301612169A06808435E
:102FF000616908432168CA6841F20C639A4302433D
:10300000CA6020684169A26921F44071114341619D
:103010001E492068884202D1FEF74CFA01E0FEF713
:1030200039FA00EBC00101EB0012606864218000F6
:10303000B2FBF0F3B3FBF1F36FF018067343B2FB8E
:10304000F0F5B2FBF0F605EB8305322303EB051533
:10305000B5FBF1F5B6FBF1F605F0F00505EB06154D
:10306000B2FBF0F6B2FBF0F0B0FBF1F06FF018023B
:10307000504306EB800003EB0010B0FBF1F0216839
:1030800000F00F002844886070BD00000038014047
:103090002DE9F041984617460E460446069D1DE070
:1030A000681C1BD02DB1FDF70DFEA0EB0800A84257
:1030B00014D92068C16821F4D071C16020684169C9
:1030C00021F001014161202084F83D0084F83E0098
:1030D000002084F83C000320BDE8F08120680068EF
:1030E00036EA000004D00020B842D9D00020F3E72F
:1030F0000120F9E7FEE700000FB4054B10B503A966
:10310000044A029800F05CF910BC5DF814FB000062
:1031100001410008D0000020490050EAC12018BF3A
:1031200004204A0D18BF40F0010040F2FF72B2EBDC
:10313000515F08BF40F00200012808BF052070471A
:103140000907090E002804DB00F1E02080F80014D4
:10315000704700F00F0000F1E02080F8141D704768
:103160002DE9F0414F1E00EBC7010446D1E90001F3
:1031700015461E4637F006020DD02A463346FDF7A7
:1031800080F97F1E04EBC703D3E90023FDF7D2F8D3
:1031900037F00602F1D1022F25D0042F13D0062FCD
:1031A00018BFBDE8F0812A463346FDF76AF9D4E935
:1031B0000A23FDF7BFF82A463346FDF762F9D4E942
:1031C0000823FDF7B7F82A463346FDF75AF9D4E944
:1031D0000623FDF7AFF82A463346FDF752F9D4E946
:1031E0000423FDF7A7F82A463346FDF74AF9D4E948
:1031F0000223FDF79FF82A463346FDF742F9D4E94A
:103200000023BDE8F041FDF795B80122FDF71ABA99
:10321000FDF790B80022134610461146FDF7A3B9FA
:10322000024A00201107FDF70DBA000001FDFFFF63
:1032300002E008C8121F08C1002AFAD1704770477F
:10324000002001E001C1121F002AFBD170470000DD
:103250000149086070470000D40000202DE9FF5F9D
:10326000DDE90220010DDDF838B0024318D044F644
:103270001050A1F2FF3141430D140F98012820D0C6
:10328000A5EB0B00401C5FEA000A4FF00004474E1C
:10329000DFF81C91A046504616D5CAF1000728E079
:1032A0000F98012443A2012808D0002100980F9B09
:1032B000C0E90021C0E90243BDE8FF9F6FEA0B01AE
:1032C000F4E7CBF10000DEE7074612E0F80707D08D
:1032D0002246334640464946FDF7D3F880468946A4
:1032E0002246334610461946FDF7CBF804460E46F3
:1032F0007F10002FEAD1DDE90201BAF1000F42464A
:103300004B4602DAFDF7BDF801E0FDF72CF9044663
:103310000E460022284BFDF723FA03D84FF0FF306A
:10332000014607E00022254B20463146FDF702F812
:10333000FDF797FB102409E0002C0ADB0A2200238A
:10334000FDF758FA019B30321A55641E50EA01020B
:10335000F2D1641C019AC4F1110314440F9A012A9A
:1033600003D0012208430DD10AE0084304D0002015
:103370004FF0110B0F9080E7A3EB0B056D1E0DE0D6
:103380005B4504DD4FF0000205F1010504E003DABE
:103390004FF00002A5F10105002AECD000980F992A
:1033A000C0E90231C0E9004586E700000000244082
:1033B0000000F03F300000000000F0430000E03F5C
:1033C0002DE9FF4F95B09B468946064600250FE242
:1033D000252877D100242746F84A0121059400E0EA
:1033E000044316F8013F203B01FA03F01042F7D1E5
:1033F00030782A2811D06FF02F033078A0F13002F6
:10340000092A16D8059A44F0020402EB820203EB63
:1034100042021044761C0590EFE759F8042B059200
:10342000002A03DA504244F40054059044F00204A8
:10343000761C30782E2816D116F8010F44F00404BB
:103440002A280DD06FF02F023078A0F13003092B1D
:1034500009D807EB870302EB4303C718761CF3E791
:1034600059F8047B761C30786C280FD006DC4C2889
:1034700017D068280DD06A2814D104E0742810D021
:103480007A280FD10DE044F400140AE044F48014CB
:1034900001E044F440147278824202D104F58014B1
:1034A000761C761C307866280BD013DC582877D031
:1034B00009DC002875D04528F6D04628F4D04728E6
:1034C0001AD19DE118E0632835D0642879D06528A9
:1034D00012D195E1702873D008DC6728F1D06928F3
:1034E0006FD06E280DD06F2806D1B5E073282CD090
:1034F000752875D0782874D05A46179990476D1C56
:1035000075E1C4F30250022809D003280DD0D9F880
:10351000001004280DD00D6009F1040967E1D9F805
:103520000010EA17C1E90052F6E7D9F800100D8043
:10353000F2E70D70F0E719F8041B8DF80010002079
:103540008DF80100EA46012003E059F804AB4FF082
:10355000FF3061074FF0000102D40DE008F10101D6
:103560008846B9420FDA8045F8DB1AF808100029BE
:10357000F4D108E008F1010188468142FADB1AF82B
:1035800008100029F6D105985B46A0EB08072146F4
:103590003846179A00F094FA284400EB080507E033
:1035A0004DE029E10DE01AF8010B5A4617999047B2
:1035B000B8F10108F7D25B4621463846179A13E165
:1035C00042E00A220092C4F302524FF0000A022A9B
:1035D00008D059F804CB032A4FEAEC710AD00DE069
:1035E00029E02AE009F1070121F00702F2E802C10F
:1035F000914609E00FFA8CFC4FEAEC71042A03D1E2
:103600004FFA8CFC4FEAEC71002907DA0A460021D8
:10361000DCF1000C61EB02012D2202E0220504D551
:103620002B228DF80420012203E0E20701D02022A2
:10363000F7E7904659E00A2102E010220DE0102140
:103640004FF0000A00910BE010224FF0000A44F006
:1036500004040827009203E008224FF0000A0092B9
:10366000C4F30252022A05D059F804CB0021032AE0
:1036700008D009E009F1070121F00702F2E802C1D0
:10368000914605E01FFA8CFC042A01D10CF0FF0CD6
:103690004FF00008220728D5702806D0009B83F041
:1036A000100353EA0A0305D00EE040228DF80420EF
:1036B000012208E05CEA010206D030228DF80420E5
:1036C0008DF8050002229046009B83F0080353EA20
:1036D0000A030AD15CEA010201D1620705D5302252
:1036E0008DF804204FF001087F1E582804D034A024
:1036F00003900EA802900DE036A0F9E7534660460D
:10370000009AFDF777F884460398825C0298401E81
:10371000029002705CEA0100F0D1029806A9081A32
:1037200000F1200A600702D524F4803400E001276C
:10373000574502DDA7EB0A0000E0002000EB0A017C
:10374000009005984144401A0590E00306D45B467A
:103750002146179A059800F0B3F90544002706E0C2
:1037600001A85A46C05D179990476D1C7F1C4745BC
:10377000F6DBE0030CD55B462146179A059800F06E
:103780009FF9054404E030205A46179990476D1C74
:103790000099481E00900029F5DC08E00298029983
:1037A0005A460078491C0291179990476D1CBAF14E
:1037B0000001AAF1010AF1DC65E10000092801001D
:1037C0003031323334353637383961626364656697
:1037D0000000000030313233343536373839414259
:1037E000434445460000000000F058F90544761CAB
:1037F000307800287FF4ECAD19B02846BDE8F08F92
:10380000620700D4062709F1070222F0070CFCE842
:103810000223E14603F000485FEA080C02D00FF2F1
:10382000702C0DE05FEA045C02D50FF2682C07E013
:103830005FEAC47C02D00FF2602C01E0AFF2700CA2
:103840004FF0FF3823F00043CDF850C065280CD06E
:1038500006DC452809D046281DD047283DD13DE04B
:10386000662818D067287ED138E00021112F01DBAF
:10387000112000E0781CCDE9000106A90EA8FFF791
:10388000EDFCDDE90F010E9A03910021009207F192
:10389000010A04914DE04FF000400097CDE901107E
:1038A00006A90EA8FFF7DAFCDDE90F0203920E9BD2
:1038B00011990022DDF80CA00093049211B9791C33
:1038C00000EB010AB7EB0A0004D4C0F1FF3007F1A6
:1038D000010A0490AAEB0700019044E0012F00DAEE
:1038E00001270021112F01DD112000E03846CDE92C
:1038F000000106A90EA8FFF7B1FCDDE90F010E9A41
:103900000391002104910092BA4621070CD4039937
:10391000514500DA8A46BAF1010F05DD009AAAF195
:103920000101515C302908D0B84202DA10F1040FCD
:1039300006DA0121CDE9011015E0AAF10101E9E75C
:10394000002805DC049901440491AAEB000102E07F
:10395000411C514500DD8A460499401A401C0190E3
:103960004FF000400290200704D40198504501DB3D
:10397000CDF8048000208DF84F0002980DF14F071C
:10398000B0F1004F25D02B200E9002984FF0020886
:1039900000280CDA404202902D200E9007E00A2108
:1039A0000298FCF711FF3031029007F8011DB8F1C1
:1039B0000001A8F10108F2DC02980028EFD1791E7D
:1039C0000E980870307800F0200040F0450007F8AD
:1039D000020D12A8C01B00F107081498007800B16E
:1039E000012000EB0A01019801EBE07105984144C8
:1039F000401A401E0590E00306D45B462146179A04
:103A0000059800F05DF805441498007818B15A46FE
:103A1000179990476D1CE00324D55B462146179A01
:103A2000059800F04DF805441CE00498002807DBD9
:103A3000DDE90301884203DD0098405C179901E04D
:103A4000179930205A469047049805F10105401C0B
:103A500004900198401E019004D12E205A461799D7
:103A600090476D1CBAF10001AAF1010ADDDC05E006
:103A700017F8010B5A46179990476D1CB8F10001D1
:103A8000A8F10108F4DC5B462146179A0598ABE6DD
:103A90002D0000002B000000200000002DE9F04167
:103AA000044600251E461746880404D405E039461E
:103AB0002020B0476D1C641EF9D52846BDE8F08172
:103AC0002DE9F041044600251E469046C80301D565
:103AD000302700E02027880404D505E04146384619
:103AE000B0476D1C641EF9D52846BDE8F081000082
:103AF0002DE9F04D8D4F21F0004A86B005460C4669
:103B0000BA452ADBAAEB070028430AD08848824539
:103B100001DC1AD1CDB106B02846BDE8F04DFFF763
:103B200074BB844A844B2846FCF7ABFC07460E4620
:103B3000824A834B28462146FCF7A3FC06B03A464E
:103B40003346BDE8F04DFCF7F5BB0120FFF780FBE5
:103B500006B0BDE8F04DFFF75DBB7A48824542DA1A
:103B6000BAF1795F0BDA2846FFF7D6FA042808BFC6
:103B7000FFF756FB284606B02146BDE8F08D2A46E1
:103B80000B461046FCF77DFC834602466E480E4607
:103B90000B4606217844FFF7E3FA5A463346FCF712
:103BA00070FC804669488A465A4633460421784468
:103BB000FFF7D6FA5A463346FCF763FC00223B4631
:103BC000FCF7B8FB02460B4640465146FCF7CBFCDF
:103BD0002A462346FCF755FC06B02A462346BDE894
:103BE000F04DFCF7A7BB284624F0004100223D46DB
:103BF0003B46FCF743FC4FF0FF32FCF723FD064643
:103C0000024653480F460B4606217844FFF7A8FAB0
:103C100032463B46FCF735FCCDE900014D483246C3
:103C20003B4604217844FFF79BFA32463B46FCF7BB
:103C300028FC00222B46FCF77DFB83460291304690
:103C4000394601F095F8804643480D46504517DC4B
:103C5000DDE900015A46029BFCF785FC42462B46F3
:103C6000FCF70FFC42462B46FCF764FB0122FCF7F5
:103C7000E9FC304A304BFCF7FEFB304A304B4CE05D
:103C80004FF0000A52460B464046FCF753FBCDE985
:103C9000031052462B4610461946FCF7F2FB3246FB
:103CA0003B46FCF7EBFBDDE90332FCF75CFC064628
:103CB0000F46DDE900015A46029BFCF754FC83469F
:103CC0000091012230463946FCF7BCFC194A1A4BD8
:103CD000FCF7D4FB06460F46012240462946FCF776
:103CE000B1FC5A46009BFCF7CCFB32463B46FCF746
:103CF000C2FB06460F46012250462946FCF7A2FCAD
:103D00000E4DDFF858802A464346FCF7B7FB324693
:103D10003B46FCF7B3FB2A464346FCF7AFFB002CBF
:103D2000D8BF81F0004106B0BDE8F08D0000F03F43
:103D30000000F07F075C143326A6913C182D4454F4
:103D4000FB21F93F0000E03F501200006612000026
:103D5000DA110000F01100003333EF3FFB21E93F9F
:103D60002DE9F84F04460D4621F0004000917349BB
:103D7000814211DC7249884201DC06D12CB1204617
:103D80002946BDE8F84FFFF740BA6E48002DCCBF7A
:103D90006D496E49BDE8F88F6D49814211DD6D496D
:103DA0008142D8BF4FF0FF366DDD20462946FFF730
:103DB000B3F9042808BFFFF733FA20462946BDE8C7
:103DC000F88F6549654F25F00045814233DD644930
:103DD000814219DD002632464FF0804320462946B5
:103DE000FCF7A8FA80468A46012220462946FCF7BD
:103DF00029FC00223B46FCF73EFB42465346FCF7BB
:103E0000B2FB04460D463EE001260022BA463B4680
:103E100020462946FCF78EFA80460F46002253467C
:103E200020462946FCF727FB42463B46FCF79BFB16
:103E300004460D4627E04B4981421BDDDFF828A1EF
:103E400002260022534620462946FCF71AFB002290
:103E50003B46FCF76FFA80460F4600225346204649
:103E60002946FCF708FB42463B46FCF77CFB044630
:103E70000D4608E0032622462B4600203B49FCF76E
:103E800072FB04460D4622462B4610461946FCF7A7
:103E9000F8FA8B46824602460B46FCF7F2FA0746D2
:103EA0000246334888460B4606217844FFF758F906
:103EB00052465B46FCF7E5FA82462E488B463A4668
:103EC000434605217844FFF74BF93A464346FCF751
:103ED000D8FA02460B46002E504659460CDAFCF73B
:103EE00029FA22462B46FCF7CCFA01B022462B4693
:103EF000BDE8F04FFCF7C2BAFCF71CFA22462B468D
:103F0000FCF7BFFA1C4A7A4402EBC603D3E900234C
:103F1000FCF7B1FA22462B46FCF7ADFA174A7A4471
:103F200002EBC603D3E90023FCF7A8FA009A002AA3
:103F3000B8BF81F00041BDE8F88F000000001044D8
:103F40000000F07F182D4454FB21F93FFB21F9BFFD
:103F50000000DC3F0000203E0000F33F0000F03F87
:103F60000000E63F008003400000F83F0000F0BF83
:103F7000F20F0000B00F00004E0F0000160F0000FF
:103F80002DE9F04D9446CCF1000423F000464CEAB4
:103F90000404524F46EAD4749A46884621F00042FF
:103FA000BC4206D8454240EA050442EAD474BC4209
:103FB00004D9BDE8F04D6246FFF72AB9AAF1405591
:103FC000A5F17F6555EA0C040BD0022404EAAA741B
:103FD000434DDFF810E144EAD87452EA000B04D0F4
:103FE0000CE0BDE8F04DFFF7BBBE002C14BF012C68
:103FF000BDE8F08D022C30D0032C32D056EA0C0BE9
:104000000AD0BE4220D1BA4209D126F0804622F021
:1040100080423346114617E000291ADB25E0DFF81D
:10402000C8B0FB44002C04BFDBE90001BDE8F08D03
:10403000012C02BFDBE9000181F00041BDE8F08DF9
:10404000022C0AD0032C0CD0BA4212D1B8F1000FC6
:104050000BDA23482549BDE8F08D28462449BDE800
:10406000F08D28467146BDE8F08D1D482149BDE818
:10407000F08D921B12153C2AC4BF19481D490EDC55
:10408000BAF1000FBEBF12F13C0F0020014606DB63
:104090006246FCF768FA21F00041FFF761FE002C50
:1040A00008BFBDE8F08D012C04BF81F00041BDE8E0
:1040B000F08D114A114B022C07D0FCF7DCF92A468F
:1040C000BDE8F04D0A4BFCF7D6B9FCF7D4F92A4607
:1040D000BDE8F04D064BFCF7D1B900000000F07FC1
:1040E000182D4454FB2109C0AA0E0000FB21F9BF82
:1040F000FB210940FB21F93F075C143326A6A13CB4
:1041000013B54FF0FF33012269460248FEF73CF930
:1041100000981CBD640400202DE9F04FFE4C93B0C4
:1041200061686068FCF78AF80B90A1686068FCF72A
:1041300085F8E16882466068FCF780F8216983466B
:104140006068FCF77BF8A1688146A068FCF776F808
:104150000790E168A068FCF771F806902169A068F3
:10416000FCF76CF80590E168E068FCF767F80390ED
:104170002169E068FCF762F8049021692069FCF786
:104180005DF8E64D02902869206268696062A8695E
:10419000A062B5F90000FCF76CFAE062B5F9020024
:1041A000FCF767FA2063B5F90400FCF762FA606374
:1041B000B5F90600FCF75DFAA063B5F90800FCF755
:1041C00058FAE063B5F90A00FCF753FA2064FCF7EB
:1041D00079FDA064A06C616C401AFCF753FAD049D9
:1041E000FCF75EF80090A06C6064616B606BFCF79C
:1041F00025F8216B0646206BFCF720F8E16A05469E
:10420000E06AFCF71BF82946FBF7C0FF3146FBF7D5
:10421000BDFF00F0C5FB05460146E06AFCF70EF85D
:10422000E0622946206BFCF709F820632946606BA1
:10423000FCF704F86063216C206CFBF7FFFFE16B77
:104240000646E06BFBF7FAFFA16B0546A06BFBF798
:10425000F5FF2946FBF79AFF3146FBF797FF00F081
:104260009FFB05460146A06BFBF7E8FFA0632946CC
:10427000E06BFBF7E3FFE0632946206CFBF7DEFF12
:10428000206459460598FBF781FF05460F900121F0
:10429000206CFCF743F82946FBF7D0FF0746494658
:1042A0000698FBF7C5FF054610900121E06BFCF76F
:1042B00035F82946FBF7C2FF06464FF07C50804692
:1042C0000399FBF7B5FF0299FBF7B2FF0546119082
:1042D0000121A06BFCF722F82946FBF7AFFF31461E
:1042E000FBF754FF3946FBF751FF07465146049848
:1042F000FBF79EFF05460121206CFCF70FF82946CD
:10430000FBF79CFF064640460799FBF791FF804666
:104310000299FBF78DFF05460121E06BFBF7FEFFDD
:104320002946FBF78BFF054649460698FBF72EFF0B
:1043300081460121A06BFBF7F1FF4946FBF77EFFA9
:104340002946FBF723FF3146FBF720FF0646404690
:104350000399FBF76DFF054608900121206CFBF7E0
:10436000DDFF2946FBF76AFF804651460498FBF7BC
:104370000DFF05460A900121E06BFBF7CFFF2946B0
:10438000FBF75CFF054659460598FBF751FF814650
:104390000121A06BFBF7C2FF4946FBF74FFF2946FF
:1043A000FBF7F4FE4146FBF7F1FE054631460846B1
:1043B000FBF744FF064639460846FBF73FFF314608
:1043C000FBF7E4FEFCF7A0F900F0D2FCFCF7E0F903
:1043D000074648460121FBF7A1FF059001210A98F5
:1043E000FBF79CFF834607990B98FBF721FF039986
:1043F000FBF71EFF0299FBF7C9FE82464E460121DC
:104400002846FBF78BFF31460B90FBF717FF06465C
:1044100001213846119DFBF781FF07462946FBF72E
:104420000DFF3146FBF7B2FE8146DDE90A10FBF7CE
:1044300005FF054638461099FBF700FF2946FBF7B4
:10444000A5FE804608990B98FBF7F8FE054638460E
:104450000F99FBF7F3FE2946FBF798FE0546414608
:10446000206CFBF7EBFE06462946E06BFBF7E6FE09
:104470003146FBF7DDFE06465946606BFBF7DEFE74
:1044800007465146206BFBF7D9FE3946FBF7D0FEB5
:104490003146FBF77BFE07462946A06BFBF7CEFEB5
:1044A00005464946206CFBF7C9FE2946FBF7C0FECE
:1044B00005465146E06AFBF7C1FE06460599606B6A
:1044C000FBF7BCFE3146FBF7B3FE2946FBF75EFE69
:1044D00006464946E06BFBF7B1FE05464146A06B38
:1044E000FBF7ACFE2946FBF7A3FE05460599206BBA
:1044F000FBF7A4FE80465946E06AFBF79FFE414663
:10450000FBF796FE2946FBF741FE054617F0FF4FE5
:1045100050D016F0FF4F05E000000020D80000202A
:104520000000FA4446D015F0FF4F43D0DFF8CC81AD
:1045300038464146FBF782FE0099FBF77FFE616932
:10454000FBF724FE606141463046FBF777FE009999
:10455000FBF774FEA169FBF719FEA06141462846EE
:10456000FBF76CFE0099FBF769FEE169FBF70EFEB5
:10457000E06101213846FBF7D1FE216AFBF706FE18
:104580006169FBF703FE206201213046FBF7C6FE9E
:10459000616AFBF7FBFDA169FBF7F8FD6062012191
:1045A0002846FBF7BBFEA16AFBF7F0FDE169FBF7CC
:1045B000EDFDA062A16A2069FBF740FE616A064634
:1045C000E068FBF73BFE0546A068216A80F00040EA
:1045D000FBF734FE2946FBF72BFE3146FBF728FE9E
:1045E0000099FBF72BFE6168FBF7D0FD616A8046FE
:1045F0002069FBF723FEA16A0646E068FBF71EFE72
:10460000216A05466068FBF719FE2946FBF7BEFDE7
:104610003146FBF70DFE0099FBF710FEA168FBF792
:10462000B5FD216A07462069FBF708FEA16A064628
:10463000A068FBF703FE616A05466068FBF7FEFDB4
:104640002946FBF7F5FD3146FBF7A0FD0099FBF786
:10465000F5FDE168FBF79AFD216A0646E068FBF785
:10466000EDFD616A8146A068FBF7E8FDA16A054699
:104670006068FBF7E3FD2946FBF788FD4946FBF739
:10468000D7FD0099FBF7DAFD2169FBF77FFD0546B1
:104690000146FBF7D3FD834631460846FBF7CEFDC6
:1046A000824639460846FBF7C9FD81464146084621
:1046B000FBF7C4FD4946FBF769FD5146FBF766FD74
:1046C0005946FBF763FD00F06BF981460146404611
:1046D000FBF7B4FD606049463846FBF7AFFDA060CC
:1046E00049463046FBF7AAFDE06049462846FBF7FD
:1046F000A5FD206113B0BDE8F08F00000AD7233C70
:104700002DE9F0474B4C01212069FBF707FE216999
:10471000FBF794FD05464FF040484146E068FBF743
:104720008DFDE168FBF78AFD2946FBF781FD4FF01F
:104730007E594946FBF72AFDFBF7E6FF06460D4684
:1047400001216068FBF7EAFD2169FBF777FD074669
:104750000121A068FBF7E2FDE168FBF76FFD394638
:10476000FBF714FDFBF7D0FF32462B46FFF708FCA2
:10477000314F4FF0663A52463B46FBF782FEFCF75C
:1047800007F82E4E012130636068FBF7C7FDE16832
:10479000FBF754FD05464146A068FBF74FFD216934
:1047A000FBF74CFD2946FBF7F1FCFBF7ADFFFFF7EC
:1047B0009FF952463B46FBF764FEFBF7E9FFF062C8
:1047C0000121E068FBF7AAFDE168FBF737FD05462C
:1047D0004146A068FBF732FDA168FBF72FFD294693
:1047E000FBF726FD4946FBF7D1FCFBF78DFF05469D
:1047F0000F4601216068FBF791FDA168FBF71EFDE4
:1048000080460121E068FBF789FD2169FBF716FD71
:104810004146FBF7BBFCFBF777FF2A463B46FFF719
:10482000AFFB5246064BFBF72CFEFBF7B1FFB06225
:10483000BDE8F0870000002066A64CC0D80000202C
:1048400066A64C402DE9F05F3D48DFF8F8803E4C0D
:10485000B0F90610B0F908003C4D3D4EDFF8F49079
:10486000DFF8F4A0DFF8F4B0002935DA3C4F002877
:104870001ADA91FBF0F0FBF70AFF21F00041002269
:10488000384BFBF76DFF06D8C4F80480A5603648A6
:10489000E060364805E0364860603648A060E66073
:1048A00035482061BDE8F09FFCDD91FBF0F0FBF79F
:1048B000EEFE21F0004100222A4BFBF751FF67601A
:1048C00004D8A560C4F80C902C48EAE7C4F808A006
:1048D000C4F80CB02A48E4E7E4DD2A4F002818DDCC
:1048E00091FBF0F0FBF7D3FE21F0004100221D4BBD
:1048F000FBF736FF06D824486060C4F80890E560EE
:104900004046CEE721486060C4F808B0C4F80CA067
:10491000C7E7C7DA91FBF0F0FBF7B9FE21F00041E1
:104920000022104BFBF71CFF676004D81848A060FA
:10493000E5601848B5E7A6601748E0601748B0E79B
:10494000D80000200AD7A3BB00000020A8C64BBE99
:10495000E17A543F355E7ABF68910DBFE17A54BF6A
:104960000AD7A33B0000F03FBE9F7A3F4ED111BC57
:104970006F1203BC7B140EBF6F1203BBA69B443C9B
:1049800099BB16BB0AD7233B52499D3A99BB163BAC
:10499000355E7A3F6F12033C295C0FBFBC74933BBA
:1049A00010B504464FF0FF31FBF7B8FC0849A1EB06
:1049B00064042146FBF742FC2146FBF73FFC4FF025
:1049C0007F51FBF738FC2146BDE81040FBF736BCB1
:1049D000DF59375F1FB5FCF737FCFEF798F9FDF795
:1049E00025FFFDF741FFFDF795FFFDF7C7FFFEF738
:1049F00015F8FEF749F8FEF763F8FDF755FFFDF7E8
:104A000005FF2E48FCF7C2FF00212D48FDF7E4FA10
:104A100004212B48FDF7E0FA08212948FDF7DCFACC
:104A20000C212748FDF7D8FA00212648FDF7EEF8BB
:104A300004212448FDF7EAF800212348FDF7E6F8B1
:104A400004212148FDF7E2F820490020CDE90201C8
:104A5000CDE9000101461E4A1E48FEF724F91B4914
:104A60000020CDE902011A4ACDE900010146183AB9
:104A70001948FEF718F919490020CDE90201144A36
:104A8000CDE90001014618321548FEF70CF9104C2B
:104A9000144D154E403C00BFFDF7BFFEA86AFBF762
:104AA00033FED4E904238DE80F00B6F90E10D4E9E3
:104AB00002230EA0FEF720FBEEE7000044030020D7
:104AC000D40300201C0400208C0300200000594067
:104AD00090000020D001002040010020004CED405B
:104AE00060020020D80000201A01002025642C2537
:104AF000662C25662C25660A0000000030B585B0BE
:104B00006420FBF7DDFF752000F0EAF8114900246E
:104B10001422887010496846FBF714FB4FEA0D0514
:104B200005EB4400417815F8140000F00BF9012062
:104B3000FBF7C6FF641CE4B20A2CF1D3032000F09B
:104B4000FCF8022000F0F4F800F076F805B0002040
:104B500030BD000000000020BC4D00082DE9F041F0
:104B60000E2230493B2000F0D1F82E4A02F10E010E
:104B7000108840BA0880508840BA4880908840BA6F
:104B80008880D08840BA03B28B8110894C8B40BAA0
:104B9000001B05B2CD8150898C8B40BA001B04B23A
:104BA0000C829089CA8B40BA801A06B2A1F14200E9
:104BB0004E82D0F842100160D0F846104160D0F823
:104BC0004A1081601846FBF754FD1749FBF768FB54
:104BD0001649FBF7DBFA134F343FF8602846FBF722
:104BE00048FD134D2946FBF75BFBDFF84880414643
:104BF000FBF756FB38612046FBF73BFD2946FBF7E8
:104C00004FFB4146FBF74CFB78613046FBF731FD2B
:104C10002946FBF745FB4146FBF742FBB861BDE87F
:104C2000F08100000C0100205CEFA6430000A841C9
:104C30006F128341333365422DE9F041274E00273F
:104C400006F10E044FF496750E2224493B2000F025
:104C50005DF83188A08A49BA0844A0827188E08A48
:104C600049BA0844E082B188208B49BA08442083BD
:104C70003189608B49BA084460837189A08B49BA35
:104C80000844A083B189E08B49BA0844E083052039
:104C9000FBF716FF7F1CAF42D6DBB4F9140090FB84
:104CA000F5F0A082B4F9160090FBF5F0E082B4F9BB
:104CB000180090FBF5F02083B4F91A0090FBF5F092
:104CC0006083B4F91C0090FBF5F0A083B4F91E00DA
:104CD00090FBF5F0E083BDE8F08100000C010020BE
:104CE0000EB508494FF47A7301228DE80E0040F0AA
:104CF00080020123D0210448FCF7AEF80148401E91
:104D000040780EBD01000020F00200200EB54FF4E7
:104D10002F7353438DE80E0040F080020123D02111
:104D20000248FCF799F800200EBD0000F0020020B8
:104D3000C006010E1C2000F005B8C006010E1B20A5
:104D4000AFF300800EB5084A012311704FF47A7159
:104D5000CDE90023029100F07F02D0210348FCF747
:104D6000A3F900200EBD000000000020F00200208A
:104D70002DE9F04106460F46FBF722FE041E0D46C4
:104D800018BF0120284320F00040C0F17F6000F1EF
:104D9000E040C00F0ED0301C18BF0120384320F077
:104DA0000040C0F17F6000F1E040C00F04BF01206F
:104DB000FEF74EFA20462946BDE8F0816B806B0372
:104DC0006C001A041B181C101D026A200000000051
:104DD00000000000000000000102030406070809AB
:104DE0000000000001020304555555555555C53FB7
:104DF0007D6FEB0312D6D4BF5544880E55C1C93F11
:104E00003B8F68B52882A4BF88B20175E0EF493FA7
:104E100009F7FD0DE13D023F4B2D8A1C273A03C0E7
:104E2000C88A599CE52A004059018D1B6C06E6BFD3
:104E300082922EB1C5B8B33F4FBB610567ACDD3F71
:104E4000182D4454FB21E93F9BF681D20B73EF3FB1
:104E5000182D4454FB21F93FE2652F227F2B7A3C29
:104E6000075C143326A6813CBDCBF07A8807703CE2
:104E7000075C143326A6913CC4EB98999999C9BF55
:104E8000711623FEC671BCBF6D9A74AFF2B0B3BF8A
:104E90009AFDDE522DDEADBF2F6C6A2C44B4A2BF4A
:104EA0000D5555555555D53FFF8300922449C23FB6
:104EB0006E204CC5CD45B73F513DD0A0660DB13FEA
:104EC000EB0D76244B7BA93F11DA22E33AAD903FFC
:104ED0000000000000000000F84E00080000002064
:104EE000D800000030320008D04F0008D800002061
:104EF0001808000040320008000000000000803F59
:104F000000000000000000000000000000000000A1
:104F10000000000000000000000000000000000091
:104F20000000000000000000000000000000000081
:104F30000000000000000000000000000000000071
:104F40000000000000000000000000000000000061
:104F50000000000000000000000000000000000051
:104F60000000000000000000000000000000000041
:104F70009A9999999999A93FF168E388B5F8E43E1F
:104F800000000000000000000000000000002940B8
:104F900000000000000000000000000000000040D1
:104FA0000000000000005940000000000000000068
:104FB00000000000000000000100000010000000E0
:104FC000000000000024F4000000000000000000C9
:04000005080000ED02
:00000001FF
